{
	"data": {
		"bytecode": {
			"linkReferences": {},
			"object": "6101806040523480156200001257600080fd5b506040516200487538038062004875833981016040819052620000359162000428565b600a80546001600160a01b0319163390811790915562000056818962000167565b62000062858562000177565b6200006d83620001a7565b816000815181106200008357620000836200051c565b60200260200101516001600160a01b0316610100816001600160a01b03168152505081600181518110620000bb57620000bb6200051c565b60200260200101516001600160a01b0316610120816001600160a01b03168152505081600281518110620000f357620000f36200051c565b60200260200101516001600160a01b0316610140816001600160a01b031681525050816003815181106200012b576200012b6200051c565b60209081029190910101516001600160a01b031661016052505050600f979097555060e09490945260c0929092525060805260a052506200056f565b620001738282620001bc565b5050565b81516200018c90600090602085019062000205565b508051620001a290600190602084019062000205565b505050565b80516200017390600290602084019062000205565b612710811115620001e057604051635b75946560e11b815260040160405180910390fd5b600855600980546001600160a01b0319166001600160a01b0392909216919091179055565b828054620002139062000532565b90600052602060002090601f01602090048101928262000237576000855562000282565b82601f106200025257805160ff191683800117855562000282565b8280016001018555821562000282579182015b828111156200028257825182559160200191906001019062000265565b506200029092915062000294565b5090565b5b8082111562000290576000815560010162000295565b634e487b7160e01b600052604160045260246000fd5b604051601f8201601f191681016001600160401b0381118282101715620002ec57620002ec620002ab565b604052919050565b600082601f8301126200030657600080fd5b81516001600160401b03811115620003225762000322620002ab565b602062000338601f8301601f19168201620002c1565b82815285828487010111156200034d57600080fd5b60005b838110156200036d57858101830151828201840152820162000350565b838111156200037f5760008385840101525b5095945050505050565b600082601f8301126200039b57600080fd5b815160206001600160401b03821115620003b957620003b9620002ab565b8160051b620003ca828201620002c1565b9283528481018201928281019087851115620003e557600080fd5b83870192505b848310156200041d5782516001600160a01b03811681146200040d5760008081fd5b82529183019190830190620003eb565b979650505050505050565b6000806000806000806000806000806101408b8d0312156200044957600080fd5b8a51995060208b0151985060408b0151975060608b0151965060808b0151955060a08b0151945060c08b015160018060401b03808211156200048a57600080fd5b620004988e838f01620002f4565b955060e08d0151915080821115620004af57600080fd5b620004bd8e838f01620002f4565b94506101008d0151915080821115620004d557600080fd5b620004e38e838f01620002f4565b93506101208d0151915080821115620004fb57600080fd5b506200050a8d828e0162000389565b9150509295989b9194979a5092959850565b634e487b7160e01b600052603260045260246000fd5b600181811c908216806200054757607f821691505b602082108114156200056957634e487b7160e01b600052602260045260246000fd5b50919050565b60805160a05160c05160e051610100516101205161014051610160516142306200064560003960008181611757015261181f01526000818161178101526118730152600081816117ab01526118c70152600081816117d5015261191b0152600081816107ab01528181610df5015261216c01526000818161050a01528181610c7e01528181610e6a01528181611448015281816115970152818161200c01526121e10152600081816106f201528181610ed2015261224901526000818161075901528181611604015261207901526142306000f3fe6080604052600436106102dc5760003560e01c80634f6ccce711610184578063950bff9f116100d6578063adfdeef91161008a578063e2e784d511610064578063e2e784d514610895578063e985e9c5146108b5578063f2fde38b146108d557600080fd5b8063adfdeef914610835578063b88d4fde14610855578063c87b56dd1461087557600080fd5b8063a0712d68116100bb578063a0712d68146107e2578063a22cb465146107f5578063a694fc3a1461081557600080fd5b8063950bff9f1461079957806395d89b41146107cd57600080fd5b8063672434821161013857806380d65b0a1161011257806380d65b0a1461073457806388089f0b146107475780638da5cb5b1461077b57600080fd5b806367243482146106c05780636bde2627146106e057806370a082311461071457600080fd5b80635a67de07116101695780635a67de0714610641578063603f4d52146106615780636352211e146106a057600080fd5b80634f6ccce714610601578063520332151461062157600080fd5b80632a55205a1161023d578063379607f5116101f15780633ccfd60b116101cb5780633ccfd60b146105ac57806342842e0e146105c1578063440bc7f3146105e157600080fd5b8063379607f51461054c578063381d7df01461056c5780633cb971ca1461059957600080fd5b80632f745c59116102225780632f745c59146104d857806332cb6b0c146104f85780633455f41e1461052c57600080fd5b80632a55205a146104795780632e17de78146104b857600080fd5b8063150b7a02116102945780631b7b79ee116102795780631b7b79ee14610426578063215f45b41461043957806323b872dd1461045957600080fd5b8063150b7a02146103b257806318160ddd1461040357600080fd5b8063081812fc116102c5578063081812fc14610338578063095ea7b314610370578063142982f41461039257600080fd5b806301ffc9a7146102e157806306fdde0314610316575b600080fd5b3480156102ed57600080fd5b506103016102fc3660046137ef565b6108f5565b60405190151581526020015b60405180910390f35b34801561032257600080fd5b5061032b610960565b60405161030d9190613882565b34801561034457600080fd5b50610358610353366004613895565b6109f2565b6040516001600160a01b03909116815260200161030d565b34801561037c57600080fd5b5061039061038b3660046138c3565b610a57565b005b34801561039e57600080fd5b506103906103ad3660046138ef565b610bb0565b3480156103be57600080fd5b506103d26103cd36600461398f565b610d10565b6040517fffffffff00000000000000000000000000000000000000000000000000000000909116815260200161030d565b34801561040f57600080fd5b50610418610d3a565b60405190815260200161030d565b6103906104343660046138ef565b610d8b565b34801561044557600080fd5b50610390610454366004613b00565b610f3a565b34801561046557600080fd5b50610390610474366004613bc2565b6110ab565b34801561048557600080fd5b506104996104943660046138ef565b611195565b604080516001600160a01b03909316835260208301919091520161030d565b3480156104c457600080fd5b506103906104d3366004613895565b6111f0565b3480156104e457600080fd5b506104186104f33660046138c3565b6112a4565b34801561050457600080fd5b506104187f000000000000000000000000000000000000000000000000000000000000000081565b34801561053857600080fd5b50610418610547366004613c03565b61136f565b34801561055857600080fd5b50610390610567366004613895565b61137a565b34801561057857600080fd5b50610418610587366004613c03565b600e6020526000908152604090205481565b6103906105a7366004613c20565b6114d8565b3480156105b857600080fd5b5061039061167f565b3480156105cd57600080fd5b506103906105dc366004613bc2565b611a67565b3480156105ed57600080fd5b506103906105fc366004613895565b611b99565b34801561060d57600080fd5b5061041861061c366004613895565b611c60565b34801561062d57600080fd5b5061035861063c366004613895565b611ca7565b34801561064d57600080fd5b5061039061065c366004613cb1565b611d0b565b34801561066d57600080fd5b50600a546106939074010000000000000000000000000000000000000000900460ff1681565b60405161030d9190613d01565b3480156106ac57600080fd5b506103586106bb366004613895565b611d67565b3480156106cc57600080fd5b506103906106db366004613b00565b611db4565b3480156106ec57600080fd5b506104187f000000000000000000000000000000000000000000000000000000000000000081565b34801561072057600080fd5b5061041861072f366004613c03565b611f42565b610390610742366004613c20565b611f4d565b34801561075357600080fd5b506104187f000000000000000000000000000000000000000000000000000000000000000081565b34801561078757600080fd5b50600a546001600160a01b0316610358565b3480156107a557600080fd5b506104187f000000000000000000000000000000000000000000000000000000000000000081565b3480156107d957600080fd5b5061032b6120f3565b6103906107f0366004613895565b612102565b34801561080157600080fd5b50610390610810366004613d42565b6122b0565b34801561082157600080fd5b50610390610830366004613895565b61237f565b34801561084157600080fd5b50610390610850366004613c03565b61241f565b34801561086157600080fd5b50610390610870366004613d80565b6124d8565b34801561088157600080fd5b5061032b610890366004613895565b61263c565b3480156108a157600080fd5b506103906108b03660046138c3565b6126d7565b3480156108c157600080fd5b506103016108d0366004613e1f565b612738565b3480156108e157600080fd5b506103906108f0366004613c03565b612744565b60007fffffffff0000000000000000000000000000000000000000000000000000000082167f2a55205a00000000000000000000000000000000000000000000000000000000148061094b575061094b82612801565b8061095a575061095a826128e5565b92915050565b60606000805461096f90613e4d565b80601f016020809104026020016040519081016040528092919081815260200182805461099b90613e4d565b80156109e85780601f106109bd576101008083540402835291602001916109e8565b820191906000526020600020905b8154815290600101906020018083116109cb57829003601f168201915b5050505050905090565b600081610a00816003541190565b610a36576040517f89a111e300000000000000000000000000000000000000000000000000000000815260040160405180910390fd5b6000838152600560205260409020546001600160a01b031691505b50919050565b80610a63816003541190565b610a99576040517f89a111e300000000000000000000000000000000000000000000000000000000815260040160405180910390fd5b336000610aa58461293b565b90506000610ab4828487612992565b905080610aed576040517fbdc31d1200000000000000000000000000000000000000000000000000000000815260040160405180910390fd5b816001600160a01b0316866001600160a01b03161415610b39576040517fcef24c0000000000000000000000000000000000000000000000000000000000815260040160405180910390fd5b60008581526005602052604080822080547fffffffffffffffffffffffff0000000000000000000000000000000000000000166001600160a01b038a811691821790925591518893918616917f8c5be1e5ebec7d5bd14f71427d1e84f3dd0314c0f7b2291e5b200ac8c7c3b92591a4505050505050565b6001600a5474010000000000000000000000000000000000000000900460ff166002811115610be157610be1613cd2565b14610c18576040517fa11aad5b00000000000000000000000000000000000000000000000000000000815260040160405180910390fd5b336000818152600e6020526040902054831115610c61576040517fe8aad3f200000000000000000000000000000000000000000000000000000000815260040160405180910390fd5b600083610c6d60035490565b610c779190613eca565b9050600f547f0000000000000000000000000000000000000000000000000000000000000000610ca79190613ee2565b811115610ce0576040517fc77894c000000000000000000000000000000000000000000000000000000000815260040160405180910390fd5b6001600160a01b0382166000908152600e6020526040902080548590039055610d0a8285856129e7565b50505050565b7f150b7a02000000000000000000000000000000000000000000000000000000005b949350505050565b600080610d4660035490565b90506000805b82811015610d8457610d5f816003541190565b15610d725781610d6e81613ef9565b9250505b80610d7c81613ef9565b915050610d4c565b5092915050565b6002600a5474010000000000000000000000000000000000000000900460ff166002811115610dbc57610dbc613cd2565b14610df3576040517f13ce6b3100000000000000000000000000000000000000000000000000000000815260040160405180910390fd5b7f0000000000000000000000000000000000000000000000000000000000000000821115610e4d576040517fb3ccae9500000000000000000000000000000000000000000000000000000000815260040160405180910390fd5b600082610e5960035490565b610e639190613eca565b9050600f547f0000000000000000000000000000000000000000000000000000000000000000610e939190613ee2565b811115610ecc576040517fc77894c000000000000000000000000000000000000000000000000000000000815260040160405180910390fd5b34610ef77f000000000000000000000000000000000000000000000000000000000000000085613f32565b14610f2e576040517f225456a100000000000000000000000000000000000000000000000000000000815260040160405180910390fd5b33610d0a8185856129e7565b33610f4d600a546001600160a01b031690565b6001600160a01b031614610f8d576040517f01b09f9f00000000000000000000000000000000000000000000000000000000815260040160405180910390fd5b6000600a5474010000000000000000000000000000000000000000900460ff166002811115610fbe57610fbe613cd2565b14610ff5576040517fe90d4d7a00000000000000000000000000000000000000000000000000000000815260040160405180910390fd5b805182518114611031576040517f9259bce600000000000000000000000000000000000000000000000000000000815260040160405180910390fd5b60005b81811015610d0a5782818151811061104e5761104e613f6f565b6020026020010151600e600086848151811061106c5761106c613f6f565b60200260200101516001600160a01b03166001600160a01b031681526020019081526020016000208190555080806110a390613ef9565b915050611034565b806110b7816003541190565b6110ed576040517f89a111e300000000000000000000000000000000000000000000000000000000815260040160405180910390fd5b3360006110f98461293b565b90506000611108828487612992565b905080611141576040517fbdc31d1200000000000000000000000000000000000000000000000000000000815260040160405180910390fd5b6001600160a01b038616611181576040517fd563b6a600000000000000000000000000000000000000000000000000000000815260040160405180910390fd5b61118c828787612a2e565b50505050505050565b600080836111a4816003541190565b6111da576040517f89a111e300000000000000000000000000000000000000000000000000000000815260040160405180910390fd5b6111e48585612bf8565b92509250509250929050565b806111fc816003541190565b611232576040517f89a111e300000000000000000000000000000000000000000000000000000000815260040160405180910390fd5b60008281526007602052604081205433916001600160a01b039091169061125a828487612992565b905080611293576040517fbdc31d1200000000000000000000000000000000000000000000000000000000815260040160405180910390fd5b61129d8286612c58565b5050505050565b6000806112b060035490565b90506112bb84612c9a565b83106112f3576040517f8adbcb8100000000000000000000000000000000000000000000000000000000815260040160405180910390fd5b6000805b828110156113665761130a816003541190565b801561132f575061131a8161293b565b6001600160a01b0316866001600160a01b0316145b15611354578185141561134657925061095a915050565b8161135081613ef9565b9250505b8061135e81613ef9565b9150506112f7565b50505092915050565b600061095a82612d48565b6001600a5474010000000000000000000000000000000000000000900460ff1660028111156113ab576113ab613cd2565b146113e2576040517fa11aad5b00000000000000000000000000000000000000000000000000000000815260040160405180910390fd5b336000818152600e602052604090205482111561142b576040517fe8aad3f200000000000000000000000000000000000000000000000000000000815260040160405180910390fd5b60008261143760035490565b6114419190613eca565b9050600f547f00000000000000000000000000000000000000000000000000000000000000006114719190613ee2565b8111156114aa576040517fc77894c000000000000000000000000000000000000000000000000000000000815260040160405180910390fd5b6001600160a01b0382166000908152600e60205260409020805484900390556114d38284612dc3565b505050565b6001600a5474010000000000000000000000000000000000000000900460ff16600281111561150957611509613cd2565b14611540576040517fa11aad5b00000000000000000000000000000000000000000000000000000000815260040160405180910390fd5b33816001806000611552858585612ebe565b90508181101561158e576040517fa432706200000000000000000000000000000000000000000000000000000000815260040160405180910390fd5b600f546115bb907f0000000000000000000000000000000000000000000000000000000000000000613ee2565b6003546115c9906001613eca565b1115611601576040517fc77894c000000000000000000000000000000000000000000000000000000000815260040160405180910390fd5b347f00000000000000000000000000000000000000000000000000000000000000001461165a576040517f225456a100000000000000000000000000000000000000000000000000000000815260040160405180910390fd5b336000818152600d602052604090208054600190810190915561118c908290806129e7565b33611692600a546001600160a01b031690565b6001600160a01b0316146116d2576040517f01b09f9f00000000000000000000000000000000000000000000000000000000815260040160405180910390fd5b478061170a576040517fe13f349a00000000000000000000000000000000000000000000000000000000815260040160405180910390fd5b60006103e861171b83610384613f32565b6117259190613fcd565b905060006103e8611737846032613f32565b6117419190613fcd565b90506000611750600283613fcd565b905061177c7f000000000000000000000000000000000000000000000000000000000000000082612fae565b6117a67f000000000000000000000000000000000000000000000000000000000000000082612fae565b6117d07f000000000000000000000000000000000000000000000000000000000000000083612fae565b6117fa7f000000000000000000000000000000000000000000000000000000000000000084612fae565b60408051600480825260a08201909252600091602082016080803683370190505090507f00000000000000000000000000000000000000000000000000000000000000008160008151811061185157611851613f6f565b60200260200101906001600160a01b031690816001600160a01b0316815250507f0000000000000000000000000000000000000000000000000000000000000000816001815181106118a5576118a5613f6f565b60200260200101906001600160a01b031690816001600160a01b0316815250507f0000000000000000000000000000000000000000000000000000000000000000816002815181106118f9576118f9613f6f565b60200260200101906001600160a01b031690816001600160a01b0316815250507f00000000000000000000000000000000000000000000000000000000000000008160038151811061194d5761194d613f6f565b6001600160a01b039290921660209283029190910182015260408051600480825260a082019092526000929091908201608080368337019050509050828160008151811061199d5761199d613f6f565b60200260200101818152505082816001815181106119bd576119bd613f6f565b60200260200101818152505083816002815181106119dd576119dd613f6f565b60200260200101818152505084816003815181106119fd576119fd613f6f565b60200260200101818152505080604051611a179190613fe1565b604051809103902082604051611a2d9190614017565b6040519081900381209030907f7d148a78dd4772dd1b6008be07f3b70b1590d60b4b192e263cdcf1da2510f26f90600090a4505050505050565b80611a73816003541190565b611aa9576040517f89a111e300000000000000000000000000000000000000000000000000000000815260040160405180910390fd5b336000611ab58461293b565b90506000611ac4828487612992565b905080611afd576040517fbdc31d1200000000000000000000000000000000000000000000000000000000815260040160405180910390fd5b6001600160a01b038616611b3d576040517fd563b6a600000000000000000000000000000000000000000000000000000000815260040160405180910390fd5b611b48828787612a2e565b611b6382878760405180602001604052806000815250613075565b61118c576040517f71fbfca300000000000000000000000000000000000000000000000000000000815260040160405180910390fd5b33611bac600a546001600160a01b031690565b6001600160a01b031614611bec576040517f01b09f9f00000000000000000000000000000000000000000000000000000000815260040160405180910390fd5b6000600a5474010000000000000000000000000000000000000000900460ff166002811115611c1d57611c1d613cd2565b14611c54576040517fe90d4d7a00000000000000000000000000000000000000000000000000000000815260040160405180910390fd5b611c5d81600c55565b50565b6000611c6b60035490565b8210611ca3576040517fa8111f3a00000000000000000000000000000000000000000000000000000000815260040160405180910390fd5b5090565b600081611cb5816003541190565b611ceb576040517f89a111e300000000000000000000000000000000000000000000000000000000815260040160405180910390fd5b6000838152600760205260409020546001600160a01b03165b9392505050565b33611d1e600a546001600160a01b031690565b6001600160a01b031614611d5e576040517f01b09f9f00000000000000000000000000000000000000000000000000000000815260040160405180910390fd5b611c5d816131ee565b600081611d75816003541190565b611dab576040517f89a111e300000000000000000000000000000000000000000000000000000000815260040160405180910390fd5b611d04836132a0565b33611dc7600a546001600160a01b031690565b6001600160a01b031614611e07576040517f01b09f9f00000000000000000000000000000000000000000000000000000000815260040160405180910390fd5b805182518114611e43576040517f9259bce600000000000000000000000000000000000000000000000000000000815260040160405180910390fd5b6000815b8015611e905783611e59600183613ee2565b81518110611e6957611e69613f6f565b602002602001015182611e7c9190613eca565b915080611e888161404a565b915050611e47565b50600f54811115611ecd576040517fb18f58ca00000000000000000000000000000000000000000000000000000000815260040160405180910390fd5b600f80548290039055815b801561129d57611f3085611eed600184613ee2565b81518110611efd57611efd613f6f565b602002602001015185600184611f139190613ee2565b81518110611f2357611f23613f6f565b6020026020010151612dc3565b80611f3a8161404a565b915050611ed8565b600061095a82613322565b6001600a5474010000000000000000000000000000000000000000900460ff166002811115611f7e57611f7e613cd2565b14611fb5576040517fa11aad5b00000000000000000000000000000000000000000000000000000000815260040160405180910390fd5b33816001806000611fc7858585612ebe565b905081811015612003576040517fa432706200000000000000000000000000000000000000000000000000000000815260040160405180910390fd5b600f54612030907f0000000000000000000000000000000000000000000000000000000000000000613ee2565b60035461203e906001613eca565b1115612076576040517fc77894c000000000000000000000000000000000000000000000000000000000815260040160405180910390fd5b347f0000000000000000000000000000000000000000000000000000000000000000146120cf576040517f225456a100000000000000000000000000000000000000000000000000000000815260040160405180910390fd5b336000818152600d602052604090208054600190810190915561118c908290612dc3565b60606001805461096f90613e4d565b6002600a5474010000000000000000000000000000000000000000900460ff16600281111561213357612133613cd2565b1461216a576040517f13ce6b3100000000000000000000000000000000000000000000000000000000815260040160405180910390fd5b7f00000000000000000000000000000000000000000000000000000000000000008111156121c4576040517fb3ccae9500000000000000000000000000000000000000000000000000000000815260040160405180910390fd5b6000816121d060035490565b6121da9190613eca565b9050600f547f000000000000000000000000000000000000000000000000000000000000000061220a9190613ee2565b811115612243576040517fc77894c000000000000000000000000000000000000000000000000000000000815260040160405180910390fd5b3461226e7f000000000000000000000000000000000000000000000000000000000000000084613f32565b146122a5576040517f225456a100000000000000000000000000000000000000000000000000000000815260040160405180910390fd5b336114d38184612dc3565b336001600160a01b0383168114156122f4576040517fb3c28f3900000000000000000000000000000000000000000000000000000000815260040160405180910390fd5b6001600160a01b0381811660008181526006602090815260408083209488168084529482529182902080547fffffffffffffffffffffffffffffffffffffffffffffffffffffffffffffff001687151590811790915591519182527f17307eab39ab6107e8899845ad3d59bd9653f200f220920489ca2b5937696c31910160405180910390a3505050565b8061238b816003541190565b6123c1576040517f89a111e300000000000000000000000000000000000000000000000000000000815260040160405180910390fd5b3360006123cd8461293b565b905060006123dc828487612992565b905080612415576040517fbdc31d1200000000000000000000000000000000000000000000000000000000815260040160405180910390fd5b61129d8286613340565b33612432600a546001600160a01b031690565b6001600160a01b031614612472576040517f01b09f9f00000000000000000000000000000000000000000000000000000000815260040160405180910390fd5b600b80546001810182556000919091527f0175b7a638427703f0dbe7bb9bbf987a2551717b34e79f33b5b1008d1fa01db90180547fffffffffffffffffffffffff0000000000000000000000000000000000000000166001600160a01b03831617905550565b826124e4816003541190565b61251a576040517f89a111e300000000000000000000000000000000000000000000000000000000815260040160405180910390fd5b3360006125268661293b565b90506000612535828489612992565b90508061256e576040517fbdc31d1200000000000000000000000000000000000000000000000000000000815260040160405180910390fd5b6001600160a01b0388166125ae576040517fd563b6a600000000000000000000000000000000000000000000000000000000815260040160405180910390fd5b6125b9828989612a2e565b6125fb82898989898080601f01602080910402602001604051908101604052809392919081815260200183838082843760009201919091525061307592505050565b612631576040517f71fbfca300000000000000000000000000000000000000000000000000000000815260040160405180910390fd5b505050505050505050565b60608161264a816003541190565b612680576040517f89a111e300000000000000000000000000000000000000000000000000000000815260040160405180910390fd5b60006002805461268f90613e4d565b9050116126a45761269f8361338a565b611d04565b60026126af8461338a565b6040516020016126c092919061409b565b604051602081830303815290604052915050919050565b336126ea600a546001600160a01b031690565b6001600160a01b03161461272a576040517f01b09f9f00000000000000000000000000000000000000000000000000000000815260040160405180910390fd5b61273482826134bc565b5050565b6000611d048383613535565b33612757600a546001600160a01b031690565b6001600160a01b031614612797576040517f01b09f9f00000000000000000000000000000000000000000000000000000000815260040160405180910390fd5b600a80546001600160a01b038381167fffffffffffffffffffffffff0000000000000000000000000000000000000000831681179093556040519116919082907f8be0079c531659141344cd1fd0a4f28419497f9722a3daafe3b4186f6b6457e090600090a35050565b60007fffffffff0000000000000000000000000000000000000000000000000000000082167f5b5e139f00000000000000000000000000000000000000000000000000000000148061289457507fffffffff0000000000000000000000000000000000000000000000000000000082167f80ac58cd00000000000000000000000000000000000000000000000000000000145b8061095a57507fffffffff0000000000000000000000000000000000000000000000000000000082167f01ffc9a7000000000000000000000000000000000000000000000000000000001492915050565b60007fffffffff0000000000000000000000000000000000000000000000000000000082167f780e9d6300000000000000000000000000000000000000000000000000000000148061095a575061095a82612801565b60008181526004602052604081205482906001600160a01b03165b6001600160a01b038116611d04578161296e8161404a565b6000818152600460205260409020549093506001600160a01b031691506129569050565b600080846001600160a01b0316846001600160a01b031614806129ce57506000838152600560205260409020546001600160a01b038581169116145b806129de57506129de8585613535565b95945050505050565b600081838111156129f9575082612a0e565b83831015612a0e57612a0b8385613ee2565b91505b8015612a1e57612a1e8582613575565b811561129d5761129d8583612dc3565b600081815260056020526040812080547fffffffffffffffffffffffff000000000000000000000000000000000000000016905581612a6e576000612a79565b612a79600183613ee2565b90506000612a88836001613eca565b905060008383108015612aa15750612aa1836003541190565b8015612ac257506000838152600460205260409020546001600160a01b0316155b90506000612ad1836003541190565b8015612af257506000838152600460205260409020546001600160a01b0316155b90508115612b3a57600084815260046020526040902080547fffffffffffffffffffffffff0000000000000000000000000000000000000000166001600160a01b0389161790555b8015612b8057600083815260046020526040902080547fffffffffffffffffffffffff0000000000000000000000000000000000000000166001600160a01b0389161790555b60008581526004602052604080822080547fffffffffffffffffffffffff0000000000000000000000000000000000000000166001600160a01b038a811691821790925591518893918b16917fddf252ad1be2c89b69c2b068fc378daa952ba7f163c4a11628f55a4df523b3ef91a450505050505050565b600080821580612c085750600854155b15612c225750506009546001600160a01b03166000612c51565b600061271084600854612c359190613f32565b612c3f9190613fcd565b6009546001600160a01b031693509150505b9250929050565b612c63308383612a2e565b600090815260076020526040902080547fffffffffffffffffffffffff000000000000000000000000000000000000000016905550565b60006001600160a01b038216612cb257506000919050565b6000612cbd60035490565b9050600080805b83811015612d3e576000818152600460205260409020546001600160a01b031615612d04576000818152600460205260409020546001600160a01b031691505b816001600160a01b0316866001600160a01b03161415612d2c5782612d2881613ef9565b9350505b80612d3681613ef9565b915050612cc4565b5090949350505050565b60006001600160a01b038216612d6057506000919050565b6000612d6b60035490565b90506000805b82811015612dbb576000818152600760205260409020546001600160a01b0386811691161415612da95781612da581613ef9565b9250505b80612db381613ef9565b915050612d71565b509392505050565b60035460006001612dd48484613eca565b612dde9190613ee2565b600083815260046020526040902080547fffffffffffffffffffffffff0000000000000000000000000000000000000000166001600160a01b038716179055905081811115612e6757600081815260046020526040902080547fffffffffffffffffffffffff0000000000000000000000000000000000000000166001600160a01b0386161790555b604051600081526001600160a01b03851690829084907fdeaa91b6123d068f5821d0fb0678463d1a8a6079fe8af5de3ce5e896dcf9133d9060200160405180910390a4612eb5816001613eca565b60035550505050565b600c54600090612efa576040517fc71bad4d00000000000000000000000000000000000000000000000000000000815260040160405180910390fd5b6001600160a01b0384166000908152600d60205260409020548211612f4b576040517fde33971400000000000000000000000000000000000000000000000000000000815260040160405180910390fd5b612f5584846135ff565b612f8b576040517fa432706200000000000000000000000000000000000000000000000000000000815260040160405180910390fd5b506001600160a01b0383166000908152600d602052604090205481039392505050565b80471015612fe8576040517f225456a100000000000000000000000000000000000000000000000000000000815260040160405180910390fd5b6000826001600160a01b03168260405160006040518083038185875af1925050503d8060008114613035576040519150601f19603f3d011682016040523d82523d6000602084013e61303a565b606091505b50509050806114d3576040517ff12332f300000000000000000000000000000000000000000000000000000000815260040160405180910390fd5b6000833b80156131e4576040517f150b7a020000000000000000000000000000000000000000000000000000000081526001600160a01b0386169063150b7a02906130ca9033908a9089908990600401614170565b6020604051808303816000875af1925050508015613123575060408051601f3d9081017fffffffffffffffffffffffffffffffffffffffffffffffffffffffffffffffe0168201909252613120918101906141ac565b60015b613197573d808015613151576040519150601f19603f3d011682016040523d82523d6000602084013e613156565b606091505b50805161318f576040517f71fbfca300000000000000000000000000000000000000000000000000000000815260040160405180910390fd5b805181602001fd5b7fffffffff00000000000000000000000000000000000000000000000000000000167f150b7a0200000000000000000000000000000000000000000000000000000000149150610d329050565b6001915050610d32565b600a80547401000000000000000000000000000000000000000080820460ff1692849290917fffffffffffffffffffffff00ffffffffffffffffffffffffffffffffffffffff9091169083600281111561324a5761324a613cd2565b021790555081600281111561326157613261613cd2565b81600281111561327357613273613cd2565b6040517fe2034a7bf30bb7c637ee4fd008478210b21708c5c7177151827a49a6877a020d90600090a35050565b6000816132ae816003541190565b6132e4576040517f89a111e300000000000000000000000000000000000000000000000000000000815260040160405180910390fd5b60006132ef8461293b565b90506001600160a01b038116301415611d04576000848152600760205260409020546001600160a01b0316925050610a51565b600061332d82612c9a565b61333683612d48565b61095a9190613eca565b600081815260076020526040902080547fffffffffffffffffffffffff0000000000000000000000000000000000000000166001600160a01b038416179055612734823083612a2e565b6060816133ca57505060408051808201909152600181527f3000000000000000000000000000000000000000000000000000000000000000602082015290565b8160005b81156133f457806133de81613ef9565b91506133ed9050600a83613fcd565b91506133ce565b60008167ffffffffffffffff81111561340f5761340f613911565b6040519080825280601f01601f191660200182016040528015613439576020820181803683370190505b5090505b8415610d325761344e600183613ee2565b915061345b600a866141c9565b613466906030613eca565b60f81b81838151811061347b5761347b613f6f565b60200101907effffffffffffffffffffffffffffffffffffffffffffffffffffffffffffff1916908160001a9053506134b5600a86613fcd565b945061343d565b6127108111156134f8576040517fb6eb28ca00000000000000000000000000000000000000000000000000000000815260040160405180910390fd5b600855600980547fffffffffffffffffffffffff0000000000000000000000000000000000000000166001600160a01b0392909216919091179055565b60006135418383613664565b80611d0457506001600160a01b0380841660009081526006602090815260408083209386168352929052205460ff16611d04565b600061358060035490565b9050600060016135908484613eca565b61359a9190613ee2565b90505b8082116135f557600082815260076020526040902080547fffffffffffffffffffffffff0000000000000000000000000000000000000000166001600160a01b038616179055816135ed81613ef9565b92505061359d565b610d0a3084612dc3565b6040517fffffffffffffffffffffffffffffffffffffffff000000000000000000000000606084901b1660208201526000908190603401604051602081830303815290604052805190602001209050600c5461365b8483613755565b14949350505050565b6000805b600b5481101561374b576000600b828154811061368757613687613f6f565b6000918252602090912001546040517fc45527910000000000000000000000000000000000000000000000000000000081526001600160a01b038781166004830152918216925090851690829063c455279190602401602060405180830381865afa1580156136fa573d6000803e3d6000fd5b505050506040513d601f19601f8201168201806040525081019061371e91906141dd565b6001600160a01b031614156137385760019250505061095a565b508061374381613ef9565b915050613668565b5060009392505050565b600081815b8451811015612dbb57600085828151811061377757613777613f6f565b6020026020010151905080831161379d57600083815260208290526040902092506137ae565b600081815260208490526040902092505b50806137b981613ef9565b91505061375a565b7fffffffff0000000000000000000000000000000000000000000000000000000081168114611c5d57600080fd5b60006020828403121561380157600080fd5b8135611d04816137c1565b60005b8381101561382757818101518382015260200161380f565b83811115610d0a5750506000910152565b6000815180845261385081602086016020860161380c565b601f017fffffffffffffffffffffffffffffffffffffffffffffffffffffffffffffffe0169290920160200192915050565b602081526000611d046020830184613838565b6000602082840312156138a757600080fd5b5035919050565b6001600160a01b0381168114611c5d57600080fd5b600080604083850312156138d657600080fd5b82356138e1816138ae565b946020939093013593505050565b6000806040838503121561390257600080fd5b50508035926020909101359150565b7f4e487b7100000000000000000000000000000000000000000000000000000000600052604160045260246000fd5b604051601f82017fffffffffffffffffffffffffffffffffffffffffffffffffffffffffffffffe016810167ffffffffffffffff8111828210171561398757613987613911565b604052919050565b600080600080608085870312156139a557600080fd5b84356139b0816138ae565b93506020858101356139c1816138ae565b935060408601359250606086013567ffffffffffffffff808211156139e557600080fd5b818801915088601f8301126139f957600080fd5b813581811115613a0b57613a0b613911565b613a3b847fffffffffffffffffffffffffffffffffffffffffffffffffffffffffffffffe0601f84011601613940565b91508082528984828501011115613a5157600080fd5b808484018584013760008482840101525080935050505092959194509250565b600067ffffffffffffffff821115613a8b57613a8b613911565b5060051b60200190565b600082601f830112613aa657600080fd5b81356020613abb613ab683613a71565b613940565b82815260059290921b84018101918181019086841115613ada57600080fd5b8286015b84811015613af55780358352918301918301613ade565b509695505050505050565b60008060408385031215613b1357600080fd5b823567ffffffffffffffff80821115613b2b57600080fd5b818501915085601f830112613b3f57600080fd5b81356020613b4f613ab683613a71565b82815260059290921b84018101918181019089841115613b6e57600080fd5b948201945b83861015613b95578535613b86816138ae565b82529482019490820190613b73565b96505086013592505080821115613bab57600080fd5b50613bb885828601613a95565b9150509250929050565b600080600060608486031215613bd757600080fd5b8335613be2816138ae565b92506020840135613bf2816138ae565b929592945050506040919091013590565b600060208284031215613c1557600080fd5b8135611d04816138ae565b60006020808385031215613c3357600080fd5b823567ffffffffffffffff811115613c4a57600080fd5b8301601f81018513613c5b57600080fd5b8035613c69613ab682613a71565b81815260059190911b82018301908381019087831115613c8857600080fd5b928401925b82841015613ca657833582529284019290840190613c8d565b979650505050505050565b600060208284031215613cc357600080fd5b813560038110611d0457600080fd5b7f4e487b7100000000000000000000000000000000000000000000000000000000600052602160045260246000fd5b6020810160038310613d3c577f4e487b7100000000000000000000000000000000000000000000000000000000600052602160045260246000fd5b91905290565b60008060408385031215613d5557600080fd5b8235613d60816138ae565b915060208301358015158114613d7557600080fd5b809150509250929050565b600080600080600060808688031215613d9857600080fd5b8535613da3816138ae565b94506020860135613db3816138ae565b935060408601359250606086013567ffffffffffffffff80821115613dd757600080fd5b818801915088601f830112613deb57600080fd5b813581811115613dfa57600080fd5b896020828501011115613e0c57600080fd5b9699959850939650602001949392505050565b60008060408385031215613e3257600080fd5b8235613e3d816138ae565b91506020830135613d75816138ae565b600181811c90821680613e6157607f821691505b60208210811415610a51577f4e487b7100000000000000000000000000000000000000000000000000000000600052602260045260246000fd5b7f4e487b7100000000000000000000000000000000000000000000000000000000600052601160045260246000fd5b60008219821115613edd57613edd613e9b565b500190565b600082821015613ef457613ef4613e9b565b500390565b60007fffffffffffffffffffffffffffffffffffffffffffffffffffffffffffffffff821415613f2b57613f2b613e9b565b5060010190565b6000817fffffffffffffffffffffffffffffffffffffffffffffffffffffffffffffffff0483118215151615613f6a57613f6a613e9b565b500290565b7f4e487b7100000000000000000000000000000000000000000000000000000000600052603260045260246000fd5b7f4e487b7100000000000000000000000000000000000000000000000000000000600052601260045260246000fd5b600082613fdc57613fdc613f9e565b500490565b815160009082906020808601845b8381101561400b57815185529382019390820190600101613fef565b50929695505050505050565b815160009082906020808601845b8381101561400b5781516001600160a01b031685529382019390820190600101614025565b60008161405957614059613e9b565b507fffffffffffffffffffffffffffffffffffffffffffffffffffffffffffffffff0190565b6000815161409181856020860161380c565b9290920192915050565b600080845481600182811c9150808316806140b757607f831692505b60208084108214156140f0577f4e487b710000000000000000000000000000000000000000000000000000000086526022600452602486fd5b818015614104576001811461413357614160565b7fffffffffffffffffffffffffffffffffffffffffffffffffffffffffffffff00861689528489019650614160565b60008b81526020902060005b868110156141585781548b82015290850190830161413f565b505084890196505b5050505050506129de818561407f565b60006001600160a01b038087168352808616602084015250836040830152608060608301526141a26080830184613838565b9695505050505050565b6000602082840312156141be57600080fd5b8151611d04816137c1565b6000826141d8576141d8613f9e565b500690565b6000602082840312156141ef57600080fd5b8151611d04816138ae56fea2646970667358221220bfa09d64ff9099fbc8957d3689a7a3e75ff3a32d9de65f14fb12b321232e914964736f6c634300080a0033",
			"opcodes": "PUSH2 0x180 PUSH1 0x40 MSTORE CALLVALUE DUP1 ISZERO PUSH3 0x12 JUMPI PUSH1 0x0 DUP1 REVERT JUMPDEST POP PUSH1 0x40 MLOAD PUSH3 0x4875 CODESIZE SUB DUP1 PUSH3 0x4875 DUP4 CODECOPY DUP2 ADD PUSH1 0x40 DUP2 SWAP1 MSTORE PUSH3 0x35 SWAP2 PUSH3 0x428 JUMP JUMPDEST PUSH1 0xA DUP1 SLOAD PUSH1 0x1 PUSH1 0x1 PUSH1 0xA0 SHL SUB NOT AND CALLER SWAP1 DUP2 OR SWAP1 SWAP2 SSTORE PUSH3 0x56 DUP2 DUP10 PUSH3 0x167 JUMP JUMPDEST PUSH3 0x62 DUP6 DUP6 PUSH3 0x177 JUMP JUMPDEST PUSH3 0x6D DUP4 PUSH3 0x1A7 JUMP JUMPDEST DUP2 PUSH1 0x0 DUP2 MLOAD DUP2 LT PUSH3 0x83 JUMPI PUSH3 0x83 PUSH3 0x51C JUMP JUMPDEST PUSH1 0x20 MUL PUSH1 0x20 ADD ADD MLOAD PUSH1 0x1 PUSH1 0x1 PUSH1 0xA0 SHL SUB AND PUSH2 0x100 DUP2 PUSH1 0x1 PUSH1 0x1 PUSH1 0xA0 SHL SUB AND DUP2 MSTORE POP POP DUP2 PUSH1 0x1 DUP2 MLOAD DUP2 LT PUSH3 0xBB JUMPI PUSH3 0xBB PUSH3 0x51C JUMP JUMPDEST PUSH1 0x20 MUL PUSH1 0x20 ADD ADD MLOAD PUSH1 0x1 PUSH1 0x1 PUSH1 0xA0 SHL SUB AND PUSH2 0x120 DUP2 PUSH1 0x1 PUSH1 0x1 PUSH1 0xA0 SHL SUB AND DUP2 MSTORE POP POP DUP2 PUSH1 0x2 DUP2 MLOAD DUP2 LT PUSH3 0xF3 JUMPI PUSH3 0xF3 PUSH3 0x51C JUMP JUMPDEST PUSH1 0x20 MUL PUSH1 0x20 ADD ADD MLOAD PUSH1 0x1 PUSH1 0x1 PUSH1 0xA0 SHL SUB AND PUSH2 0x140 DUP2 PUSH1 0x1 PUSH1 0x1 PUSH1 0xA0 SHL SUB AND DUP2 MSTORE POP POP DUP2 PUSH1 0x3 DUP2 MLOAD DUP2 LT PUSH3 0x12B JUMPI PUSH3 0x12B PUSH3 0x51C JUMP JUMPDEST PUSH1 0x20 SWAP1 DUP2 MUL SWAP2 SWAP1 SWAP2 ADD ADD MLOAD PUSH1 0x1 PUSH1 0x1 PUSH1 0xA0 SHL SUB AND PUSH2 0x160 MSTORE POP POP POP PUSH1 0xF SWAP8 SWAP1 SWAP8 SSTORE POP PUSH1 0xE0 SWAP5 SWAP1 SWAP5 MSTORE PUSH1 0xC0 SWAP3 SWAP1 SWAP3 MSTORE POP PUSH1 0x80 MSTORE PUSH1 0xA0 MSTORE POP PUSH3 0x56F JUMP JUMPDEST PUSH3 0x173 DUP3 DUP3 PUSH3 0x1BC JUMP JUMPDEST POP POP JUMP JUMPDEST DUP2 MLOAD PUSH3 0x18C SWAP1 PUSH1 0x0 SWAP1 PUSH1 0x20 DUP6 ADD SWAP1 PUSH3 0x205 JUMP JUMPDEST POP DUP1 MLOAD PUSH3 0x1A2 SWAP1 PUSH1 0x1 SWAP1 PUSH1 0x20 DUP5 ADD SWAP1 PUSH3 0x205 JUMP JUMPDEST POP POP POP JUMP JUMPDEST DUP1 MLOAD PUSH3 0x173 SWAP1 PUSH1 0x2 SWAP1 PUSH1 0x20 DUP5 ADD SWAP1 PUSH3 0x205 JUMP JUMPDEST PUSH2 0x2710 DUP2 GT ISZERO PUSH3 0x1E0 JUMPI PUSH1 0x40 MLOAD PUSH4 0x5B759465 PUSH1 0xE1 SHL DUP2 MSTORE PUSH1 0x4 ADD PUSH1 0x40 MLOAD DUP1 SWAP2 SUB SWAP1 REVERT JUMPDEST PUSH1 0x8 SSTORE PUSH1 0x9 DUP1 SLOAD PUSH1 0x1 PUSH1 0x1 PUSH1 0xA0 SHL SUB NOT AND PUSH1 0x1 PUSH1 0x1 PUSH1 0xA0 SHL SUB SWAP3 SWAP1 SWAP3 AND SWAP2 SWAP1 SWAP2 OR SWAP1 SSTORE JUMP JUMPDEST DUP3 DUP1 SLOAD PUSH3 0x213 SWAP1 PUSH3 0x532 JUMP JUMPDEST SWAP1 PUSH1 0x0 MSTORE PUSH1 0x20 PUSH1 0x0 KECCAK256 SWAP1 PUSH1 0x1F ADD PUSH1 0x20 SWAP1 DIV DUP2 ADD SWAP3 DUP3 PUSH3 0x237 JUMPI PUSH1 0x0 DUP6 SSTORE PUSH3 0x282 JUMP JUMPDEST DUP3 PUSH1 0x1F LT PUSH3 0x252 JUMPI DUP1 MLOAD PUSH1 0xFF NOT AND DUP4 DUP1 ADD OR DUP6 SSTORE PUSH3 0x282 JUMP JUMPDEST DUP3 DUP1 ADD PUSH1 0x1 ADD DUP6 SSTORE DUP3 ISZERO PUSH3 0x282 JUMPI SWAP2 DUP3 ADD JUMPDEST DUP3 DUP2 GT ISZERO PUSH3 0x282 JUMPI DUP3 MLOAD DUP3 SSTORE SWAP2 PUSH1 0x20 ADD SWAP2 SWAP1 PUSH1 0x1 ADD SWAP1 PUSH3 0x265 JUMP JUMPDEST POP PUSH3 0x290 SWAP3 SWAP2 POP PUSH3 0x294 JUMP JUMPDEST POP SWAP1 JUMP JUMPDEST JUMPDEST DUP1 DUP3 GT ISZERO PUSH3 0x290 JUMPI PUSH1 0x0 DUP2 SSTORE PUSH1 0x1 ADD PUSH3 0x295 JUMP JUMPDEST PUSH4 0x4E487B71 PUSH1 0xE0 SHL PUSH1 0x0 MSTORE PUSH1 0x41 PUSH1 0x4 MSTORE PUSH1 0x24 PUSH1 0x0 REVERT JUMPDEST PUSH1 0x40 MLOAD PUSH1 0x1F DUP3 ADD PUSH1 0x1F NOT AND DUP2 ADD PUSH1 0x1 PUSH1 0x1 PUSH1 0x40 SHL SUB DUP2 GT DUP3 DUP3 LT OR ISZERO PUSH3 0x2EC JUMPI PUSH3 0x2EC PUSH3 0x2AB JUMP JUMPDEST PUSH1 0x40 MSTORE SWAP2 SWAP1 POP JUMP JUMPDEST PUSH1 0x0 DUP3 PUSH1 0x1F DUP4 ADD SLT PUSH3 0x306 JUMPI PUSH1 0x0 DUP1 REVERT JUMPDEST DUP2 MLOAD PUSH1 0x1 PUSH1 0x1 PUSH1 0x40 SHL SUB DUP2 GT ISZERO PUSH3 0x322 JUMPI PUSH3 0x322 PUSH3 0x2AB JUMP JUMPDEST PUSH1 0x20 PUSH3 0x338 PUSH1 0x1F DUP4 ADD PUSH1 0x1F NOT AND DUP3 ADD PUSH3 0x2C1 JUMP JUMPDEST DUP3 DUP2 MSTORE DUP6 DUP3 DUP5 DUP8 ADD ADD GT ISZERO PUSH3 0x34D JUMPI PUSH1 0x0 DUP1 REVERT JUMPDEST PUSH1 0x0 JUMPDEST DUP4 DUP2 LT ISZERO PUSH3 0x36D JUMPI DUP6 DUP2 ADD DUP4 ADD MLOAD DUP3 DUP3 ADD DUP5 ADD MSTORE DUP3 ADD PUSH3 0x350 JUMP JUMPDEST DUP4 DUP2 GT ISZERO PUSH3 0x37F JUMPI PUSH1 0x0 DUP4 DUP6 DUP5 ADD ADD MSTORE JUMPDEST POP SWAP6 SWAP5 POP POP POP POP POP JUMP JUMPDEST PUSH1 0x0 DUP3 PUSH1 0x1F DUP4 ADD SLT PUSH3 0x39B JUMPI PUSH1 0x0 DUP1 REVERT JUMPDEST DUP2 MLOAD PUSH1 0x20 PUSH1 0x1 PUSH1 0x1 PUSH1 0x40 SHL SUB DUP3 GT ISZERO PUSH3 0x3B9 JUMPI PUSH3 0x3B9 PUSH3 0x2AB JUMP JUMPDEST DUP2 PUSH1 0x5 SHL PUSH3 0x3CA DUP3 DUP3 ADD PUSH3 0x2C1 JUMP JUMPDEST SWAP3 DUP4 MSTORE DUP5 DUP2 ADD DUP3 ADD SWAP3 DUP3 DUP2 ADD SWAP1 DUP8 DUP6 GT ISZERO PUSH3 0x3E5 JUMPI PUSH1 0x0 DUP1 REVERT JUMPDEST DUP4 DUP8 ADD SWAP3 POP JUMPDEST DUP5 DUP4 LT ISZERO PUSH3 0x41D JUMPI DUP3 MLOAD PUSH1 0x1 PUSH1 0x1 PUSH1 0xA0 SHL SUB DUP2 AND DUP2 EQ PUSH3 0x40D JUMPI PUSH1 0x0 DUP1 DUP2 REVERT JUMPDEST DUP3 MSTORE SWAP2 DUP4 ADD SWAP2 SWAP1 DUP4 ADD SWAP1 PUSH3 0x3EB JUMP JUMPDEST SWAP8 SWAP7 POP POP POP POP POP POP POP JUMP JUMPDEST PUSH1 0x0 DUP1 PUSH1 0x0 DUP1 PUSH1 0x0 DUP1 PUSH1 0x0 DUP1 PUSH1 0x0 DUP1 PUSH2 0x140 DUP12 DUP14 SUB SLT ISZERO PUSH3 0x449 JUMPI PUSH1 0x0 DUP1 REVERT JUMPDEST DUP11 MLOAD SWAP10 POP PUSH1 0x20 DUP12 ADD MLOAD SWAP9 POP PUSH1 0x40 DUP12 ADD MLOAD SWAP8 POP PUSH1 0x60 DUP12 ADD MLOAD SWAP7 POP PUSH1 0x80 DUP12 ADD MLOAD SWAP6 POP PUSH1 0xA0 DUP12 ADD MLOAD SWAP5 POP PUSH1 0xC0 DUP12 ADD MLOAD PUSH1 0x1 DUP1 PUSH1 0x40 SHL SUB DUP1 DUP3 GT ISZERO PUSH3 0x48A JUMPI PUSH1 0x0 DUP1 REVERT JUMPDEST PUSH3 0x498 DUP15 DUP4 DUP16 ADD PUSH3 0x2F4 JUMP JUMPDEST SWAP6 POP PUSH1 0xE0 DUP14 ADD MLOAD SWAP2 POP DUP1 DUP3 GT ISZERO PUSH3 0x4AF JUMPI PUSH1 0x0 DUP1 REVERT JUMPDEST PUSH3 0x4BD DUP15 DUP4 DUP16 ADD PUSH3 0x2F4 JUMP JUMPDEST SWAP5 POP PUSH2 0x100 DUP14 ADD MLOAD SWAP2 POP DUP1 DUP3 GT ISZERO PUSH3 0x4D5 JUMPI PUSH1 0x0 DUP1 REVERT JUMPDEST PUSH3 0x4E3 DUP15 DUP4 DUP16 ADD PUSH3 0x2F4 JUMP JUMPDEST SWAP4 POP PUSH2 0x120 DUP14 ADD MLOAD SWAP2 POP DUP1 DUP3 GT ISZERO PUSH3 0x4FB JUMPI PUSH1 0x0 DUP1 REVERT JUMPDEST POP PUSH3 0x50A DUP14 DUP3 DUP15 ADD PUSH3 0x389 JUMP JUMPDEST SWAP2 POP POP SWAP3 SWAP6 SWAP9 SWAP12 SWAP2 SWAP5 SWAP8 SWAP11 POP SWAP3 SWAP6 SWAP9 POP JUMP JUMPDEST PUSH4 0x4E487B71 PUSH1 0xE0 SHL PUSH1 0x0 MSTORE PUSH1 0x32 PUSH1 0x4 MSTORE PUSH1 0x24 PUSH1 0x0 REVERT JUMPDEST PUSH1 0x1 DUP2 DUP2 SHR SWAP1 DUP3 AND DUP1 PUSH3 0x547 JUMPI PUSH1 0x7F DUP3 AND SWAP2 POP JUMPDEST PUSH1 0x20 DUP3 LT DUP2 EQ ISZERO PUSH3 0x569 JUMPI PUSH4 0x4E487B71 PUSH1 0xE0 SHL PUSH1 0x0 MSTORE PUSH1 0x22 PUSH1 0x4 MSTORE PUSH1 0x24 PUSH1 0x0 REVERT JUMPDEST POP SWAP2 SWAP1 POP JUMP JUMPDEST PUSH1 0x80 MLOAD PUSH1 0xA0 MLOAD PUSH1 0xC0 MLOAD PUSH1 0xE0 MLOAD PUSH2 0x100 MLOAD PUSH2 0x120 MLOAD PUSH2 0x140 MLOAD PUSH2 0x160 MLOAD PUSH2 0x4230 PUSH3 0x645 PUSH1 0x0 CODECOPY PUSH1 0x0 DUP2 DUP2 PUSH2 0x1757 ADD MSTORE PUSH2 0x181F ADD MSTORE PUSH1 0x0 DUP2 DUP2 PUSH2 0x1781 ADD MSTORE PUSH2 0x1873 ADD MSTORE PUSH1 0x0 DUP2 DUP2 PUSH2 0x17AB ADD MSTORE PUSH2 0x18C7 ADD MSTORE PUSH1 0x0 DUP2 DUP2 PUSH2 0x17D5 ADD MSTORE PUSH2 0x191B ADD MSTORE PUSH1 0x0 DUP2 DUP2 PUSH2 0x7AB ADD MSTORE DUP2 DUP2 PUSH2 0xDF5 ADD MSTORE PUSH2 0x216C ADD MSTORE PUSH1 0x0 DUP2 DUP2 PUSH2 0x50A ADD MSTORE DUP2 DUP2 PUSH2 0xC7E ADD MSTORE DUP2 DUP2 PUSH2 0xE6A ADD MSTORE DUP2 DUP2 PUSH2 0x1448 ADD MSTORE DUP2 DUP2 PUSH2 0x1597 ADD MSTORE DUP2 DUP2 PUSH2 0x200C ADD MSTORE PUSH2 0x21E1 ADD MSTORE PUSH1 0x0 DUP2 DUP2 PUSH2 0x6F2 ADD MSTORE DUP2 DUP2 PUSH2 0xED2 ADD MSTORE PUSH2 0x2249 ADD MSTORE PUSH1 0x0 DUP2 DUP2 PUSH2 0x759 ADD MSTORE DUP2 DUP2 PUSH2 0x1604 ADD MSTORE PUSH2 0x2079 ADD MSTORE PUSH2 0x4230 PUSH1 0x0 RETURN INVALID PUSH1 0x80 PUSH1 0x40 MSTORE PUSH1 0x4 CALLDATASIZE LT PUSH2 0x2DC JUMPI PUSH1 0x0 CALLDATALOAD PUSH1 0xE0 SHR DUP1 PUSH4 0x4F6CCCE7 GT PUSH2 0x184 JUMPI DUP1 PUSH4 0x950BFF9F GT PUSH2 0xD6 JUMPI DUP1 PUSH4 0xADFDEEF9 GT PUSH2 0x8A JUMPI DUP1 PUSH4 0xE2E784D5 GT PUSH2 0x64 JUMPI DUP1 PUSH4 0xE2E784D5 EQ PUSH2 0x895 JUMPI DUP1 PUSH4 0xE985E9C5 EQ PUSH2 0x8B5 JUMPI DUP1 PUSH4 0xF2FDE38B EQ PUSH2 0x8D5 JUMPI PUSH1 0x0 DUP1 REVERT JUMPDEST DUP1 PUSH4 0xADFDEEF9 EQ PUSH2 0x835 JUMPI DUP1 PUSH4 0xB88D4FDE EQ PUSH2 0x855 JUMPI DUP1 PUSH4 0xC87B56DD EQ PUSH2 0x875 JUMPI PUSH1 0x0 DUP1 REVERT JUMPDEST DUP1 PUSH4 0xA0712D68 GT PUSH2 0xBB JUMPI DUP1 PUSH4 0xA0712D68 EQ PUSH2 0x7E2 JUMPI DUP1 PUSH4 0xA22CB465 EQ PUSH2 0x7F5 JUMPI DUP1 PUSH4 0xA694FC3A EQ PUSH2 0x815 JUMPI PUSH1 0x0 DUP1 REVERT JUMPDEST DUP1 PUSH4 0x950BFF9F EQ PUSH2 0x799 JUMPI DUP1 PUSH4 0x95D89B41 EQ PUSH2 0x7CD JUMPI PUSH1 0x0 DUP1 REVERT JUMPDEST DUP1 PUSH4 0x67243482 GT PUSH2 0x138 JUMPI DUP1 PUSH4 0x80D65B0A GT PUSH2 0x112 JUMPI DUP1 PUSH4 0x80D65B0A EQ PUSH2 0x734 JUMPI DUP1 PUSH4 0x88089F0B EQ PUSH2 0x747 JUMPI DUP1 PUSH4 0x8DA5CB5B EQ PUSH2 0x77B JUMPI PUSH1 0x0 DUP1 REVERT JUMPDEST DUP1 PUSH4 0x67243482 EQ PUSH2 0x6C0 JUMPI DUP1 PUSH4 0x6BDE2627 EQ PUSH2 0x6E0 JUMPI DUP1 PUSH4 0x70A08231 EQ PUSH2 0x714 JUMPI PUSH1 0x0 DUP1 REVERT JUMPDEST DUP1 PUSH4 0x5A67DE07 GT PUSH2 0x169 JUMPI DUP1 PUSH4 0x5A67DE07 EQ PUSH2 0x641 JUMPI DUP1 PUSH4 0x603F4D52 EQ PUSH2 0x661 JUMPI DUP1 PUSH4 0x6352211E EQ PUSH2 0x6A0 JUMPI PUSH1 0x0 DUP1 REVERT JUMPDEST DUP1 PUSH4 0x4F6CCCE7 EQ PUSH2 0x601 JUMPI DUP1 PUSH4 0x52033215 EQ PUSH2 0x621 JUMPI PUSH1 0x0 DUP1 REVERT JUMPDEST DUP1 PUSH4 0x2A55205A GT PUSH2 0x23D JUMPI DUP1 PUSH4 0x379607F5 GT PUSH2 0x1F1 JUMPI DUP1 PUSH4 0x3CCFD60B GT PUSH2 0x1CB JUMPI DUP1 PUSH4 0x3CCFD60B EQ PUSH2 0x5AC JUMPI DUP1 PUSH4 0x42842E0E EQ PUSH2 0x5C1 JUMPI DUP1 PUSH4 0x440BC7F3 EQ PUSH2 0x5E1 JUMPI PUSH1 0x0 DUP1 REVERT JUMPDEST DUP1 PUSH4 0x379607F5 EQ PUSH2 0x54C JUMPI DUP1 PUSH4 0x381D7DF0 EQ PUSH2 0x56C JUMPI DUP1 PUSH4 0x3CB971CA EQ PUSH2 0x599 JUMPI PUSH1 0x0 DUP1 REVERT JUMPDEST DUP1 PUSH4 0x2F745C59 GT PUSH2 0x222 JUMPI DUP1 PUSH4 0x2F745C59 EQ PUSH2 0x4D8 JUMPI DUP1 PUSH4 0x32CB6B0C EQ PUSH2 0x4F8 JUMPI DUP1 PUSH4 0x3455F41E EQ PUSH2 0x52C JUMPI PUSH1 0x0 DUP1 REVERT JUMPDEST DUP1 PUSH4 0x2A55205A EQ PUSH2 0x479 JUMPI DUP1 PUSH4 0x2E17DE78 EQ PUSH2 0x4B8 JUMPI PUSH1 0x0 DUP1 REVERT JUMPDEST DUP1 PUSH4 0x150B7A02 GT PUSH2 0x294 JUMPI DUP1 PUSH4 0x1B7B79EE GT PUSH2 0x279 JUMPI DUP1 PUSH4 0x1B7B79EE EQ PUSH2 0x426 JUMPI DUP1 PUSH4 0x215F45B4 EQ PUSH2 0x439 JUMPI DUP1 PUSH4 0x23B872DD EQ PUSH2 0x459 JUMPI PUSH1 0x0 DUP1 REVERT JUMPDEST DUP1 PUSH4 0x150B7A02 EQ PUSH2 0x3B2 JUMPI DUP1 PUSH4 0x18160DDD EQ PUSH2 0x403 JUMPI PUSH1 0x0 DUP1 REVERT JUMPDEST DUP1 PUSH4 0x81812FC GT PUSH2 0x2C5 JUMPI DUP1 PUSH4 0x81812FC EQ PUSH2 0x338 JUMPI DUP1 PUSH4 0x95EA7B3 EQ PUSH2 0x370 JUMPI DUP1 PUSH4 0x142982F4 EQ PUSH2 0x392 JUMPI PUSH1 0x0 DUP1 REVERT JUMPDEST DUP1 PUSH4 0x1FFC9A7 EQ PUSH2 0x2E1 JUMPI DUP1 PUSH4 0x6FDDE03 EQ PUSH2 0x316 JUMPI JUMPDEST PUSH1 0x0 DUP1 REVERT JUMPDEST CALLVALUE DUP1 ISZERO PUSH2 0x2ED JUMPI PUSH1 0x0 DUP1 REVERT JUMPDEST POP PUSH2 0x301 PUSH2 0x2FC CALLDATASIZE PUSH1 0x4 PUSH2 0x37EF JUMP JUMPDEST PUSH2 0x8F5 JUMP JUMPDEST PUSH1 0x40 MLOAD SWAP1 ISZERO ISZERO DUP2 MSTORE PUSH1 0x20 ADD JUMPDEST PUSH1 0x40 MLOAD DUP1 SWAP2 SUB SWAP1 RETURN JUMPDEST CALLVALUE DUP1 ISZERO PUSH2 0x322 JUMPI PUSH1 0x0 DUP1 REVERT JUMPDEST POP PUSH2 0x32B PUSH2 0x960 JUMP JUMPDEST PUSH1 0x40 MLOAD PUSH2 0x30D SWAP2 SWAP1 PUSH2 0x3882 JUMP JUMPDEST CALLVALUE DUP1 ISZERO PUSH2 0x344 JUMPI PUSH1 0x0 DUP1 REVERT JUMPDEST POP PUSH2 0x358 PUSH2 0x353 CALLDATASIZE PUSH1 0x4 PUSH2 0x3895 JUMP JUMPDEST PUSH2 0x9F2 JUMP JUMPDEST PUSH1 0x40 MLOAD PUSH1 0x1 PUSH1 0x1 PUSH1 0xA0 SHL SUB SWAP1 SWAP2 AND DUP2 MSTORE PUSH1 0x20 ADD PUSH2 0x30D JUMP JUMPDEST CALLVALUE DUP1 ISZERO PUSH2 0x37C JUMPI PUSH1 0x0 DUP1 REVERT JUMPDEST POP PUSH2 0x390 PUSH2 0x38B CALLDATASIZE PUSH1 0x4 PUSH2 0x38C3 JUMP JUMPDEST PUSH2 0xA57 JUMP JUMPDEST STOP JUMPDEST CALLVALUE DUP1 ISZERO PUSH2 0x39E JUMPI PUSH1 0x0 DUP1 REVERT JUMPDEST POP PUSH2 0x390 PUSH2 0x3AD CALLDATASIZE PUSH1 0x4 PUSH2 0x38EF JUMP JUMPDEST PUSH2 0xBB0 JUMP JUMPDEST CALLVALUE DUP1 ISZERO PUSH2 0x3BE JUMPI PUSH1 0x0 DUP1 REVERT JUMPDEST POP PUSH2 0x3D2 PUSH2 0x3CD CALLDATASIZE PUSH1 0x4 PUSH2 0x398F JUMP JUMPDEST PUSH2 0xD10 JUMP JUMPDEST PUSH1 0x40 MLOAD PUSH32 0xFFFFFFFF00000000000000000000000000000000000000000000000000000000 SWAP1 SWAP2 AND DUP2 MSTORE PUSH1 0x20 ADD PUSH2 0x30D JUMP JUMPDEST CALLVALUE DUP1 ISZERO PUSH2 0x40F JUMPI PUSH1 0x0 DUP1 REVERT JUMPDEST POP PUSH2 0x418 PUSH2 0xD3A JUMP JUMPDEST PUSH1 0x40 MLOAD SWAP1 DUP2 MSTORE PUSH1 0x20 ADD PUSH2 0x30D JUMP JUMPDEST PUSH2 0x390 PUSH2 0x434 CALLDATASIZE PUSH1 0x4 PUSH2 0x38EF JUMP JUMPDEST PUSH2 0xD8B JUMP JUMPDEST CALLVALUE DUP1 ISZERO PUSH2 0x445 JUMPI PUSH1 0x0 DUP1 REVERT JUMPDEST POP PUSH2 0x390 PUSH2 0x454 CALLDATASIZE PUSH1 0x4 PUSH2 0x3B00 JUMP JUMPDEST PUSH2 0xF3A JUMP JUMPDEST CALLVALUE DUP1 ISZERO PUSH2 0x465 JUMPI PUSH1 0x0 DUP1 REVERT JUMPDEST POP PUSH2 0x390 PUSH2 0x474 CALLDATASIZE PUSH1 0x4 PUSH2 0x3BC2 JUMP JUMPDEST PUSH2 0x10AB JUMP JUMPDEST CALLVALUE DUP1 ISZERO PUSH2 0x485 JUMPI PUSH1 0x0 DUP1 REVERT JUMPDEST POP PUSH2 0x499 PUSH2 0x494 CALLDATASIZE PUSH1 0x4 PUSH2 0x38EF JUMP JUMPDEST PUSH2 0x1195 JUMP JUMPDEST PUSH1 0x40 DUP1 MLOAD PUSH1 0x1 PUSH1 0x1 PUSH1 0xA0 SHL SUB SWAP1 SWAP4 AND DUP4 MSTORE PUSH1 0x20 DUP4 ADD SWAP2 SWAP1 SWAP2 MSTORE ADD PUSH2 0x30D JUMP JUMPDEST CALLVALUE DUP1 ISZERO PUSH2 0x4C4 JUMPI PUSH1 0x0 DUP1 REVERT JUMPDEST POP PUSH2 0x390 PUSH2 0x4D3 CALLDATASIZE PUSH1 0x4 PUSH2 0x3895 JUMP JUMPDEST PUSH2 0x11F0 JUMP JUMPDEST CALLVALUE DUP1 ISZERO PUSH2 0x4E4 JUMPI PUSH1 0x0 DUP1 REVERT JUMPDEST POP PUSH2 0x418 PUSH2 0x4F3 CALLDATASIZE PUSH1 0x4 PUSH2 0x38C3 JUMP JUMPDEST PUSH2 0x12A4 JUMP JUMPDEST CALLVALUE DUP1 ISZERO PUSH2 0x504 JUMPI PUSH1 0x0 DUP1 REVERT JUMPDEST POP PUSH2 0x418 PUSH32 0x0 DUP2 JUMP JUMPDEST CALLVALUE DUP1 ISZERO PUSH2 0x538 JUMPI PUSH1 0x0 DUP1 REVERT JUMPDEST POP PUSH2 0x418 PUSH2 0x547 CALLDATASIZE PUSH1 0x4 PUSH2 0x3C03 JUMP JUMPDEST PUSH2 0x136F JUMP JUMPDEST CALLVALUE DUP1 ISZERO PUSH2 0x558 JUMPI PUSH1 0x0 DUP1 REVERT JUMPDEST POP PUSH2 0x390 PUSH2 0x567 CALLDATASIZE PUSH1 0x4 PUSH2 0x3895 JUMP JUMPDEST PUSH2 0x137A JUMP JUMPDEST CALLVALUE DUP1 ISZERO PUSH2 0x578 JUMPI PUSH1 0x0 DUP1 REVERT JUMPDEST POP PUSH2 0x418 PUSH2 0x587 CALLDATASIZE PUSH1 0x4 PUSH2 0x3C03 JUMP JUMPDEST PUSH1 0xE PUSH1 0x20 MSTORE PUSH1 0x0 SWAP1 DUP2 MSTORE PUSH1 0x40 SWAP1 KECCAK256 SLOAD DUP2 JUMP JUMPDEST PUSH2 0x390 PUSH2 0x5A7 CALLDATASIZE PUSH1 0x4 PUSH2 0x3C20 JUMP JUMPDEST PUSH2 0x14D8 JUMP JUMPDEST CALLVALUE DUP1 ISZERO PUSH2 0x5B8 JUMPI PUSH1 0x0 DUP1 REVERT JUMPDEST POP PUSH2 0x390 PUSH2 0x167F JUMP JUMPDEST CALLVALUE DUP1 ISZERO PUSH2 0x5CD JUMPI PUSH1 0x0 DUP1 REVERT JUMPDEST POP PUSH2 0x390 PUSH2 0x5DC CALLDATASIZE PUSH1 0x4 PUSH2 0x3BC2 JUMP JUMPDEST PUSH2 0x1A67 JUMP JUMPDEST CALLVALUE DUP1 ISZERO PUSH2 0x5ED JUMPI PUSH1 0x0 DUP1 REVERT JUMPDEST POP PUSH2 0x390 PUSH2 0x5FC CALLDATASIZE PUSH1 0x4 PUSH2 0x3895 JUMP JUMPDEST PUSH2 0x1B99 JUMP JUMPDEST CALLVALUE DUP1 ISZERO PUSH2 0x60D JUMPI PUSH1 0x0 DUP1 REVERT JUMPDEST POP PUSH2 0x418 PUSH2 0x61C CALLDATASIZE PUSH1 0x4 PUSH2 0x3895 JUMP JUMPDEST PUSH2 0x1C60 JUMP JUMPDEST CALLVALUE DUP1 ISZERO PUSH2 0x62D JUMPI PUSH1 0x0 DUP1 REVERT JUMPDEST POP PUSH2 0x358 PUSH2 0x63C CALLDATASIZE PUSH1 0x4 PUSH2 0x3895 JUMP JUMPDEST PUSH2 0x1CA7 JUMP JUMPDEST CALLVALUE DUP1 ISZERO PUSH2 0x64D JUMPI PUSH1 0x0 DUP1 REVERT JUMPDEST POP PUSH2 0x390 PUSH2 0x65C CALLDATASIZE PUSH1 0x4 PUSH2 0x3CB1 JUMP JUMPDEST PUSH2 0x1D0B JUMP JUMPDEST CALLVALUE DUP1 ISZERO PUSH2 0x66D JUMPI PUSH1 0x0 DUP1 REVERT JUMPDEST POP PUSH1 0xA SLOAD PUSH2 0x693 SWAP1 PUSH21 0x10000000000000000000000000000000000000000 SWAP1 DIV PUSH1 0xFF AND DUP2 JUMP JUMPDEST PUSH1 0x40 MLOAD PUSH2 0x30D SWAP2 SWAP1 PUSH2 0x3D01 JUMP JUMPDEST CALLVALUE DUP1 ISZERO PUSH2 0x6AC JUMPI PUSH1 0x0 DUP1 REVERT JUMPDEST POP PUSH2 0x358 PUSH2 0x6BB CALLDATASIZE PUSH1 0x4 PUSH2 0x3895 JUMP JUMPDEST PUSH2 0x1D67 JUMP JUMPDEST CALLVALUE DUP1 ISZERO PUSH2 0x6CC JUMPI PUSH1 0x0 DUP1 REVERT JUMPDEST POP PUSH2 0x390 PUSH2 0x6DB CALLDATASIZE PUSH1 0x4 PUSH2 0x3B00 JUMP JUMPDEST PUSH2 0x1DB4 JUMP JUMPDEST CALLVALUE DUP1 ISZERO PUSH2 0x6EC JUMPI PUSH1 0x0 DUP1 REVERT JUMPDEST POP PUSH2 0x418 PUSH32 0x0 DUP2 JUMP JUMPDEST CALLVALUE DUP1 ISZERO PUSH2 0x720 JUMPI PUSH1 0x0 DUP1 REVERT JUMPDEST POP PUSH2 0x418 PUSH2 0x72F CALLDATASIZE PUSH1 0x4 PUSH2 0x3C03 JUMP JUMPDEST PUSH2 0x1F42 JUMP JUMPDEST PUSH2 0x390 PUSH2 0x742 CALLDATASIZE PUSH1 0x4 PUSH2 0x3C20 JUMP JUMPDEST PUSH2 0x1F4D JUMP JUMPDEST CALLVALUE DUP1 ISZERO PUSH2 0x753 JUMPI PUSH1 0x0 DUP1 REVERT JUMPDEST POP PUSH2 0x418 PUSH32 0x0 DUP2 JUMP JUMPDEST CALLVALUE DUP1 ISZERO PUSH2 0x787 JUMPI PUSH1 0x0 DUP1 REVERT JUMPDEST POP PUSH1 0xA SLOAD PUSH1 0x1 PUSH1 0x1 PUSH1 0xA0 SHL SUB AND PUSH2 0x358 JUMP JUMPDEST CALLVALUE DUP1 ISZERO PUSH2 0x7A5 JUMPI PUSH1 0x0 DUP1 REVERT JUMPDEST POP PUSH2 0x418 PUSH32 0x0 DUP2 JUMP JUMPDEST CALLVALUE DUP1 ISZERO PUSH2 0x7D9 JUMPI PUSH1 0x0 DUP1 REVERT JUMPDEST POP PUSH2 0x32B PUSH2 0x20F3 JUMP JUMPDEST PUSH2 0x390 PUSH2 0x7F0 CALLDATASIZE PUSH1 0x4 PUSH2 0x3895 JUMP JUMPDEST PUSH2 0x2102 JUMP JUMPDEST CALLVALUE DUP1 ISZERO PUSH2 0x801 JUMPI PUSH1 0x0 DUP1 REVERT JUMPDEST POP PUSH2 0x390 PUSH2 0x810 CALLDATASIZE PUSH1 0x4 PUSH2 0x3D42 JUMP JUMPDEST PUSH2 0x22B0 JUMP JUMPDEST CALLVALUE DUP1 ISZERO PUSH2 0x821 JUMPI PUSH1 0x0 DUP1 REVERT JUMPDEST POP PUSH2 0x390 PUSH2 0x830 CALLDATASIZE PUSH1 0x4 PUSH2 0x3895 JUMP JUMPDEST PUSH2 0x237F JUMP JUMPDEST CALLVALUE DUP1 ISZERO PUSH2 0x841 JUMPI PUSH1 0x0 DUP1 REVERT JUMPDEST POP PUSH2 0x390 PUSH2 0x850 CALLDATASIZE PUSH1 0x4 PUSH2 0x3C03 JUMP JUMPDEST PUSH2 0x241F JUMP JUMPDEST CALLVALUE DUP1 ISZERO PUSH2 0x861 JUMPI PUSH1 0x0 DUP1 REVERT JUMPDEST POP PUSH2 0x390 PUSH2 0x870 CALLDATASIZE PUSH1 0x4 PUSH2 0x3D80 JUMP JUMPDEST PUSH2 0x24D8 JUMP JUMPDEST CALLVALUE DUP1 ISZERO PUSH2 0x881 JUMPI PUSH1 0x0 DUP1 REVERT JUMPDEST POP PUSH2 0x32B PUSH2 0x890 CALLDATASIZE PUSH1 0x4 PUSH2 0x3895 JUMP JUMPDEST PUSH2 0x263C JUMP JUMPDEST CALLVALUE DUP1 ISZERO PUSH2 0x8A1 JUMPI PUSH1 0x0 DUP1 REVERT JUMPDEST POP PUSH2 0x390 PUSH2 0x8B0 CALLDATASIZE PUSH1 0x4 PUSH2 0x38C3 JUMP JUMPDEST PUSH2 0x26D7 JUMP JUMPDEST CALLVALUE DUP1 ISZERO PUSH2 0x8C1 JUMPI PUSH1 0x0 DUP1 REVERT JUMPDEST POP PUSH2 0x301 PUSH2 0x8D0 CALLDATASIZE PUSH1 0x4 PUSH2 0x3E1F JUMP JUMPDEST PUSH2 0x2738 JUMP JUMPDEST CALLVALUE DUP1 ISZERO PUSH2 0x8E1 JUMPI PUSH1 0x0 DUP1 REVERT JUMPDEST POP PUSH2 0x390 PUSH2 0x8F0 CALLDATASIZE PUSH1 0x4 PUSH2 0x3C03 JUMP JUMPDEST PUSH2 0x2744 JUMP JUMPDEST PUSH1 0x0 PUSH32 0xFFFFFFFF00000000000000000000000000000000000000000000000000000000 DUP3 AND PUSH32 0x2A55205A00000000000000000000000000000000000000000000000000000000 EQ DUP1 PUSH2 0x94B JUMPI POP PUSH2 0x94B DUP3 PUSH2 0x2801 JUMP JUMPDEST DUP1 PUSH2 0x95A JUMPI POP PUSH2 0x95A DUP3 PUSH2 0x28E5 JUMP JUMPDEST SWAP3 SWAP2 POP POP JUMP JUMPDEST PUSH1 0x60 PUSH1 0x0 DUP1 SLOAD PUSH2 0x96F SWAP1 PUSH2 0x3E4D JUMP JUMPDEST DUP1 PUSH1 0x1F ADD PUSH1 0x20 DUP1 SWAP2 DIV MUL PUSH1 0x20 ADD PUSH1 0x40 MLOAD SWAP1 DUP2 ADD PUSH1 0x40 MSTORE DUP1 SWAP3 SWAP2 SWAP1 DUP2 DUP2 MSTORE PUSH1 0x20 ADD DUP3 DUP1 SLOAD PUSH2 0x99B SWAP1 PUSH2 0x3E4D JUMP JUMPDEST DUP1 ISZERO PUSH2 0x9E8 JUMPI DUP1 PUSH1 0x1F LT PUSH2 0x9BD JUMPI PUSH2 0x100 DUP1 DUP4 SLOAD DIV MUL DUP4 MSTORE SWAP2 PUSH1 0x20 ADD SWAP2 PUSH2 0x9E8 JUMP JUMPDEST DUP3 ADD SWAP2 SWAP1 PUSH1 0x0 MSTORE PUSH1 0x20 PUSH1 0x0 KECCAK256 SWAP1 JUMPDEST DUP2 SLOAD DUP2 MSTORE SWAP1 PUSH1 0x1 ADD SWAP1 PUSH1 0x20 ADD DUP1 DUP4 GT PUSH2 0x9CB JUMPI DUP3 SWAP1 SUB PUSH1 0x1F AND DUP3 ADD SWAP2 JUMPDEST POP POP POP POP POP SWAP1 POP SWAP1 JUMP JUMPDEST PUSH1 0x0 DUP2 PUSH2 0xA00 DUP2 PUSH1 0x3 SLOAD GT SWAP1 JUMP JUMPDEST PUSH2 0xA36 JUMPI PUSH1 0x40 MLOAD PUSH32 0x89A111E300000000000000000000000000000000000000000000000000000000 DUP2 MSTORE PUSH1 0x4 ADD PUSH1 0x40 MLOAD DUP1 SWAP2 SUB SWAP1 REVERT JUMPDEST PUSH1 0x0 DUP4 DUP2 MSTORE PUSH1 0x5 PUSH1 0x20 MSTORE PUSH1 0x40 SWAP1 KECCAK256 SLOAD PUSH1 0x1 PUSH1 0x1 PUSH1 0xA0 SHL SUB AND SWAP2 POP JUMPDEST POP SWAP2 SWAP1 POP JUMP JUMPDEST DUP1 PUSH2 0xA63 DUP2 PUSH1 0x3 SLOAD GT SWAP1 JUMP JUMPDEST PUSH2 0xA99 JUMPI PUSH1 0x40 MLOAD PUSH32 0x89A111E300000000000000000000000000000000000000000000000000000000 DUP2 MSTORE PUSH1 0x4 ADD PUSH1 0x40 MLOAD DUP1 SWAP2 SUB SWAP1 REVERT JUMPDEST CALLER PUSH1 0x0 PUSH2 0xAA5 DUP5 PUSH2 0x293B JUMP JUMPDEST SWAP1 POP PUSH1 0x0 PUSH2 0xAB4 DUP3 DUP5 DUP8 PUSH2 0x2992 JUMP JUMPDEST SWAP1 POP DUP1 PUSH2 0xAED JUMPI PUSH1 0x40 MLOAD PUSH32 0xBDC31D1200000000000000000000000000000000000000000000000000000000 DUP2 MSTORE PUSH1 0x4 ADD PUSH1 0x40 MLOAD DUP1 SWAP2 SUB SWAP1 REVERT JUMPDEST DUP2 PUSH1 0x1 PUSH1 0x1 PUSH1 0xA0 SHL SUB AND DUP7 PUSH1 0x1 PUSH1 0x1 PUSH1 0xA0 SHL SUB AND EQ ISZERO PUSH2 0xB39 JUMPI PUSH1 0x40 MLOAD PUSH32 0xCEF24C0000000000000000000000000000000000000000000000000000000000 DUP2 MSTORE PUSH1 0x4 ADD PUSH1 0x40 MLOAD DUP1 SWAP2 SUB SWAP1 REVERT JUMPDEST PUSH1 0x0 DUP6 DUP2 MSTORE PUSH1 0x5 PUSH1 0x20 MSTORE PUSH1 0x40 DUP1 DUP3 KECCAK256 DUP1 SLOAD PUSH32 0xFFFFFFFFFFFFFFFFFFFFFFFF0000000000000000000000000000000000000000 AND PUSH1 0x1 PUSH1 0x1 PUSH1 0xA0 SHL SUB DUP11 DUP2 AND SWAP2 DUP3 OR SWAP1 SWAP3 SSTORE SWAP2 MLOAD DUP9 SWAP4 SWAP2 DUP7 AND SWAP2 PUSH32 0x8C5BE1E5EBEC7D5BD14F71427D1E84F3DD0314C0F7B2291E5B200AC8C7C3B925 SWAP2 LOG4 POP POP POP POP POP POP JUMP JUMPDEST PUSH1 0x1 PUSH1 0xA SLOAD PUSH21 0x10000000000000000000000000000000000000000 SWAP1 DIV PUSH1 0xFF AND PUSH1 0x2 DUP2 GT ISZERO PUSH2 0xBE1 JUMPI PUSH2 0xBE1 PUSH2 0x3CD2 JUMP JUMPDEST EQ PUSH2 0xC18 JUMPI PUSH1 0x40 MLOAD PUSH32 0xA11AAD5B00000000000000000000000000000000000000000000000000000000 DUP2 MSTORE PUSH1 0x4 ADD PUSH1 0x40 MLOAD DUP1 SWAP2 SUB SWAP1 REVERT JUMPDEST CALLER PUSH1 0x0 DUP2 DUP2 MSTORE PUSH1 0xE PUSH1 0x20 MSTORE PUSH1 0x40 SWAP1 KECCAK256 SLOAD DUP4 GT ISZERO PUSH2 0xC61 JUMPI PUSH1 0x40 MLOAD PUSH32 0xE8AAD3F200000000000000000000000000000000000000000000000000000000 DUP2 MSTORE PUSH1 0x4 ADD PUSH1 0x40 MLOAD DUP1 SWAP2 SUB SWAP1 REVERT JUMPDEST PUSH1 0x0 DUP4 PUSH2 0xC6D PUSH1 0x3 SLOAD SWAP1 JUMP JUMPDEST PUSH2 0xC77 SWAP2 SWAP1 PUSH2 0x3ECA JUMP JUMPDEST SWAP1 POP PUSH1 0xF SLOAD PUSH32 0x0 PUSH2 0xCA7 SWAP2 SWAP1 PUSH2 0x3EE2 JUMP JUMPDEST DUP2 GT ISZERO PUSH2 0xCE0 JUMPI PUSH1 0x40 MLOAD PUSH32 0xC77894C000000000000000000000000000000000000000000000000000000000 DUP2 MSTORE PUSH1 0x4 ADD PUSH1 0x40 MLOAD DUP1 SWAP2 SUB SWAP1 REVERT JUMPDEST PUSH1 0x1 PUSH1 0x1 PUSH1 0xA0 SHL SUB DUP3 AND PUSH1 0x0 SWAP1 DUP2 MSTORE PUSH1 0xE PUSH1 0x20 MSTORE PUSH1 0x40 SWAP1 KECCAK256 DUP1 SLOAD DUP6 SWAP1 SUB SWAP1 SSTORE PUSH2 0xD0A DUP3 DUP6 DUP6 PUSH2 0x29E7 JUMP JUMPDEST POP POP POP POP JUMP JUMPDEST PUSH32 0x150B7A0200000000000000000000000000000000000000000000000000000000 JUMPDEST SWAP5 SWAP4 POP POP POP POP JUMP JUMPDEST PUSH1 0x0 DUP1 PUSH2 0xD46 PUSH1 0x3 SLOAD SWAP1 JUMP JUMPDEST SWAP1 POP PUSH1 0x0 DUP1 JUMPDEST DUP3 DUP2 LT ISZERO PUSH2 0xD84 JUMPI PUSH2 0xD5F DUP2 PUSH1 0x3 SLOAD GT SWAP1 JUMP JUMPDEST ISZERO PUSH2 0xD72 JUMPI DUP2 PUSH2 0xD6E DUP2 PUSH2 0x3EF9 JUMP JUMPDEST SWAP3 POP POP JUMPDEST DUP1 PUSH2 0xD7C DUP2 PUSH2 0x3EF9 JUMP JUMPDEST SWAP2 POP POP PUSH2 0xD4C JUMP JUMPDEST POP SWAP3 SWAP2 POP POP JUMP JUMPDEST PUSH1 0x2 PUSH1 0xA SLOAD PUSH21 0x10000000000000000000000000000000000000000 SWAP1 DIV PUSH1 0xFF AND PUSH1 0x2 DUP2 GT ISZERO PUSH2 0xDBC JUMPI PUSH2 0xDBC PUSH2 0x3CD2 JUMP JUMPDEST EQ PUSH2 0xDF3 JUMPI PUSH1 0x40 MLOAD PUSH32 0x13CE6B3100000000000000000000000000000000000000000000000000000000 DUP2 MSTORE PUSH1 0x4 ADD PUSH1 0x40 MLOAD DUP1 SWAP2 SUB SWAP1 REVERT JUMPDEST PUSH32 0x0 DUP3 GT ISZERO PUSH2 0xE4D JUMPI PUSH1 0x40 MLOAD PUSH32 0xB3CCAE9500000000000000000000000000000000000000000000000000000000 DUP2 MSTORE PUSH1 0x4 ADD PUSH1 0x40 MLOAD DUP1 SWAP2 SUB SWAP1 REVERT JUMPDEST PUSH1 0x0 DUP3 PUSH2 0xE59 PUSH1 0x3 SLOAD SWAP1 JUMP JUMPDEST PUSH2 0xE63 SWAP2 SWAP1 PUSH2 0x3ECA JUMP JUMPDEST SWAP1 POP PUSH1 0xF SLOAD PUSH32 0x0 PUSH2 0xE93 SWAP2 SWAP1 PUSH2 0x3EE2 JUMP JUMPDEST DUP2 GT ISZERO PUSH2 0xECC JUMPI PUSH1 0x40 MLOAD PUSH32 0xC77894C000000000000000000000000000000000000000000000000000000000 DUP2 MSTORE PUSH1 0x4 ADD PUSH1 0x40 MLOAD DUP1 SWAP2 SUB SWAP1 REVERT JUMPDEST CALLVALUE PUSH2 0xEF7 PUSH32 0x0 DUP6 PUSH2 0x3F32 JUMP JUMPDEST EQ PUSH2 0xF2E JUMPI PUSH1 0x40 MLOAD PUSH32 0x225456A100000000000000000000000000000000000000000000000000000000 DUP2 MSTORE PUSH1 0x4 ADD PUSH1 0x40 MLOAD DUP1 SWAP2 SUB SWAP1 REVERT JUMPDEST CALLER PUSH2 0xD0A DUP2 DUP6 DUP6 PUSH2 0x29E7 JUMP JUMPDEST CALLER PUSH2 0xF4D PUSH1 0xA SLOAD PUSH1 0x1 PUSH1 0x1 PUSH1 0xA0 SHL SUB AND SWAP1 JUMP JUMPDEST PUSH1 0x1 PUSH1 0x1 PUSH1 0xA0 SHL SUB AND EQ PUSH2 0xF8D JUMPI PUSH1 0x40 MLOAD PUSH32 0x1B09F9F00000000000000000000000000000000000000000000000000000000 DUP2 MSTORE PUSH1 0x4 ADD PUSH1 0x40 MLOAD DUP1 SWAP2 SUB SWAP1 REVERT JUMPDEST PUSH1 0x0 PUSH1 0xA SLOAD PUSH21 0x10000000000000000000000000000000000000000 SWAP1 DIV PUSH1 0xFF AND PUSH1 0x2 DUP2 GT ISZERO PUSH2 0xFBE JUMPI PUSH2 0xFBE PUSH2 0x3CD2 JUMP JUMPDEST EQ PUSH2 0xFF5 JUMPI PUSH1 0x40 MLOAD PUSH32 0xE90D4D7A00000000000000000000000000000000000000000000000000000000 DUP2 MSTORE PUSH1 0x4 ADD PUSH1 0x40 MLOAD DUP1 SWAP2 SUB SWAP1 REVERT JUMPDEST DUP1 MLOAD DUP3 MLOAD DUP2 EQ PUSH2 0x1031 JUMPI PUSH1 0x40 MLOAD PUSH32 0x9259BCE600000000000000000000000000000000000000000000000000000000 DUP2 MSTORE PUSH1 0x4 ADD PUSH1 0x40 MLOAD DUP1 SWAP2 SUB SWAP1 REVERT JUMPDEST PUSH1 0x0 JUMPDEST DUP2 DUP2 LT ISZERO PUSH2 0xD0A JUMPI DUP3 DUP2 DUP2 MLOAD DUP2 LT PUSH2 0x104E JUMPI PUSH2 0x104E PUSH2 0x3F6F JUMP JUMPDEST PUSH1 0x20 MUL PUSH1 0x20 ADD ADD MLOAD PUSH1 0xE PUSH1 0x0 DUP7 DUP5 DUP2 MLOAD DUP2 LT PUSH2 0x106C JUMPI PUSH2 0x106C PUSH2 0x3F6F JUMP JUMPDEST PUSH1 0x20 MUL PUSH1 0x20 ADD ADD MLOAD PUSH1 0x1 PUSH1 0x1 PUSH1 0xA0 SHL SUB AND PUSH1 0x1 PUSH1 0x1 PUSH1 0xA0 SHL SUB AND DUP2 MSTORE PUSH1 0x20 ADD SWAP1 DUP2 MSTORE PUSH1 0x20 ADD PUSH1 0x0 KECCAK256 DUP2 SWAP1 SSTORE POP DUP1 DUP1 PUSH2 0x10A3 SWAP1 PUSH2 0x3EF9 JUMP JUMPDEST SWAP2 POP POP PUSH2 0x1034 JUMP JUMPDEST DUP1 PUSH2 0x10B7 DUP2 PUSH1 0x3 SLOAD GT SWAP1 JUMP JUMPDEST PUSH2 0x10ED JUMPI PUSH1 0x40 MLOAD PUSH32 0x89A111E300000000000000000000000000000000000000000000000000000000 DUP2 MSTORE PUSH1 0x4 ADD PUSH1 0x40 MLOAD DUP1 SWAP2 SUB SWAP1 REVERT JUMPDEST CALLER PUSH1 0x0 PUSH2 0x10F9 DUP5 PUSH2 0x293B JUMP JUMPDEST SWAP1 POP PUSH1 0x0 PUSH2 0x1108 DUP3 DUP5 DUP8 PUSH2 0x2992 JUMP JUMPDEST SWAP1 POP DUP1 PUSH2 0x1141 JUMPI PUSH1 0x40 MLOAD PUSH32 0xBDC31D1200000000000000000000000000000000000000000000000000000000 DUP2 MSTORE PUSH1 0x4 ADD PUSH1 0x40 MLOAD DUP1 SWAP2 SUB SWAP1 REVERT JUMPDEST PUSH1 0x1 PUSH1 0x1 PUSH1 0xA0 SHL SUB DUP7 AND PUSH2 0x1181 JUMPI PUSH1 0x40 MLOAD PUSH32 0xD563B6A600000000000000000000000000000000000000000000000000000000 DUP2 MSTORE PUSH1 0x4 ADD PUSH1 0x40 MLOAD DUP1 SWAP2 SUB SWAP1 REVERT JUMPDEST PUSH2 0x118C DUP3 DUP8 DUP8 PUSH2 0x2A2E JUMP JUMPDEST POP POP POP POP POP POP POP JUMP JUMPDEST PUSH1 0x0 DUP1 DUP4 PUSH2 0x11A4 DUP2 PUSH1 0x3 SLOAD GT SWAP1 JUMP JUMPDEST PUSH2 0x11DA JUMPI PUSH1 0x40 MLOAD PUSH32 0x89A111E300000000000000000000000000000000000000000000000000000000 DUP2 MSTORE PUSH1 0x4 ADD PUSH1 0x40 MLOAD DUP1 SWAP2 SUB SWAP1 REVERT JUMPDEST PUSH2 0x11E4 DUP6 DUP6 PUSH2 0x2BF8 JUMP JUMPDEST SWAP3 POP SWAP3 POP POP SWAP3 POP SWAP3 SWAP1 POP JUMP JUMPDEST DUP1 PUSH2 0x11FC DUP2 PUSH1 0x3 SLOAD GT SWAP1 JUMP JUMPDEST PUSH2 0x1232 JUMPI PUSH1 0x40 MLOAD PUSH32 0x89A111E300000000000000000000000000000000000000000000000000000000 DUP2 MSTORE PUSH1 0x4 ADD PUSH1 0x40 MLOAD DUP1 SWAP2 SUB SWAP1 REVERT JUMPDEST PUSH1 0x0 DUP3 DUP2 MSTORE PUSH1 0x7 PUSH1 0x20 MSTORE PUSH1 0x40 DUP2 KECCAK256 SLOAD CALLER SWAP2 PUSH1 0x1 PUSH1 0x1 PUSH1 0xA0 SHL SUB SWAP1 SWAP2 AND SWAP1 PUSH2 0x125A DUP3 DUP5 DUP8 PUSH2 0x2992 JUMP JUMPDEST SWAP1 POP DUP1 PUSH2 0x1293 JUMPI PUSH1 0x40 MLOAD PUSH32 0xBDC31D1200000000000000000000000000000000000000000000000000000000 DUP2 MSTORE PUSH1 0x4 ADD PUSH1 0x40 MLOAD DUP1 SWAP2 SUB SWAP1 REVERT JUMPDEST PUSH2 0x129D DUP3 DUP7 PUSH2 0x2C58 JUMP JUMPDEST POP POP POP POP POP JUMP JUMPDEST PUSH1 0x0 DUP1 PUSH2 0x12B0 PUSH1 0x3 SLOAD SWAP1 JUMP JUMPDEST SWAP1 POP PUSH2 0x12BB DUP5 PUSH2 0x2C9A JUMP JUMPDEST DUP4 LT PUSH2 0x12F3 JUMPI PUSH1 0x40 MLOAD PUSH32 0x8ADBCB8100000000000000000000000000000000000000000000000000000000 DUP2 MSTORE PUSH1 0x4 ADD PUSH1 0x40 MLOAD DUP1 SWAP2 SUB SWAP1 REVERT JUMPDEST PUSH1 0x0 DUP1 JUMPDEST DUP3 DUP2 LT ISZERO PUSH2 0x1366 JUMPI PUSH2 0x130A DUP2 PUSH1 0x3 SLOAD GT SWAP1 JUMP JUMPDEST DUP1 ISZERO PUSH2 0x132F JUMPI POP PUSH2 0x131A DUP2 PUSH2 0x293B JUMP JUMPDEST PUSH1 0x1 PUSH1 0x1 PUSH1 0xA0 SHL SUB AND DUP7 PUSH1 0x1 PUSH1 0x1 PUSH1 0xA0 SHL SUB AND EQ JUMPDEST ISZERO PUSH2 0x1354 JUMPI DUP2 DUP6 EQ ISZERO PUSH2 0x1346 JUMPI SWAP3 POP PUSH2 0x95A SWAP2 POP POP JUMP JUMPDEST DUP2 PUSH2 0x1350 DUP2 PUSH2 0x3EF9 JUMP JUMPDEST SWAP3 POP POP JUMPDEST DUP1 PUSH2 0x135E DUP2 PUSH2 0x3EF9 JUMP JUMPDEST SWAP2 POP POP PUSH2 0x12F7 JUMP JUMPDEST POP POP POP SWAP3 SWAP2 POP POP JUMP JUMPDEST PUSH1 0x0 PUSH2 0x95A DUP3 PUSH2 0x2D48 JUMP JUMPDEST PUSH1 0x1 PUSH1 0xA SLOAD PUSH21 0x10000000000000000000000000000000000000000 SWAP1 DIV PUSH1 0xFF AND PUSH1 0x2 DUP2 GT ISZERO PUSH2 0x13AB JUMPI PUSH2 0x13AB PUSH2 0x3CD2 JUMP JUMPDEST EQ PUSH2 0x13E2 JUMPI PUSH1 0x40 MLOAD PUSH32 0xA11AAD5B00000000000000000000000000000000000000000000000000000000 DUP2 MSTORE PUSH1 0x4 ADD PUSH1 0x40 MLOAD DUP1 SWAP2 SUB SWAP1 REVERT JUMPDEST CALLER PUSH1 0x0 DUP2 DUP2 MSTORE PUSH1 0xE PUSH1 0x20 MSTORE PUSH1 0x40 SWAP1 KECCAK256 SLOAD DUP3 GT ISZERO PUSH2 0x142B JUMPI PUSH1 0x40 MLOAD PUSH32 0xE8AAD3F200000000000000000000000000000000000000000000000000000000 DUP2 MSTORE PUSH1 0x4 ADD PUSH1 0x40 MLOAD DUP1 SWAP2 SUB SWAP1 REVERT JUMPDEST PUSH1 0x0 DUP3 PUSH2 0x1437 PUSH1 0x3 SLOAD SWAP1 JUMP JUMPDEST PUSH2 0x1441 SWAP2 SWAP1 PUSH2 0x3ECA JUMP JUMPDEST SWAP1 POP PUSH1 0xF SLOAD PUSH32 0x0 PUSH2 0x1471 SWAP2 SWAP1 PUSH2 0x3EE2 JUMP JUMPDEST DUP2 GT ISZERO PUSH2 0x14AA JUMPI PUSH1 0x40 MLOAD PUSH32 0xC77894C000000000000000000000000000000000000000000000000000000000 DUP2 MSTORE PUSH1 0x4 ADD PUSH1 0x40 MLOAD DUP1 SWAP2 SUB SWAP1 REVERT JUMPDEST PUSH1 0x1 PUSH1 0x1 PUSH1 0xA0 SHL SUB DUP3 AND PUSH1 0x0 SWAP1 DUP2 MSTORE PUSH1 0xE PUSH1 0x20 MSTORE PUSH1 0x40 SWAP1 KECCAK256 DUP1 SLOAD DUP5 SWAP1 SUB SWAP1 SSTORE PUSH2 0x14D3 DUP3 DUP5 PUSH2 0x2DC3 JUMP JUMPDEST POP POP POP JUMP JUMPDEST PUSH1 0x1 PUSH1 0xA SLOAD PUSH21 0x10000000000000000000000000000000000000000 SWAP1 DIV PUSH1 0xFF AND PUSH1 0x2 DUP2 GT ISZERO PUSH2 0x1509 JUMPI PUSH2 0x1509 PUSH2 0x3CD2 JUMP JUMPDEST EQ PUSH2 0x1540 JUMPI PUSH1 0x40 MLOAD PUSH32 0xA11AAD5B00000000000000000000000000000000000000000000000000000000 DUP2 MSTORE PUSH1 0x4 ADD PUSH1 0x40 MLOAD DUP1 SWAP2 SUB SWAP1 REVERT JUMPDEST CALLER DUP2 PUSH1 0x1 DUP1 PUSH1 0x0 PUSH2 0x1552 DUP6 DUP6 DUP6 PUSH2 0x2EBE JUMP JUMPDEST SWAP1 POP DUP2 DUP2 LT ISZERO PUSH2 0x158E JUMPI PUSH1 0x40 MLOAD PUSH32 0xA432706200000000000000000000000000000000000000000000000000000000 DUP2 MSTORE PUSH1 0x4 ADD PUSH1 0x40 MLOAD DUP1 SWAP2 SUB SWAP1 REVERT JUMPDEST PUSH1 0xF SLOAD PUSH2 0x15BB SWAP1 PUSH32 0x0 PUSH2 0x3EE2 JUMP JUMPDEST PUSH1 0x3 SLOAD PUSH2 0x15C9 SWAP1 PUSH1 0x1 PUSH2 0x3ECA JUMP JUMPDEST GT ISZERO PUSH2 0x1601 JUMPI PUSH1 0x40 MLOAD PUSH32 0xC77894C000000000000000000000000000000000000000000000000000000000 DUP2 MSTORE PUSH1 0x4 ADD PUSH1 0x40 MLOAD DUP1 SWAP2 SUB SWAP1 REVERT JUMPDEST CALLVALUE PUSH32 0x0 EQ PUSH2 0x165A JUMPI PUSH1 0x40 MLOAD PUSH32 0x225456A100000000000000000000000000000000000000000000000000000000 DUP2 MSTORE PUSH1 0x4 ADD PUSH1 0x40 MLOAD DUP1 SWAP2 SUB SWAP1 REVERT JUMPDEST CALLER PUSH1 0x0 DUP2 DUP2 MSTORE PUSH1 0xD PUSH1 0x20 MSTORE PUSH1 0x40 SWAP1 KECCAK256 DUP1 SLOAD PUSH1 0x1 SWAP1 DUP2 ADD SWAP1 SWAP2 SSTORE PUSH2 0x118C SWAP1 DUP3 SWAP1 DUP1 PUSH2 0x29E7 JUMP JUMPDEST CALLER PUSH2 0x1692 PUSH1 0xA SLOAD PUSH1 0x1 PUSH1 0x1 PUSH1 0xA0 SHL SUB AND SWAP1 JUMP JUMPDEST PUSH1 0x1 PUSH1 0x1 PUSH1 0xA0 SHL SUB AND EQ PUSH2 0x16D2 JUMPI PUSH1 0x40 MLOAD PUSH32 0x1B09F9F00000000000000000000000000000000000000000000000000000000 DUP2 MSTORE PUSH1 0x4 ADD PUSH1 0x40 MLOAD DUP1 SWAP2 SUB SWAP1 REVERT JUMPDEST SELFBALANCE DUP1 PUSH2 0x170A JUMPI PUSH1 0x40 MLOAD PUSH32 0xE13F349A00000000000000000000000000000000000000000000000000000000 DUP2 MSTORE PUSH1 0x4 ADD PUSH1 0x40 MLOAD DUP1 SWAP2 SUB SWAP1 REVERT JUMPDEST PUSH1 0x0 PUSH2 0x3E8 PUSH2 0x171B DUP4 PUSH2 0x384 PUSH2 0x3F32 JUMP JUMPDEST PUSH2 0x1725 SWAP2 SWAP1 PUSH2 0x3FCD JUMP JUMPDEST SWAP1 POP PUSH1 0x0 PUSH2 0x3E8 PUSH2 0x1737 DUP5 PUSH1 0x32 PUSH2 0x3F32 JUMP JUMPDEST PUSH2 0x1741 SWAP2 SWAP1 PUSH2 0x3FCD JUMP JUMPDEST SWAP1 POP PUSH1 0x0 PUSH2 0x1750 PUSH1 0x2 DUP4 PUSH2 0x3FCD JUMP JUMPDEST SWAP1 POP PUSH2 0x177C PUSH32 0x0 DUP3 PUSH2 0x2FAE JUMP JUMPDEST PUSH2 0x17A6 PUSH32 0x0 DUP3 PUSH2 0x2FAE JUMP JUMPDEST PUSH2 0x17D0 PUSH32 0x0 DUP4 PUSH2 0x2FAE JUMP JUMPDEST PUSH2 0x17FA PUSH32 0x0 DUP5 PUSH2 0x2FAE JUMP JUMPDEST PUSH1 0x40 DUP1 MLOAD PUSH1 0x4 DUP1 DUP3 MSTORE PUSH1 0xA0 DUP3 ADD SWAP1 SWAP3 MSTORE PUSH1 0x0 SWAP2 PUSH1 0x20 DUP3 ADD PUSH1 0x80 DUP1 CALLDATASIZE DUP4 CALLDATACOPY ADD SWAP1 POP POP SWAP1 POP PUSH32 0x0 DUP2 PUSH1 0x0 DUP2 MLOAD DUP2 LT PUSH2 0x1851 JUMPI PUSH2 0x1851 PUSH2 0x3F6F JUMP JUMPDEST PUSH1 0x20 MUL PUSH1 0x20 ADD ADD SWAP1 PUSH1 0x1 PUSH1 0x1 PUSH1 0xA0 SHL SUB AND SWAP1 DUP2 PUSH1 0x1 PUSH1 0x1 PUSH1 0xA0 SHL SUB AND DUP2 MSTORE POP POP PUSH32 0x0 DUP2 PUSH1 0x1 DUP2 MLOAD DUP2 LT PUSH2 0x18A5 JUMPI PUSH2 0x18A5 PUSH2 0x3F6F JUMP JUMPDEST PUSH1 0x20 MUL PUSH1 0x20 ADD ADD SWAP1 PUSH1 0x1 PUSH1 0x1 PUSH1 0xA0 SHL SUB AND SWAP1 DUP2 PUSH1 0x1 PUSH1 0x1 PUSH1 0xA0 SHL SUB AND DUP2 MSTORE POP POP PUSH32 0x0 DUP2 PUSH1 0x2 DUP2 MLOAD DUP2 LT PUSH2 0x18F9 JUMPI PUSH2 0x18F9 PUSH2 0x3F6F JUMP JUMPDEST PUSH1 0x20 MUL PUSH1 0x20 ADD ADD SWAP1 PUSH1 0x1 PUSH1 0x1 PUSH1 0xA0 SHL SUB AND SWAP1 DUP2 PUSH1 0x1 PUSH1 0x1 PUSH1 0xA0 SHL SUB AND DUP2 MSTORE POP POP PUSH32 0x0 DUP2 PUSH1 0x3 DUP2 MLOAD DUP2 LT PUSH2 0x194D JUMPI PUSH2 0x194D PUSH2 0x3F6F JUMP JUMPDEST PUSH1 0x1 PUSH1 0x1 PUSH1 0xA0 SHL SUB SWAP3 SWAP1 SWAP3 AND PUSH1 0x20 SWAP3 DUP4 MUL SWAP2 SWAP1 SWAP2 ADD DUP3 ADD MSTORE PUSH1 0x40 DUP1 MLOAD PUSH1 0x4 DUP1 DUP3 MSTORE PUSH1 0xA0 DUP3 ADD SWAP1 SWAP3 MSTORE PUSH1 0x0 SWAP3 SWAP1 SWAP2 SWAP1 DUP3 ADD PUSH1 0x80 DUP1 CALLDATASIZE DUP4 CALLDATACOPY ADD SWAP1 POP POP SWAP1 POP DUP3 DUP2 PUSH1 0x0 DUP2 MLOAD DUP2 LT PUSH2 0x199D JUMPI PUSH2 0x199D PUSH2 0x3F6F JUMP JUMPDEST PUSH1 0x20 MUL PUSH1 0x20 ADD ADD DUP2 DUP2 MSTORE POP POP DUP3 DUP2 PUSH1 0x1 DUP2 MLOAD DUP2 LT PUSH2 0x19BD JUMPI PUSH2 0x19BD PUSH2 0x3F6F JUMP JUMPDEST PUSH1 0x20 MUL PUSH1 0x20 ADD ADD DUP2 DUP2 MSTORE POP POP DUP4 DUP2 PUSH1 0x2 DUP2 MLOAD DUP2 LT PUSH2 0x19DD JUMPI PUSH2 0x19DD PUSH2 0x3F6F JUMP JUMPDEST PUSH1 0x20 MUL PUSH1 0x20 ADD ADD DUP2 DUP2 MSTORE POP POP DUP5 DUP2 PUSH1 0x3 DUP2 MLOAD DUP2 LT PUSH2 0x19FD JUMPI PUSH2 0x19FD PUSH2 0x3F6F JUMP JUMPDEST PUSH1 0x20 MUL PUSH1 0x20 ADD ADD DUP2 DUP2 MSTORE POP POP DUP1 PUSH1 0x40 MLOAD PUSH2 0x1A17 SWAP2 SWAP1 PUSH2 0x3FE1 JUMP JUMPDEST PUSH1 0x40 MLOAD DUP1 SWAP2 SUB SWAP1 KECCAK256 DUP3 PUSH1 0x40 MLOAD PUSH2 0x1A2D SWAP2 SWAP1 PUSH2 0x4017 JUMP JUMPDEST PUSH1 0x40 MLOAD SWAP1 DUP2 SWAP1 SUB DUP2 KECCAK256 SWAP1 ADDRESS SWAP1 PUSH32 0x7D148A78DD4772DD1B6008BE07F3B70B1590D60B4B192E263CDCF1DA2510F26F SWAP1 PUSH1 0x0 SWAP1 LOG4 POP POP POP POP POP POP JUMP JUMPDEST DUP1 PUSH2 0x1A73 DUP2 PUSH1 0x3 SLOAD GT SWAP1 JUMP JUMPDEST PUSH2 0x1AA9 JUMPI PUSH1 0x40 MLOAD PUSH32 0x89A111E300000000000000000000000000000000000000000000000000000000 DUP2 MSTORE PUSH1 0x4 ADD PUSH1 0x40 MLOAD DUP1 SWAP2 SUB SWAP1 REVERT JUMPDEST CALLER PUSH1 0x0 PUSH2 0x1AB5 DUP5 PUSH2 0x293B JUMP JUMPDEST SWAP1 POP PUSH1 0x0 PUSH2 0x1AC4 DUP3 DUP5 DUP8 PUSH2 0x2992 JUMP JUMPDEST SWAP1 POP DUP1 PUSH2 0x1AFD JUMPI PUSH1 0x40 MLOAD PUSH32 0xBDC31D1200000000000000000000000000000000000000000000000000000000 DUP2 MSTORE PUSH1 0x4 ADD PUSH1 0x40 MLOAD DUP1 SWAP2 SUB SWAP1 REVERT JUMPDEST PUSH1 0x1 PUSH1 0x1 PUSH1 0xA0 SHL SUB DUP7 AND PUSH2 0x1B3D JUMPI PUSH1 0x40 MLOAD PUSH32 0xD563B6A600000000000000000000000000000000000000000000000000000000 DUP2 MSTORE PUSH1 0x4 ADD PUSH1 0x40 MLOAD DUP1 SWAP2 SUB SWAP1 REVERT JUMPDEST PUSH2 0x1B48 DUP3 DUP8 DUP8 PUSH2 0x2A2E JUMP JUMPDEST PUSH2 0x1B63 DUP3 DUP8 DUP8 PUSH1 0x40 MLOAD DUP1 PUSH1 0x20 ADD PUSH1 0x40 MSTORE DUP1 PUSH1 0x0 DUP2 MSTORE POP PUSH2 0x3075 JUMP JUMPDEST PUSH2 0x118C JUMPI PUSH1 0x40 MLOAD PUSH32 0x71FBFCA300000000000000000000000000000000000000000000000000000000 DUP2 MSTORE PUSH1 0x4 ADD PUSH1 0x40 MLOAD DUP1 SWAP2 SUB SWAP1 REVERT JUMPDEST CALLER PUSH2 0x1BAC PUSH1 0xA SLOAD PUSH1 0x1 PUSH1 0x1 PUSH1 0xA0 SHL SUB AND SWAP1 JUMP JUMPDEST PUSH1 0x1 PUSH1 0x1 PUSH1 0xA0 SHL SUB AND EQ PUSH2 0x1BEC JUMPI PUSH1 0x40 MLOAD PUSH32 0x1B09F9F00000000000000000000000000000000000000000000000000000000 DUP2 MSTORE PUSH1 0x4 ADD PUSH1 0x40 MLOAD DUP1 SWAP2 SUB SWAP1 REVERT JUMPDEST PUSH1 0x0 PUSH1 0xA SLOAD PUSH21 0x10000000000000000000000000000000000000000 SWAP1 DIV PUSH1 0xFF AND PUSH1 0x2 DUP2 GT ISZERO PUSH2 0x1C1D JUMPI PUSH2 0x1C1D PUSH2 0x3CD2 JUMP JUMPDEST EQ PUSH2 0x1C54 JUMPI PUSH1 0x40 MLOAD PUSH32 0xE90D4D7A00000000000000000000000000000000000000000000000000000000 DUP2 MSTORE PUSH1 0x4 ADD PUSH1 0x40 MLOAD DUP1 SWAP2 SUB SWAP1 REVERT JUMPDEST PUSH2 0x1C5D DUP2 PUSH1 0xC SSTORE JUMP JUMPDEST POP JUMP JUMPDEST PUSH1 0x0 PUSH2 0x1C6B PUSH1 0x3 SLOAD SWAP1 JUMP JUMPDEST DUP3 LT PUSH2 0x1CA3 JUMPI PUSH1 0x40 MLOAD PUSH32 0xA8111F3A00000000000000000000000000000000000000000000000000000000 DUP2 MSTORE PUSH1 0x4 ADD PUSH1 0x40 MLOAD DUP1 SWAP2 SUB SWAP1 REVERT JUMPDEST POP SWAP1 JUMP JUMPDEST PUSH1 0x0 DUP2 PUSH2 0x1CB5 DUP2 PUSH1 0x3 SLOAD GT SWAP1 JUMP JUMPDEST PUSH2 0x1CEB JUMPI PUSH1 0x40 MLOAD PUSH32 0x89A111E300000000000000000000000000000000000000000000000000000000 DUP2 MSTORE PUSH1 0x4 ADD PUSH1 0x40 MLOAD DUP1 SWAP2 SUB SWAP1 REVERT JUMPDEST PUSH1 0x0 DUP4 DUP2 MSTORE PUSH1 0x7 PUSH1 0x20 MSTORE PUSH1 0x40 SWAP1 KECCAK256 SLOAD PUSH1 0x1 PUSH1 0x1 PUSH1 0xA0 SHL SUB AND JUMPDEST SWAP4 SWAP3 POP POP POP JUMP JUMPDEST CALLER PUSH2 0x1D1E PUSH1 0xA SLOAD PUSH1 0x1 PUSH1 0x1 PUSH1 0xA0 SHL SUB AND SWAP1 JUMP JUMPDEST PUSH1 0x1 PUSH1 0x1 PUSH1 0xA0 SHL SUB AND EQ PUSH2 0x1D5E JUMPI PUSH1 0x40 MLOAD PUSH32 0x1B09F9F00000000000000000000000000000000000000000000000000000000 DUP2 MSTORE PUSH1 0x4 ADD PUSH1 0x40 MLOAD DUP1 SWAP2 SUB SWAP1 REVERT JUMPDEST PUSH2 0x1C5D DUP2 PUSH2 0x31EE JUMP JUMPDEST PUSH1 0x0 DUP2 PUSH2 0x1D75 DUP2 PUSH1 0x3 SLOAD GT SWAP1 JUMP JUMPDEST PUSH2 0x1DAB JUMPI PUSH1 0x40 MLOAD PUSH32 0x89A111E300000000000000000000000000000000000000000000000000000000 DUP2 MSTORE PUSH1 0x4 ADD PUSH1 0x40 MLOAD DUP1 SWAP2 SUB SWAP1 REVERT JUMPDEST PUSH2 0x1D04 DUP4 PUSH2 0x32A0 JUMP JUMPDEST CALLER PUSH2 0x1DC7 PUSH1 0xA SLOAD PUSH1 0x1 PUSH1 0x1 PUSH1 0xA0 SHL SUB AND SWAP1 JUMP JUMPDEST PUSH1 0x1 PUSH1 0x1 PUSH1 0xA0 SHL SUB AND EQ PUSH2 0x1E07 JUMPI PUSH1 0x40 MLOAD PUSH32 0x1B09F9F00000000000000000000000000000000000000000000000000000000 DUP2 MSTORE PUSH1 0x4 ADD PUSH1 0x40 MLOAD DUP1 SWAP2 SUB SWAP1 REVERT JUMPDEST DUP1 MLOAD DUP3 MLOAD DUP2 EQ PUSH2 0x1E43 JUMPI PUSH1 0x40 MLOAD PUSH32 0x9259BCE600000000000000000000000000000000000000000000000000000000 DUP2 MSTORE PUSH1 0x4 ADD PUSH1 0x40 MLOAD DUP1 SWAP2 SUB SWAP1 REVERT JUMPDEST PUSH1 0x0 DUP2 JUMPDEST DUP1 ISZERO PUSH2 0x1E90 JUMPI DUP4 PUSH2 0x1E59 PUSH1 0x1 DUP4 PUSH2 0x3EE2 JUMP JUMPDEST DUP2 MLOAD DUP2 LT PUSH2 0x1E69 JUMPI PUSH2 0x1E69 PUSH2 0x3F6F JUMP JUMPDEST PUSH1 0x20 MUL PUSH1 0x20 ADD ADD MLOAD DUP3 PUSH2 0x1E7C SWAP2 SWAP1 PUSH2 0x3ECA JUMP JUMPDEST SWAP2 POP DUP1 PUSH2 0x1E88 DUP2 PUSH2 0x404A JUMP JUMPDEST SWAP2 POP POP PUSH2 0x1E47 JUMP JUMPDEST POP PUSH1 0xF SLOAD DUP2 GT ISZERO PUSH2 0x1ECD JUMPI PUSH1 0x40 MLOAD PUSH32 0xB18F58CA00000000000000000000000000000000000000000000000000000000 DUP2 MSTORE PUSH1 0x4 ADD PUSH1 0x40 MLOAD DUP1 SWAP2 SUB SWAP1 REVERT JUMPDEST PUSH1 0xF DUP1 SLOAD DUP3 SWAP1 SUB SWAP1 SSTORE DUP2 JUMPDEST DUP1 ISZERO PUSH2 0x129D JUMPI PUSH2 0x1F30 DUP6 PUSH2 0x1EED PUSH1 0x1 DUP5 PUSH2 0x3EE2 JUMP JUMPDEST DUP2 MLOAD DUP2 LT PUSH2 0x1EFD JUMPI PUSH2 0x1EFD PUSH2 0x3F6F JUMP JUMPDEST PUSH1 0x20 MUL PUSH1 0x20 ADD ADD MLOAD DUP6 PUSH1 0x1 DUP5 PUSH2 0x1F13 SWAP2 SWAP1 PUSH2 0x3EE2 JUMP JUMPDEST DUP2 MLOAD DUP2 LT PUSH2 0x1F23 JUMPI PUSH2 0x1F23 PUSH2 0x3F6F JUMP JUMPDEST PUSH1 0x20 MUL PUSH1 0x20 ADD ADD MLOAD PUSH2 0x2DC3 JUMP JUMPDEST DUP1 PUSH2 0x1F3A DUP2 PUSH2 0x404A JUMP JUMPDEST SWAP2 POP POP PUSH2 0x1ED8 JUMP JUMPDEST PUSH1 0x0 PUSH2 0x95A DUP3 PUSH2 0x3322 JUMP JUMPDEST PUSH1 0x1 PUSH1 0xA SLOAD PUSH21 0x10000000000000000000000000000000000000000 SWAP1 DIV PUSH1 0xFF AND PUSH1 0x2 DUP2 GT ISZERO PUSH2 0x1F7E JUMPI PUSH2 0x1F7E PUSH2 0x3CD2 JUMP JUMPDEST EQ PUSH2 0x1FB5 JUMPI PUSH1 0x40 MLOAD PUSH32 0xA11AAD5B00000000000000000000000000000000000000000000000000000000 DUP2 MSTORE PUSH1 0x4 ADD PUSH1 0x40 MLOAD DUP1 SWAP2 SUB SWAP1 REVERT JUMPDEST CALLER DUP2 PUSH1 0x1 DUP1 PUSH1 0x0 PUSH2 0x1FC7 DUP6 DUP6 DUP6 PUSH2 0x2EBE JUMP JUMPDEST SWAP1 POP DUP2 DUP2 LT ISZERO PUSH2 0x2003 JUMPI PUSH1 0x40 MLOAD PUSH32 0xA432706200000000000000000000000000000000000000000000000000000000 DUP2 MSTORE PUSH1 0x4 ADD PUSH1 0x40 MLOAD DUP1 SWAP2 SUB SWAP1 REVERT JUMPDEST PUSH1 0xF SLOAD PUSH2 0x2030 SWAP1 PUSH32 0x0 PUSH2 0x3EE2 JUMP JUMPDEST PUSH1 0x3 SLOAD PUSH2 0x203E SWAP1 PUSH1 0x1 PUSH2 0x3ECA JUMP JUMPDEST GT ISZERO PUSH2 0x2076 JUMPI PUSH1 0x40 MLOAD PUSH32 0xC77894C000000000000000000000000000000000000000000000000000000000 DUP2 MSTORE PUSH1 0x4 ADD PUSH1 0x40 MLOAD DUP1 SWAP2 SUB SWAP1 REVERT JUMPDEST CALLVALUE PUSH32 0x0 EQ PUSH2 0x20CF JUMPI PUSH1 0x40 MLOAD PUSH32 0x225456A100000000000000000000000000000000000000000000000000000000 DUP2 MSTORE PUSH1 0x4 ADD PUSH1 0x40 MLOAD DUP1 SWAP2 SUB SWAP1 REVERT JUMPDEST CALLER PUSH1 0x0 DUP2 DUP2 MSTORE PUSH1 0xD PUSH1 0x20 MSTORE PUSH1 0x40 SWAP1 KECCAK256 DUP1 SLOAD PUSH1 0x1 SWAP1 DUP2 ADD SWAP1 SWAP2 SSTORE PUSH2 0x118C SWAP1 DUP3 SWAP1 PUSH2 0x2DC3 JUMP JUMPDEST PUSH1 0x60 PUSH1 0x1 DUP1 SLOAD PUSH2 0x96F SWAP1 PUSH2 0x3E4D JUMP JUMPDEST PUSH1 0x2 PUSH1 0xA SLOAD PUSH21 0x10000000000000000000000000000000000000000 SWAP1 DIV PUSH1 0xFF AND PUSH1 0x2 DUP2 GT ISZERO PUSH2 0x2133 JUMPI PUSH2 0x2133 PUSH2 0x3CD2 JUMP JUMPDEST EQ PUSH2 0x216A JUMPI PUSH1 0x40 MLOAD PUSH32 0x13CE6B3100000000000000000000000000000000000000000000000000000000 DUP2 MSTORE PUSH1 0x4 ADD PUSH1 0x40 MLOAD DUP1 SWAP2 SUB SWAP1 REVERT JUMPDEST PUSH32 0x0 DUP2 GT ISZERO PUSH2 0x21C4 JUMPI PUSH1 0x40 MLOAD PUSH32 0xB3CCAE9500000000000000000000000000000000000000000000000000000000 DUP2 MSTORE PUSH1 0x4 ADD PUSH1 0x40 MLOAD DUP1 SWAP2 SUB SWAP1 REVERT JUMPDEST PUSH1 0x0 DUP2 PUSH2 0x21D0 PUSH1 0x3 SLOAD SWAP1 JUMP JUMPDEST PUSH2 0x21DA SWAP2 SWAP1 PUSH2 0x3ECA JUMP JUMPDEST SWAP1 POP PUSH1 0xF SLOAD PUSH32 0x0 PUSH2 0x220A SWAP2 SWAP1 PUSH2 0x3EE2 JUMP JUMPDEST DUP2 GT ISZERO PUSH2 0x2243 JUMPI PUSH1 0x40 MLOAD PUSH32 0xC77894C000000000000000000000000000000000000000000000000000000000 DUP2 MSTORE PUSH1 0x4 ADD PUSH1 0x40 MLOAD DUP1 SWAP2 SUB SWAP1 REVERT JUMPDEST CALLVALUE PUSH2 0x226E PUSH32 0x0 DUP5 PUSH2 0x3F32 JUMP JUMPDEST EQ PUSH2 0x22A5 JUMPI PUSH1 0x40 MLOAD PUSH32 0x225456A100000000000000000000000000000000000000000000000000000000 DUP2 MSTORE PUSH1 0x4 ADD PUSH1 0x40 MLOAD DUP1 SWAP2 SUB SWAP1 REVERT JUMPDEST CALLER PUSH2 0x14D3 DUP2 DUP5 PUSH2 0x2DC3 JUMP JUMPDEST CALLER PUSH1 0x1 PUSH1 0x1 PUSH1 0xA0 SHL SUB DUP4 AND DUP2 EQ ISZERO PUSH2 0x22F4 JUMPI PUSH1 0x40 MLOAD PUSH32 0xB3C28F3900000000000000000000000000000000000000000000000000000000 DUP2 MSTORE PUSH1 0x4 ADD PUSH1 0x40 MLOAD DUP1 SWAP2 SUB SWAP1 REVERT JUMPDEST PUSH1 0x1 PUSH1 0x1 PUSH1 0xA0 SHL SUB DUP2 DUP2 AND PUSH1 0x0 DUP2 DUP2 MSTORE PUSH1 0x6 PUSH1 0x20 SWAP1 DUP2 MSTORE PUSH1 0x40 DUP1 DUP4 KECCAK256 SWAP5 DUP9 AND DUP1 DUP5 MSTORE SWAP5 DUP3 MSTORE SWAP2 DUP3 SWAP1 KECCAK256 DUP1 SLOAD PUSH32 0xFFFFFFFFFFFFFFFFFFFFFFFFFFFFFFFFFFFFFFFFFFFFFFFFFFFFFFFFFFFFFF00 AND DUP8 ISZERO ISZERO SWAP1 DUP2 OR SWAP1 SWAP2 SSTORE SWAP2 MLOAD SWAP2 DUP3 MSTORE PUSH32 0x17307EAB39AB6107E8899845AD3D59BD9653F200F220920489CA2B5937696C31 SWAP2 ADD PUSH1 0x40 MLOAD DUP1 SWAP2 SUB SWAP1 LOG3 POP POP POP JUMP JUMPDEST DUP1 PUSH2 0x238B DUP2 PUSH1 0x3 SLOAD GT SWAP1 JUMP JUMPDEST PUSH2 0x23C1 JUMPI PUSH1 0x40 MLOAD PUSH32 0x89A111E300000000000000000000000000000000000000000000000000000000 DUP2 MSTORE PUSH1 0x4 ADD PUSH1 0x40 MLOAD DUP1 SWAP2 SUB SWAP1 REVERT JUMPDEST CALLER PUSH1 0x0 PUSH2 0x23CD DUP5 PUSH2 0x293B JUMP JUMPDEST SWAP1 POP PUSH1 0x0 PUSH2 0x23DC DUP3 DUP5 DUP8 PUSH2 0x2992 JUMP JUMPDEST SWAP1 POP DUP1 PUSH2 0x2415 JUMPI PUSH1 0x40 MLOAD PUSH32 0xBDC31D1200000000000000000000000000000000000000000000000000000000 DUP2 MSTORE PUSH1 0x4 ADD PUSH1 0x40 MLOAD DUP1 SWAP2 SUB SWAP1 REVERT JUMPDEST PUSH2 0x129D DUP3 DUP7 PUSH2 0x3340 JUMP JUMPDEST CALLER PUSH2 0x2432 PUSH1 0xA SLOAD PUSH1 0x1 PUSH1 0x1 PUSH1 0xA0 SHL SUB AND SWAP1 JUMP JUMPDEST PUSH1 0x1 PUSH1 0x1 PUSH1 0xA0 SHL SUB AND EQ PUSH2 0x2472 JUMPI PUSH1 0x40 MLOAD PUSH32 0x1B09F9F00000000000000000000000000000000000000000000000000000000 DUP2 MSTORE PUSH1 0x4 ADD PUSH1 0x40 MLOAD DUP1 SWAP2 SUB SWAP1 REVERT JUMPDEST PUSH1 0xB DUP1 SLOAD PUSH1 0x1 DUP2 ADD DUP3 SSTORE PUSH1 0x0 SWAP2 SWAP1 SWAP2 MSTORE PUSH32 0x175B7A638427703F0DBE7BB9BBF987A2551717B34E79F33B5B1008D1FA01DB9 ADD DUP1 SLOAD PUSH32 0xFFFFFFFFFFFFFFFFFFFFFFFF0000000000000000000000000000000000000000 AND PUSH1 0x1 PUSH1 0x1 PUSH1 0xA0 SHL SUB DUP4 AND OR SWAP1 SSTORE POP JUMP JUMPDEST DUP3 PUSH2 0x24E4 DUP2 PUSH1 0x3 SLOAD GT SWAP1 JUMP JUMPDEST PUSH2 0x251A JUMPI PUSH1 0x40 MLOAD PUSH32 0x89A111E300000000000000000000000000000000000000000000000000000000 DUP2 MSTORE PUSH1 0x4 ADD PUSH1 0x40 MLOAD DUP1 SWAP2 SUB SWAP1 REVERT JUMPDEST CALLER PUSH1 0x0 PUSH2 0x2526 DUP7 PUSH2 0x293B JUMP JUMPDEST SWAP1 POP PUSH1 0x0 PUSH2 0x2535 DUP3 DUP5 DUP10 PUSH2 0x2992 JUMP JUMPDEST SWAP1 POP DUP1 PUSH2 0x256E JUMPI PUSH1 0x40 MLOAD PUSH32 0xBDC31D1200000000000000000000000000000000000000000000000000000000 DUP2 MSTORE PUSH1 0x4 ADD PUSH1 0x40 MLOAD DUP1 SWAP2 SUB SWAP1 REVERT JUMPDEST PUSH1 0x1 PUSH1 0x1 PUSH1 0xA0 SHL SUB DUP9 AND PUSH2 0x25AE JUMPI PUSH1 0x40 MLOAD PUSH32 0xD563B6A600000000000000000000000000000000000000000000000000000000 DUP2 MSTORE PUSH1 0x4 ADD PUSH1 0x40 MLOAD DUP1 SWAP2 SUB SWAP1 REVERT JUMPDEST PUSH2 0x25B9 DUP3 DUP10 DUP10 PUSH2 0x2A2E JUMP JUMPDEST PUSH2 0x25FB DUP3 DUP10 DUP10 DUP10 DUP10 DUP1 DUP1 PUSH1 0x1F ADD PUSH1 0x20 DUP1 SWAP2 DIV MUL PUSH1 0x20 ADD PUSH1 0x40 MLOAD SWAP1 DUP2 ADD PUSH1 0x40 MSTORE DUP1 SWAP4 SWAP3 SWAP2 SWAP1 DUP2 DUP2 MSTORE PUSH1 0x20 ADD DUP4 DUP4 DUP1 DUP3 DUP5 CALLDATACOPY PUSH1 0x0 SWAP3 ADD SWAP2 SWAP1 SWAP2 MSTORE POP PUSH2 0x3075 SWAP3 POP POP POP JUMP JUMPDEST PUSH2 0x2631 JUMPI PUSH1 0x40 MLOAD PUSH32 0x71FBFCA300000000000000000000000000000000000000000000000000000000 DUP2 MSTORE PUSH1 0x4 ADD PUSH1 0x40 MLOAD DUP1 SWAP2 SUB SWAP1 REVERT JUMPDEST POP POP POP POP POP POP POP POP POP JUMP JUMPDEST PUSH1 0x60 DUP2 PUSH2 0x264A DUP2 PUSH1 0x3 SLOAD GT SWAP1 JUMP JUMPDEST PUSH2 0x2680 JUMPI PUSH1 0x40 MLOAD PUSH32 0x89A111E300000000000000000000000000000000000000000000000000000000 DUP2 MSTORE PUSH1 0x4 ADD PUSH1 0x40 MLOAD DUP1 SWAP2 SUB SWAP1 REVERT JUMPDEST PUSH1 0x0 PUSH1 0x2 DUP1 SLOAD PUSH2 0x268F SWAP1 PUSH2 0x3E4D JUMP JUMPDEST SWAP1 POP GT PUSH2 0x26A4 JUMPI PUSH2 0x269F DUP4 PUSH2 0x338A JUMP JUMPDEST PUSH2 0x1D04 JUMP JUMPDEST PUSH1 0x2 PUSH2 0x26AF DUP5 PUSH2 0x338A JUMP JUMPDEST PUSH1 0x40 MLOAD PUSH1 0x20 ADD PUSH2 0x26C0 SWAP3 SWAP2 SWAP1 PUSH2 0x409B JUMP JUMPDEST PUSH1 0x40 MLOAD PUSH1 0x20 DUP2 DUP4 SUB SUB DUP2 MSTORE SWAP1 PUSH1 0x40 MSTORE SWAP2 POP POP SWAP2 SWAP1 POP JUMP JUMPDEST CALLER PUSH2 0x26EA PUSH1 0xA SLOAD PUSH1 0x1 PUSH1 0x1 PUSH1 0xA0 SHL SUB AND SWAP1 JUMP JUMPDEST PUSH1 0x1 PUSH1 0x1 PUSH1 0xA0 SHL SUB AND EQ PUSH2 0x272A JUMPI PUSH1 0x40 MLOAD PUSH32 0x1B09F9F00000000000000000000000000000000000000000000000000000000 DUP2 MSTORE PUSH1 0x4 ADD PUSH1 0x40 MLOAD DUP1 SWAP2 SUB SWAP1 REVERT JUMPDEST PUSH2 0x2734 DUP3 DUP3 PUSH2 0x34BC JUMP JUMPDEST POP POP JUMP JUMPDEST PUSH1 0x0 PUSH2 0x1D04 DUP4 DUP4 PUSH2 0x3535 JUMP JUMPDEST CALLER PUSH2 0x2757 PUSH1 0xA SLOAD PUSH1 0x1 PUSH1 0x1 PUSH1 0xA0 SHL SUB AND SWAP1 JUMP JUMPDEST PUSH1 0x1 PUSH1 0x1 PUSH1 0xA0 SHL SUB AND EQ PUSH2 0x2797 JUMPI PUSH1 0x40 MLOAD PUSH32 0x1B09F9F00000000000000000000000000000000000000000000000000000000 DUP2 MSTORE PUSH1 0x4 ADD PUSH1 0x40 MLOAD DUP1 SWAP2 SUB SWAP1 REVERT JUMPDEST PUSH1 0xA DUP1 SLOAD PUSH1 0x1 PUSH1 0x1 PUSH1 0xA0 SHL SUB DUP4 DUP2 AND PUSH32 0xFFFFFFFFFFFFFFFFFFFFFFFF0000000000000000000000000000000000000000 DUP4 AND DUP2 OR SWAP1 SWAP4 SSTORE PUSH1 0x40 MLOAD SWAP2 AND SWAP2 SWAP1 DUP3 SWAP1 PUSH32 0x8BE0079C531659141344CD1FD0A4F28419497F9722A3DAAFE3B4186F6B6457E0 SWAP1 PUSH1 0x0 SWAP1 LOG3 POP POP JUMP JUMPDEST PUSH1 0x0 PUSH32 0xFFFFFFFF00000000000000000000000000000000000000000000000000000000 DUP3 AND PUSH32 0x5B5E139F00000000000000000000000000000000000000000000000000000000 EQ DUP1 PUSH2 0x2894 JUMPI POP PUSH32 0xFFFFFFFF00000000000000000000000000000000000000000000000000000000 DUP3 AND PUSH32 0x80AC58CD00000000000000000000000000000000000000000000000000000000 EQ JUMPDEST DUP1 PUSH2 0x95A JUMPI POP PUSH32 0xFFFFFFFF00000000000000000000000000000000000000000000000000000000 DUP3 AND PUSH32 0x1FFC9A700000000000000000000000000000000000000000000000000000000 EQ SWAP3 SWAP2 POP POP JUMP JUMPDEST PUSH1 0x0 PUSH32 0xFFFFFFFF00000000000000000000000000000000000000000000000000000000 DUP3 AND PUSH32 0x780E9D6300000000000000000000000000000000000000000000000000000000 EQ DUP1 PUSH2 0x95A JUMPI POP PUSH2 0x95A DUP3 PUSH2 0x2801 JUMP JUMPDEST PUSH1 0x0 DUP2 DUP2 MSTORE PUSH1 0x4 PUSH1 0x20 MSTORE PUSH1 0x40 DUP2 KECCAK256 SLOAD DUP3 SWAP1 PUSH1 0x1 PUSH1 0x1 PUSH1 0xA0 SHL SUB AND JUMPDEST PUSH1 0x1 PUSH1 0x1 PUSH1 0xA0 SHL SUB DUP2 AND PUSH2 0x1D04 JUMPI DUP2 PUSH2 0x296E DUP2 PUSH2 0x404A JUMP JUMPDEST PUSH1 0x0 DUP2 DUP2 MSTORE PUSH1 0x4 PUSH1 0x20 MSTORE PUSH1 0x40 SWAP1 KECCAK256 SLOAD SWAP1 SWAP4 POP PUSH1 0x1 PUSH1 0x1 PUSH1 0xA0 SHL SUB AND SWAP2 POP PUSH2 0x2956 SWAP1 POP JUMP JUMPDEST PUSH1 0x0 DUP1 DUP5 PUSH1 0x1 PUSH1 0x1 PUSH1 0xA0 SHL SUB AND DUP5 PUSH1 0x1 PUSH1 0x1 PUSH1 0xA0 SHL SUB AND EQ DUP1 PUSH2 0x29CE JUMPI POP PUSH1 0x0 DUP4 DUP2 MSTORE PUSH1 0x5 PUSH1 0x20 MSTORE PUSH1 0x40 SWAP1 KECCAK256 SLOAD PUSH1 0x1 PUSH1 0x1 PUSH1 0xA0 SHL SUB DUP6 DUP2 AND SWAP2 AND EQ JUMPDEST DUP1 PUSH2 0x29DE JUMPI POP PUSH2 0x29DE DUP6 DUP6 PUSH2 0x3535 JUMP JUMPDEST SWAP6 SWAP5 POP POP POP POP POP JUMP JUMPDEST PUSH1 0x0 DUP2 DUP4 DUP2 GT ISZERO PUSH2 0x29F9 JUMPI POP DUP3 PUSH2 0x2A0E JUMP JUMPDEST DUP4 DUP4 LT ISZERO PUSH2 0x2A0E JUMPI PUSH2 0x2A0B DUP4 DUP6 PUSH2 0x3EE2 JUMP JUMPDEST SWAP2 POP JUMPDEST DUP1 ISZERO PUSH2 0x2A1E JUMPI PUSH2 0x2A1E DUP6 DUP3 PUSH2 0x3575 JUMP JUMPDEST DUP2 ISZERO PUSH2 0x129D JUMPI PUSH2 0x129D DUP6 DUP4 PUSH2 0x2DC3 JUMP JUMPDEST PUSH1 0x0 DUP2 DUP2 MSTORE PUSH1 0x5 PUSH1 0x20 MSTORE PUSH1 0x40 DUP2 KECCAK256 DUP1 SLOAD PUSH32 0xFFFFFFFFFFFFFFFFFFFFFFFF0000000000000000000000000000000000000000 AND SWAP1 SSTORE DUP2 PUSH2 0x2A6E JUMPI PUSH1 0x0 PUSH2 0x2A79 JUMP JUMPDEST PUSH2 0x2A79 PUSH1 0x1 DUP4 PUSH2 0x3EE2 JUMP JUMPDEST SWAP1 POP PUSH1 0x0 PUSH2 0x2A88 DUP4 PUSH1 0x1 PUSH2 0x3ECA JUMP JUMPDEST SWAP1 POP PUSH1 0x0 DUP4 DUP4 LT DUP1 ISZERO PUSH2 0x2AA1 JUMPI POP PUSH2 0x2AA1 DUP4 PUSH1 0x3 SLOAD GT SWAP1 JUMP JUMPDEST DUP1 ISZERO PUSH2 0x2AC2 JUMPI POP PUSH1 0x0 DUP4 DUP2 MSTORE PUSH1 0x4 PUSH1 0x20 MSTORE PUSH1 0x40 SWAP1 KECCAK256 SLOAD PUSH1 0x1 PUSH1 0x1 PUSH1 0xA0 SHL SUB AND ISZERO JUMPDEST SWAP1 POP PUSH1 0x0 PUSH2 0x2AD1 DUP4 PUSH1 0x3 SLOAD GT SWAP1 JUMP JUMPDEST DUP1 ISZERO PUSH2 0x2AF2 JUMPI POP PUSH1 0x0 DUP4 DUP2 MSTORE PUSH1 0x4 PUSH1 0x20 MSTORE PUSH1 0x40 SWAP1 KECCAK256 SLOAD PUSH1 0x1 PUSH1 0x1 PUSH1 0xA0 SHL SUB AND ISZERO JUMPDEST SWAP1 POP DUP2 ISZERO PUSH2 0x2B3A JUMPI PUSH1 0x0 DUP5 DUP2 MSTORE PUSH1 0x4 PUSH1 0x20 MSTORE PUSH1 0x40 SWAP1 KECCAK256 DUP1 SLOAD PUSH32 0xFFFFFFFFFFFFFFFFFFFFFFFF0000000000000000000000000000000000000000 AND PUSH1 0x1 PUSH1 0x1 PUSH1 0xA0 SHL SUB DUP10 AND OR SWAP1 SSTORE JUMPDEST DUP1 ISZERO PUSH2 0x2B80 JUMPI PUSH1 0x0 DUP4 DUP2 MSTORE PUSH1 0x4 PUSH1 0x20 MSTORE PUSH1 0x40 SWAP1 KECCAK256 DUP1 SLOAD PUSH32 0xFFFFFFFFFFFFFFFFFFFFFFFF0000000000000000000000000000000000000000 AND PUSH1 0x1 PUSH1 0x1 PUSH1 0xA0 SHL SUB DUP10 AND OR SWAP1 SSTORE JUMPDEST PUSH1 0x0 DUP6 DUP2 MSTORE PUSH1 0x4 PUSH1 0x20 MSTORE PUSH1 0x40 DUP1 DUP3 KECCAK256 DUP1 SLOAD PUSH32 0xFFFFFFFFFFFFFFFFFFFFFFFF0000000000000000000000000000000000000000 AND PUSH1 0x1 PUSH1 0x1 PUSH1 0xA0 SHL SUB DUP11 DUP2 AND SWAP2 DUP3 OR SWAP1 SWAP3 SSTORE SWAP2 MLOAD DUP9 SWAP4 SWAP2 DUP12 AND SWAP2 PUSH32 0xDDF252AD1BE2C89B69C2B068FC378DAA952BA7F163C4A11628F55A4DF523B3EF SWAP2 LOG4 POP POP POP POP POP POP POP JUMP JUMPDEST PUSH1 0x0 DUP1 DUP3 ISZERO DUP1 PUSH2 0x2C08 JUMPI POP PUSH1 0x8 SLOAD ISZERO JUMPDEST ISZERO PUSH2 0x2C22 JUMPI POP POP PUSH1 0x9 SLOAD PUSH1 0x1 PUSH1 0x1 PUSH1 0xA0 SHL SUB AND PUSH1 0x0 PUSH2 0x2C51 JUMP JUMPDEST PUSH1 0x0 PUSH2 0x2710 DUP5 PUSH1 0x8 SLOAD PUSH2 0x2C35 SWAP2 SWAP1 PUSH2 0x3F32 JUMP JUMPDEST PUSH2 0x2C3F SWAP2 SWAP1 PUSH2 0x3FCD JUMP JUMPDEST PUSH1 0x9 SLOAD PUSH1 0x1 PUSH1 0x1 PUSH1 0xA0 SHL SUB AND SWAP4 POP SWAP2 POP POP JUMPDEST SWAP3 POP SWAP3 SWAP1 POP JUMP JUMPDEST PUSH2 0x2C63 ADDRESS DUP4 DUP4 PUSH2 0x2A2E JUMP JUMPDEST PUSH1 0x0 SWAP1 DUP2 MSTORE PUSH1 0x7 PUSH1 0x20 MSTORE PUSH1 0x40 SWAP1 KECCAK256 DUP1 SLOAD PUSH32 0xFFFFFFFFFFFFFFFFFFFFFFFF0000000000000000000000000000000000000000 AND SWAP1 SSTORE POP JUMP JUMPDEST PUSH1 0x0 PUSH1 0x1 PUSH1 0x1 PUSH1 0xA0 SHL SUB DUP3 AND PUSH2 0x2CB2 JUMPI POP PUSH1 0x0 SWAP2 SWAP1 POP JUMP JUMPDEST PUSH1 0x0 PUSH2 0x2CBD PUSH1 0x3 SLOAD SWAP1 JUMP JUMPDEST SWAP1 POP PUSH1 0x0 DUP1 DUP1 JUMPDEST DUP4 DUP2 LT ISZERO PUSH2 0x2D3E JUMPI PUSH1 0x0 DUP2 DUP2 MSTORE PUSH1 0x4 PUSH1 0x20 MSTORE PUSH1 0x40 SWAP1 KECCAK256 SLOAD PUSH1 0x1 PUSH1 0x1 PUSH1 0xA0 SHL SUB AND ISZERO PUSH2 0x2D04 JUMPI PUSH1 0x0 DUP2 DUP2 MSTORE PUSH1 0x4 PUSH1 0x20 MSTORE PUSH1 0x40 SWAP1 KECCAK256 SLOAD PUSH1 0x1 PUSH1 0x1 PUSH1 0xA0 SHL SUB AND SWAP2 POP JUMPDEST DUP2 PUSH1 0x1 PUSH1 0x1 PUSH1 0xA0 SHL SUB AND DUP7 PUSH1 0x1 PUSH1 0x1 PUSH1 0xA0 SHL SUB AND EQ ISZERO PUSH2 0x2D2C JUMPI DUP3 PUSH2 0x2D28 DUP2 PUSH2 0x3EF9 JUMP JUMPDEST SWAP4 POP POP JUMPDEST DUP1 PUSH2 0x2D36 DUP2 PUSH2 0x3EF9 JUMP JUMPDEST SWAP2 POP POP PUSH2 0x2CC4 JUMP JUMPDEST POP SWAP1 SWAP5 SWAP4 POP POP POP POP JUMP JUMPDEST PUSH1 0x0 PUSH1 0x1 PUSH1 0x1 PUSH1 0xA0 SHL SUB DUP3 AND PUSH2 0x2D60 JUMPI POP PUSH1 0x0 SWAP2 SWAP1 POP JUMP JUMPDEST PUSH1 0x0 PUSH2 0x2D6B PUSH1 0x3 SLOAD SWAP1 JUMP JUMPDEST SWAP1 POP PUSH1 0x0 DUP1 JUMPDEST DUP3 DUP2 LT ISZERO PUSH2 0x2DBB JUMPI PUSH1 0x0 DUP2 DUP2 MSTORE PUSH1 0x7 PUSH1 0x20 MSTORE PUSH1 0x40 SWAP1 KECCAK256 SLOAD PUSH1 0x1 PUSH1 0x1 PUSH1 0xA0 SHL SUB DUP7 DUP2 AND SWAP2 AND EQ ISZERO PUSH2 0x2DA9 JUMPI DUP2 PUSH2 0x2DA5 DUP2 PUSH2 0x3EF9 JUMP JUMPDEST SWAP3 POP POP JUMPDEST DUP1 PUSH2 0x2DB3 DUP2 PUSH2 0x3EF9 JUMP JUMPDEST SWAP2 POP POP PUSH2 0x2D71 JUMP JUMPDEST POP SWAP4 SWAP3 POP POP POP JUMP JUMPDEST PUSH1 0x3 SLOAD PUSH1 0x0 PUSH1 0x1 PUSH2 0x2DD4 DUP5 DUP5 PUSH2 0x3ECA JUMP JUMPDEST PUSH2 0x2DDE SWAP2 SWAP1 PUSH2 0x3EE2 JUMP JUMPDEST PUSH1 0x0 DUP4 DUP2 MSTORE PUSH1 0x4 PUSH1 0x20 MSTORE PUSH1 0x40 SWAP1 KECCAK256 DUP1 SLOAD PUSH32 0xFFFFFFFFFFFFFFFFFFFFFFFF0000000000000000000000000000000000000000 AND PUSH1 0x1 PUSH1 0x1 PUSH1 0xA0 SHL SUB DUP8 AND OR SWAP1 SSTORE SWAP1 POP DUP2 DUP2 GT ISZERO PUSH2 0x2E67 JUMPI PUSH1 0x0 DUP2 DUP2 MSTORE PUSH1 0x4 PUSH1 0x20 MSTORE PUSH1 0x40 SWAP1 KECCAK256 DUP1 SLOAD PUSH32 0xFFFFFFFFFFFFFFFFFFFFFFFF0000000000000000000000000000000000000000 AND PUSH1 0x1 PUSH1 0x1 PUSH1 0xA0 SHL SUB DUP7 AND OR SWAP1 SSTORE JUMPDEST PUSH1 0x40 MLOAD PUSH1 0x0 DUP2 MSTORE PUSH1 0x1 PUSH1 0x1 PUSH1 0xA0 SHL SUB DUP6 AND SWAP1 DUP3 SWAP1 DUP5 SWAP1 PUSH32 0xDEAA91B6123D068F5821D0FB0678463D1A8A6079FE8AF5DE3CE5E896DCF9133D SWAP1 PUSH1 0x20 ADD PUSH1 0x40 MLOAD DUP1 SWAP2 SUB SWAP1 LOG4 PUSH2 0x2EB5 DUP2 PUSH1 0x1 PUSH2 0x3ECA JUMP JUMPDEST PUSH1 0x3 SSTORE POP POP POP POP JUMP JUMPDEST PUSH1 0xC SLOAD PUSH1 0x0 SWAP1 PUSH2 0x2EFA JUMPI PUSH1 0x40 MLOAD PUSH32 0xC71BAD4D00000000000000000000000000000000000000000000000000000000 DUP2 MSTORE PUSH1 0x4 ADD PUSH1 0x40 MLOAD DUP1 SWAP2 SUB SWAP1 REVERT JUMPDEST PUSH1 0x1 PUSH1 0x1 PUSH1 0xA0 SHL SUB DUP5 AND PUSH1 0x0 SWAP1 DUP2 MSTORE PUSH1 0xD PUSH1 0x20 MSTORE PUSH1 0x40 SWAP1 KECCAK256 SLOAD DUP3 GT PUSH2 0x2F4B JUMPI PUSH1 0x40 MLOAD PUSH32 0xDE33971400000000000000000000000000000000000000000000000000000000 DUP2 MSTORE PUSH1 0x4 ADD PUSH1 0x40 MLOAD DUP1 SWAP2 SUB SWAP1 REVERT JUMPDEST PUSH2 0x2F55 DUP5 DUP5 PUSH2 0x35FF JUMP JUMPDEST PUSH2 0x2F8B JUMPI PUSH1 0x40 MLOAD PUSH32 0xA432706200000000000000000000000000000000000000000000000000000000 DUP2 MSTORE PUSH1 0x4 ADD PUSH1 0x40 MLOAD DUP1 SWAP2 SUB SWAP1 REVERT JUMPDEST POP PUSH1 0x1 PUSH1 0x1 PUSH1 0xA0 SHL SUB DUP4 AND PUSH1 0x0 SWAP1 DUP2 MSTORE PUSH1 0xD PUSH1 0x20 MSTORE PUSH1 0x40 SWAP1 KECCAK256 SLOAD DUP2 SUB SWAP4 SWAP3 POP POP POP JUMP JUMPDEST DUP1 SELFBALANCE LT ISZERO PUSH2 0x2FE8 JUMPI PUSH1 0x40 MLOAD PUSH32 0x225456A100000000000000000000000000000000000000000000000000000000 DUP2 MSTORE PUSH1 0x4 ADD PUSH1 0x40 MLOAD DUP1 SWAP2 SUB SWAP1 REVERT JUMPDEST PUSH1 0x0 DUP3 PUSH1 0x1 PUSH1 0x1 PUSH1 0xA0 SHL SUB AND DUP3 PUSH1 0x40 MLOAD PUSH1 0x0 PUSH1 0x40 MLOAD DUP1 DUP4 SUB DUP2 DUP6 DUP8 GAS CALL SWAP3 POP POP POP RETURNDATASIZE DUP1 PUSH1 0x0 DUP2 EQ PUSH2 0x3035 JUMPI PUSH1 0x40 MLOAD SWAP2 POP PUSH1 0x1F NOT PUSH1 0x3F RETURNDATASIZE ADD AND DUP3 ADD PUSH1 0x40 MSTORE RETURNDATASIZE DUP3 MSTORE RETURNDATASIZE PUSH1 0x0 PUSH1 0x20 DUP5 ADD RETURNDATACOPY PUSH2 0x303A JUMP JUMPDEST PUSH1 0x60 SWAP2 POP JUMPDEST POP POP SWAP1 POP DUP1 PUSH2 0x14D3 JUMPI PUSH1 0x40 MLOAD PUSH32 0xF12332F300000000000000000000000000000000000000000000000000000000 DUP2 MSTORE PUSH1 0x4 ADD PUSH1 0x40 MLOAD DUP1 SWAP2 SUB SWAP1 REVERT JUMPDEST PUSH1 0x0 DUP4 EXTCODESIZE DUP1 ISZERO PUSH2 0x31E4 JUMPI PUSH1 0x40 MLOAD PUSH32 0x150B7A0200000000000000000000000000000000000000000000000000000000 DUP2 MSTORE PUSH1 0x1 PUSH1 0x1 PUSH1 0xA0 SHL SUB DUP7 AND SWAP1 PUSH4 0x150B7A02 SWAP1 PUSH2 0x30CA SWAP1 CALLER SWAP1 DUP11 SWAP1 DUP10 SWAP1 DUP10 SWAP1 PUSH1 0x4 ADD PUSH2 0x4170 JUMP JUMPDEST PUSH1 0x20 PUSH1 0x40 MLOAD DUP1 DUP4 SUB DUP2 PUSH1 0x0 DUP8 GAS CALL SWAP3 POP POP POP DUP1 ISZERO PUSH2 0x3123 JUMPI POP PUSH1 0x40 DUP1 MLOAD PUSH1 0x1F RETURNDATASIZE SWAP1 DUP2 ADD PUSH32 0xFFFFFFFFFFFFFFFFFFFFFFFFFFFFFFFFFFFFFFFFFFFFFFFFFFFFFFFFFFFFFFE0 AND DUP3 ADD SWAP1 SWAP3 MSTORE PUSH2 0x3120 SWAP2 DUP2 ADD SWAP1 PUSH2 0x41AC JUMP JUMPDEST PUSH1 0x1 JUMPDEST PUSH2 0x3197 JUMPI RETURNDATASIZE DUP1 DUP1 ISZERO PUSH2 0x3151 JUMPI PUSH1 0x40 MLOAD SWAP2 POP PUSH1 0x1F NOT PUSH1 0x3F RETURNDATASIZE ADD AND DUP3 ADD PUSH1 0x40 MSTORE RETURNDATASIZE DUP3 MSTORE RETURNDATASIZE PUSH1 0x0 PUSH1 0x20 DUP5 ADD RETURNDATACOPY PUSH2 0x3156 JUMP JUMPDEST PUSH1 0x60 SWAP2 POP JUMPDEST POP DUP1 MLOAD PUSH2 0x318F JUMPI PUSH1 0x40 MLOAD PUSH32 0x71FBFCA300000000000000000000000000000000000000000000000000000000 DUP2 MSTORE PUSH1 0x4 ADD PUSH1 0x40 MLOAD DUP1 SWAP2 SUB SWAP1 REVERT JUMPDEST DUP1 MLOAD DUP2 PUSH1 0x20 ADD REVERT JUMPDEST PUSH32 0xFFFFFFFF00000000000000000000000000000000000000000000000000000000 AND PUSH32 0x150B7A0200000000000000000000000000000000000000000000000000000000 EQ SWAP2 POP PUSH2 0xD32 SWAP1 POP JUMP JUMPDEST PUSH1 0x1 SWAP2 POP POP PUSH2 0xD32 JUMP JUMPDEST PUSH1 0xA DUP1 SLOAD PUSH21 0x10000000000000000000000000000000000000000 DUP1 DUP3 DIV PUSH1 0xFF AND SWAP3 DUP5 SWAP3 SWAP1 SWAP2 PUSH32 0xFFFFFFFFFFFFFFFFFFFFFF00FFFFFFFFFFFFFFFFFFFFFFFFFFFFFFFFFFFFFFFF SWAP1 SWAP2 AND SWAP1 DUP4 PUSH1 0x2 DUP2 GT ISZERO PUSH2 0x324A JUMPI PUSH2 0x324A PUSH2 0x3CD2 JUMP JUMPDEST MUL OR SWAP1 SSTORE POP DUP2 PUSH1 0x2 DUP2 GT ISZERO PUSH2 0x3261 JUMPI PUSH2 0x3261 PUSH2 0x3CD2 JUMP JUMPDEST DUP2 PUSH1 0x2 DUP2 GT ISZERO PUSH2 0x3273 JUMPI PUSH2 0x3273 PUSH2 0x3CD2 JUMP JUMPDEST PUSH1 0x40 MLOAD PUSH32 0xE2034A7BF30BB7C637EE4FD008478210B21708C5C7177151827A49A6877A020D SWAP1 PUSH1 0x0 SWAP1 LOG3 POP POP JUMP JUMPDEST PUSH1 0x0 DUP2 PUSH2 0x32AE DUP2 PUSH1 0x3 SLOAD GT SWAP1 JUMP JUMPDEST PUSH2 0x32E4 JUMPI PUSH1 0x40 MLOAD PUSH32 0x89A111E300000000000000000000000000000000000000000000000000000000 DUP2 MSTORE PUSH1 0x4 ADD PUSH1 0x40 MLOAD DUP1 SWAP2 SUB SWAP1 REVERT JUMPDEST PUSH1 0x0 PUSH2 0x32EF DUP5 PUSH2 0x293B JUMP JUMPDEST SWAP1 POP PUSH1 0x1 PUSH1 0x1 PUSH1 0xA0 SHL SUB DUP2 AND ADDRESS EQ ISZERO PUSH2 0x1D04 JUMPI PUSH1 0x0 DUP5 DUP2 MSTORE PUSH1 0x7 PUSH1 0x20 MSTORE PUSH1 0x40 SWAP1 KECCAK256 SLOAD PUSH1 0x1 PUSH1 0x1 PUSH1 0xA0 SHL SUB AND SWAP3 POP POP PUSH2 0xA51 JUMP JUMPDEST PUSH1 0x0 PUSH2 0x332D DUP3 PUSH2 0x2C9A JUMP JUMPDEST PUSH2 0x3336 DUP4 PUSH2 0x2D48 JUMP JUMPDEST PUSH2 0x95A SWAP2 SWAP1 PUSH2 0x3ECA JUMP JUMPDEST PUSH1 0x0 DUP2 DUP2 MSTORE PUSH1 0x7 PUSH1 0x20 MSTORE PUSH1 0x40 SWAP1 KECCAK256 DUP1 SLOAD PUSH32 0xFFFFFFFFFFFFFFFFFFFFFFFF0000000000000000000000000000000000000000 AND PUSH1 0x1 PUSH1 0x1 PUSH1 0xA0 SHL SUB DUP5 AND OR SWAP1 SSTORE PUSH2 0x2734 DUP3 ADDRESS DUP4 PUSH2 0x2A2E JUMP JUMPDEST PUSH1 0x60 DUP2 PUSH2 0x33CA JUMPI POP POP PUSH1 0x40 DUP1 MLOAD DUP1 DUP3 ADD SWAP1 SWAP2 MSTORE PUSH1 0x1 DUP2 MSTORE PUSH32 0x3000000000000000000000000000000000000000000000000000000000000000 PUSH1 0x20 DUP3 ADD MSTORE SWAP1 JUMP JUMPDEST DUP2 PUSH1 0x0 JUMPDEST DUP2 ISZERO PUSH2 0x33F4 JUMPI DUP1 PUSH2 0x33DE DUP2 PUSH2 0x3EF9 JUMP JUMPDEST SWAP2 POP PUSH2 0x33ED SWAP1 POP PUSH1 0xA DUP4 PUSH2 0x3FCD JUMP JUMPDEST SWAP2 POP PUSH2 0x33CE JUMP JUMPDEST PUSH1 0x0 DUP2 PUSH8 0xFFFFFFFFFFFFFFFF DUP2 GT ISZERO PUSH2 0x340F JUMPI PUSH2 0x340F PUSH2 0x3911 JUMP JUMPDEST PUSH1 0x40 MLOAD SWAP1 DUP1 DUP3 MSTORE DUP1 PUSH1 0x1F ADD PUSH1 0x1F NOT AND PUSH1 0x20 ADD DUP3 ADD PUSH1 0x40 MSTORE DUP1 ISZERO PUSH2 0x3439 JUMPI PUSH1 0x20 DUP3 ADD DUP2 DUP1 CALLDATASIZE DUP4 CALLDATACOPY ADD SWAP1 POP JUMPDEST POP SWAP1 POP JUMPDEST DUP5 ISZERO PUSH2 0xD32 JUMPI PUSH2 0x344E PUSH1 0x1 DUP4 PUSH2 0x3EE2 JUMP JUMPDEST SWAP2 POP PUSH2 0x345B PUSH1 0xA DUP7 PUSH2 0x41C9 JUMP JUMPDEST PUSH2 0x3466 SWAP1 PUSH1 0x30 PUSH2 0x3ECA JUMP JUMPDEST PUSH1 0xF8 SHL DUP2 DUP4 DUP2 MLOAD DUP2 LT PUSH2 0x347B JUMPI PUSH2 0x347B PUSH2 0x3F6F JUMP JUMPDEST PUSH1 0x20 ADD ADD SWAP1 PUSH31 0xFFFFFFFFFFFFFFFFFFFFFFFFFFFFFFFFFFFFFFFFFFFFFFFFFFFFFFFFFFFFFF NOT AND SWAP1 DUP2 PUSH1 0x0 BYTE SWAP1 MSTORE8 POP PUSH2 0x34B5 PUSH1 0xA DUP7 PUSH2 0x3FCD JUMP JUMPDEST SWAP5 POP PUSH2 0x343D JUMP JUMPDEST PUSH2 0x2710 DUP2 GT ISZERO PUSH2 0x34F8 JUMPI PUSH1 0x40 MLOAD PUSH32 0xB6EB28CA00000000000000000000000000000000000000000000000000000000 DUP2 MSTORE PUSH1 0x4 ADD PUSH1 0x40 MLOAD DUP1 SWAP2 SUB SWAP1 REVERT JUMPDEST PUSH1 0x8 SSTORE PUSH1 0x9 DUP1 SLOAD PUSH32 0xFFFFFFFFFFFFFFFFFFFFFFFF0000000000000000000000000000000000000000 AND PUSH1 0x1 PUSH1 0x1 PUSH1 0xA0 SHL SUB SWAP3 SWAP1 SWAP3 AND SWAP2 SWAP1 SWAP2 OR SWAP1 SSTORE JUMP JUMPDEST PUSH1 0x0 PUSH2 0x3541 DUP4 DUP4 PUSH2 0x3664 JUMP JUMPDEST DUP1 PUSH2 0x1D04 JUMPI POP PUSH1 0x1 PUSH1 0x1 PUSH1 0xA0 SHL SUB DUP1 DUP5 AND PUSH1 0x0 SWAP1 DUP2 MSTORE PUSH1 0x6 PUSH1 0x20 SWAP1 DUP2 MSTORE PUSH1 0x40 DUP1 DUP4 KECCAK256 SWAP4 DUP7 AND DUP4 MSTORE SWAP3 SWAP1 MSTORE KECCAK256 SLOAD PUSH1 0xFF AND PUSH2 0x1D04 JUMP JUMPDEST PUSH1 0x0 PUSH2 0x3580 PUSH1 0x3 SLOAD SWAP1 JUMP JUMPDEST SWAP1 POP PUSH1 0x0 PUSH1 0x1 PUSH2 0x3590 DUP5 DUP5 PUSH2 0x3ECA JUMP JUMPDEST PUSH2 0x359A SWAP2 SWAP1 PUSH2 0x3EE2 JUMP JUMPDEST SWAP1 POP JUMPDEST DUP1 DUP3 GT PUSH2 0x35F5 JUMPI PUSH1 0x0 DUP3 DUP2 MSTORE PUSH1 0x7 PUSH1 0x20 MSTORE PUSH1 0x40 SWAP1 KECCAK256 DUP1 SLOAD PUSH32 0xFFFFFFFFFFFFFFFFFFFFFFFF0000000000000000000000000000000000000000 AND PUSH1 0x1 PUSH1 0x1 PUSH1 0xA0 SHL SUB DUP7 AND OR SWAP1 SSTORE DUP2 PUSH2 0x35ED DUP2 PUSH2 0x3EF9 JUMP JUMPDEST SWAP3 POP POP PUSH2 0x359D JUMP JUMPDEST PUSH2 0xD0A ADDRESS DUP5 PUSH2 0x2DC3 JUMP JUMPDEST PUSH1 0x40 MLOAD PUSH32 0xFFFFFFFFFFFFFFFFFFFFFFFFFFFFFFFFFFFFFFFF000000000000000000000000 PUSH1 0x60 DUP5 SWAP1 SHL AND PUSH1 0x20 DUP3 ADD MSTORE PUSH1 0x0 SWAP1 DUP2 SWAP1 PUSH1 0x34 ADD PUSH1 0x40 MLOAD PUSH1 0x20 DUP2 DUP4 SUB SUB DUP2 MSTORE SWAP1 PUSH1 0x40 MSTORE DUP1 MLOAD SWAP1 PUSH1 0x20 ADD KECCAK256 SWAP1 POP PUSH1 0xC SLOAD PUSH2 0x365B DUP5 DUP4 PUSH2 0x3755 JUMP JUMPDEST EQ SWAP5 SWAP4 POP POP POP POP JUMP JUMPDEST PUSH1 0x0 DUP1 JUMPDEST PUSH1 0xB SLOAD DUP2 LT ISZERO PUSH2 0x374B JUMPI PUSH1 0x0 PUSH1 0xB DUP3 DUP2 SLOAD DUP2 LT PUSH2 0x3687 JUMPI PUSH2 0x3687 PUSH2 0x3F6F JUMP JUMPDEST PUSH1 0x0 SWAP2 DUP3 MSTORE PUSH1 0x20 SWAP1 SWAP2 KECCAK256 ADD SLOAD PUSH1 0x40 MLOAD PUSH32 0xC455279100000000000000000000000000000000000000000000000000000000 DUP2 MSTORE PUSH1 0x1 PUSH1 0x1 PUSH1 0xA0 SHL SUB DUP8 DUP2 AND PUSH1 0x4 DUP4 ADD MSTORE SWAP2 DUP3 AND SWAP3 POP SWAP1 DUP6 AND SWAP1 DUP3 SWAP1 PUSH4 0xC4552791 SWAP1 PUSH1 0x24 ADD PUSH1 0x20 PUSH1 0x40 MLOAD DUP1 DUP4 SUB DUP2 DUP7 GAS STATICCALL ISZERO DUP1 ISZERO PUSH2 0x36FA JUMPI RETURNDATASIZE PUSH1 0x0 DUP1 RETURNDATACOPY RETURNDATASIZE PUSH1 0x0 REVERT JUMPDEST POP POP POP POP PUSH1 0x40 MLOAD RETURNDATASIZE PUSH1 0x1F NOT PUSH1 0x1F DUP3 ADD AND DUP3 ADD DUP1 PUSH1 0x40 MSTORE POP DUP2 ADD SWAP1 PUSH2 0x371E SWAP2 SWAP1 PUSH2 0x41DD JUMP JUMPDEST PUSH1 0x1 PUSH1 0x1 PUSH1 0xA0 SHL SUB AND EQ ISZERO PUSH2 0x3738 JUMPI PUSH1 0x1 SWAP3 POP POP POP PUSH2 0x95A JUMP JUMPDEST POP DUP1 PUSH2 0x3743 DUP2 PUSH2 0x3EF9 JUMP JUMPDEST SWAP2 POP POP PUSH2 0x3668 JUMP JUMPDEST POP PUSH1 0x0 SWAP4 SWAP3 POP POP POP JUMP JUMPDEST PUSH1 0x0 DUP2 DUP2 JUMPDEST DUP5 MLOAD DUP2 LT ISZERO PUSH2 0x2DBB JUMPI PUSH1 0x0 DUP6 DUP3 DUP2 MLOAD DUP2 LT PUSH2 0x3777 JUMPI PUSH2 0x3777 PUSH2 0x3F6F JUMP JUMPDEST PUSH1 0x20 MUL PUSH1 0x20 ADD ADD MLOAD SWAP1 POP DUP1 DUP4 GT PUSH2 0x379D JUMPI PUSH1 0x0 DUP4 DUP2 MSTORE PUSH1 0x20 DUP3 SWAP1 MSTORE PUSH1 0x40 SWAP1 KECCAK256 SWAP3 POP PUSH2 0x37AE JUMP JUMPDEST PUSH1 0x0 DUP2 DUP2 MSTORE PUSH1 0x20 DUP5 SWAP1 MSTORE PUSH1 0x40 SWAP1 KECCAK256 SWAP3 POP JUMPDEST POP DUP1 PUSH2 0x37B9 DUP2 PUSH2 0x3EF9 JUMP JUMPDEST SWAP2 POP POP PUSH2 0x375A JUMP JUMPDEST PUSH32 0xFFFFFFFF00000000000000000000000000000000000000000000000000000000 DUP2 AND DUP2 EQ PUSH2 0x1C5D JUMPI PUSH1 0x0 DUP1 REVERT JUMPDEST PUSH1 0x0 PUSH1 0x20 DUP3 DUP5 SUB SLT ISZERO PUSH2 0x3801 JUMPI PUSH1 0x0 DUP1 REVERT JUMPDEST DUP2 CALLDATALOAD PUSH2 0x1D04 DUP2 PUSH2 0x37C1 JUMP JUMPDEST PUSH1 0x0 JUMPDEST DUP4 DUP2 LT ISZERO PUSH2 0x3827 JUMPI DUP2 DUP2 ADD MLOAD DUP4 DUP3 ADD MSTORE PUSH1 0x20 ADD PUSH2 0x380F JUMP JUMPDEST DUP4 DUP2 GT ISZERO PUSH2 0xD0A JUMPI POP POP PUSH1 0x0 SWAP2 ADD MSTORE JUMP JUMPDEST PUSH1 0x0 DUP2 MLOAD DUP1 DUP5 MSTORE PUSH2 0x3850 DUP2 PUSH1 0x20 DUP7 ADD PUSH1 0x20 DUP7 ADD PUSH2 0x380C JUMP JUMPDEST PUSH1 0x1F ADD PUSH32 0xFFFFFFFFFFFFFFFFFFFFFFFFFFFFFFFFFFFFFFFFFFFFFFFFFFFFFFFFFFFFFFE0 AND SWAP3 SWAP1 SWAP3 ADD PUSH1 0x20 ADD SWAP3 SWAP2 POP POP JUMP JUMPDEST PUSH1 0x20 DUP2 MSTORE PUSH1 0x0 PUSH2 0x1D04 PUSH1 0x20 DUP4 ADD DUP5 PUSH2 0x3838 JUMP JUMPDEST PUSH1 0x0 PUSH1 0x20 DUP3 DUP5 SUB SLT ISZERO PUSH2 0x38A7 JUMPI PUSH1 0x0 DUP1 REVERT JUMPDEST POP CALLDATALOAD SWAP2 SWAP1 POP JUMP JUMPDEST PUSH1 0x1 PUSH1 0x1 PUSH1 0xA0 SHL SUB DUP2 AND DUP2 EQ PUSH2 0x1C5D JUMPI PUSH1 0x0 DUP1 REVERT JUMPDEST PUSH1 0x0 DUP1 PUSH1 0x40 DUP4 DUP6 SUB SLT ISZERO PUSH2 0x38D6 JUMPI PUSH1 0x0 DUP1 REVERT JUMPDEST DUP3 CALLDATALOAD PUSH2 0x38E1 DUP2 PUSH2 0x38AE JUMP JUMPDEST SWAP5 PUSH1 0x20 SWAP4 SWAP1 SWAP4 ADD CALLDATALOAD SWAP4 POP POP POP JUMP JUMPDEST PUSH1 0x0 DUP1 PUSH1 0x40 DUP4 DUP6 SUB SLT ISZERO PUSH2 0x3902 JUMPI PUSH1 0x0 DUP1 REVERT JUMPDEST POP POP DUP1 CALLDATALOAD SWAP3 PUSH1 0x20 SWAP1 SWAP2 ADD CALLDATALOAD SWAP2 POP JUMP JUMPDEST PUSH32 0x4E487B7100000000000000000000000000000000000000000000000000000000 PUSH1 0x0 MSTORE PUSH1 0x41 PUSH1 0x4 MSTORE PUSH1 0x24 PUSH1 0x0 REVERT JUMPDEST PUSH1 0x40 MLOAD PUSH1 0x1F DUP3 ADD PUSH32 0xFFFFFFFFFFFFFFFFFFFFFFFFFFFFFFFFFFFFFFFFFFFFFFFFFFFFFFFFFFFFFFE0 AND DUP2 ADD PUSH8 0xFFFFFFFFFFFFFFFF DUP2 GT DUP3 DUP3 LT OR ISZERO PUSH2 0x3987 JUMPI PUSH2 0x3987 PUSH2 0x3911 JUMP JUMPDEST PUSH1 0x40 MSTORE SWAP2 SWAP1 POP JUMP JUMPDEST PUSH1 0x0 DUP1 PUSH1 0x0 DUP1 PUSH1 0x80 DUP6 DUP8 SUB SLT ISZERO PUSH2 0x39A5 JUMPI PUSH1 0x0 DUP1 REVERT JUMPDEST DUP5 CALLDATALOAD PUSH2 0x39B0 DUP2 PUSH2 0x38AE JUMP JUMPDEST SWAP4 POP PUSH1 0x20 DUP6 DUP2 ADD CALLDATALOAD PUSH2 0x39C1 DUP2 PUSH2 0x38AE JUMP JUMPDEST SWAP4 POP PUSH1 0x40 DUP7 ADD CALLDATALOAD SWAP3 POP PUSH1 0x60 DUP7 ADD CALLDATALOAD PUSH8 0xFFFFFFFFFFFFFFFF DUP1 DUP3 GT ISZERO PUSH2 0x39E5 JUMPI PUSH1 0x0 DUP1 REVERT JUMPDEST DUP2 DUP9 ADD SWAP2 POP DUP9 PUSH1 0x1F DUP4 ADD SLT PUSH2 0x39F9 JUMPI PUSH1 0x0 DUP1 REVERT JUMPDEST DUP2 CALLDATALOAD DUP2 DUP2 GT ISZERO PUSH2 0x3A0B JUMPI PUSH2 0x3A0B PUSH2 0x3911 JUMP JUMPDEST PUSH2 0x3A3B DUP5 PUSH32 0xFFFFFFFFFFFFFFFFFFFFFFFFFFFFFFFFFFFFFFFFFFFFFFFFFFFFFFFFFFFFFFE0 PUSH1 0x1F DUP5 ADD AND ADD PUSH2 0x3940 JUMP JUMPDEST SWAP2 POP DUP1 DUP3 MSTORE DUP10 DUP5 DUP3 DUP6 ADD ADD GT ISZERO PUSH2 0x3A51 JUMPI PUSH1 0x0 DUP1 REVERT JUMPDEST DUP1 DUP5 DUP5 ADD DUP6 DUP5 ADD CALLDATACOPY PUSH1 0x0 DUP5 DUP3 DUP5 ADD ADD MSTORE POP DUP1 SWAP4 POP POP POP POP SWAP3 SWAP6 SWAP2 SWAP5 POP SWAP3 POP JUMP JUMPDEST PUSH1 0x0 PUSH8 0xFFFFFFFFFFFFFFFF DUP3 GT ISZERO PUSH2 0x3A8B JUMPI PUSH2 0x3A8B PUSH2 0x3911 JUMP JUMPDEST POP PUSH1 0x5 SHL PUSH1 0x20 ADD SWAP1 JUMP JUMPDEST PUSH1 0x0 DUP3 PUSH1 0x1F DUP4 ADD SLT PUSH2 0x3AA6 JUMPI PUSH1 0x0 DUP1 REVERT JUMPDEST DUP2 CALLDATALOAD PUSH1 0x20 PUSH2 0x3ABB PUSH2 0x3AB6 DUP4 PUSH2 0x3A71 JUMP JUMPDEST PUSH2 0x3940 JUMP JUMPDEST DUP3 DUP2 MSTORE PUSH1 0x5 SWAP3 SWAP1 SWAP3 SHL DUP5 ADD DUP2 ADD SWAP2 DUP2 DUP2 ADD SWAP1 DUP7 DUP5 GT ISZERO PUSH2 0x3ADA JUMPI PUSH1 0x0 DUP1 REVERT JUMPDEST DUP3 DUP7 ADD JUMPDEST DUP5 DUP2 LT ISZERO PUSH2 0x3AF5 JUMPI DUP1 CALLDATALOAD DUP4 MSTORE SWAP2 DUP4 ADD SWAP2 DUP4 ADD PUSH2 0x3ADE JUMP JUMPDEST POP SWAP7 SWAP6 POP POP POP POP POP POP JUMP JUMPDEST PUSH1 0x0 DUP1 PUSH1 0x40 DUP4 DUP6 SUB SLT ISZERO PUSH2 0x3B13 JUMPI PUSH1 0x0 DUP1 REVERT JUMPDEST DUP3 CALLDATALOAD PUSH8 0xFFFFFFFFFFFFFFFF DUP1 DUP3 GT ISZERO PUSH2 0x3B2B JUMPI PUSH1 0x0 DUP1 REVERT JUMPDEST DUP2 DUP6 ADD SWAP2 POP DUP6 PUSH1 0x1F DUP4 ADD SLT PUSH2 0x3B3F JUMPI PUSH1 0x0 DUP1 REVERT JUMPDEST DUP2 CALLDATALOAD PUSH1 0x20 PUSH2 0x3B4F PUSH2 0x3AB6 DUP4 PUSH2 0x3A71 JUMP JUMPDEST DUP3 DUP2 MSTORE PUSH1 0x5 SWAP3 SWAP1 SWAP3 SHL DUP5 ADD DUP2 ADD SWAP2 DUP2 DUP2 ADD SWAP1 DUP10 DUP5 GT ISZERO PUSH2 0x3B6E JUMPI PUSH1 0x0 DUP1 REVERT JUMPDEST SWAP5 DUP3 ADD SWAP5 JUMPDEST DUP4 DUP7 LT ISZERO PUSH2 0x3B95 JUMPI DUP6 CALLDATALOAD PUSH2 0x3B86 DUP2 PUSH2 0x38AE JUMP JUMPDEST DUP3 MSTORE SWAP5 DUP3 ADD SWAP5 SWAP1 DUP3 ADD SWAP1 PUSH2 0x3B73 JUMP JUMPDEST SWAP7 POP POP DUP7 ADD CALLDATALOAD SWAP3 POP POP DUP1 DUP3 GT ISZERO PUSH2 0x3BAB JUMPI PUSH1 0x0 DUP1 REVERT JUMPDEST POP PUSH2 0x3BB8 DUP6 DUP3 DUP7 ADD PUSH2 0x3A95 JUMP JUMPDEST SWAP2 POP POP SWAP3 POP SWAP3 SWAP1 POP JUMP JUMPDEST PUSH1 0x0 DUP1 PUSH1 0x0 PUSH1 0x60 DUP5 DUP7 SUB SLT ISZERO PUSH2 0x3BD7 JUMPI PUSH1 0x0 DUP1 REVERT JUMPDEST DUP4 CALLDATALOAD PUSH2 0x3BE2 DUP2 PUSH2 0x38AE JUMP JUMPDEST SWAP3 POP PUSH1 0x20 DUP5 ADD CALLDATALOAD PUSH2 0x3BF2 DUP2 PUSH2 0x38AE JUMP JUMPDEST SWAP3 SWAP6 SWAP3 SWAP5 POP POP POP PUSH1 0x40 SWAP2 SWAP1 SWAP2 ADD CALLDATALOAD SWAP1 JUMP JUMPDEST PUSH1 0x0 PUSH1 0x20 DUP3 DUP5 SUB SLT ISZERO PUSH2 0x3C15 JUMPI PUSH1 0x0 DUP1 REVERT JUMPDEST DUP2 CALLDATALOAD PUSH2 0x1D04 DUP2 PUSH2 0x38AE JUMP JUMPDEST PUSH1 0x0 PUSH1 0x20 DUP1 DUP4 DUP6 SUB SLT ISZERO PUSH2 0x3C33 JUMPI PUSH1 0x0 DUP1 REVERT JUMPDEST DUP3 CALLDATALOAD PUSH8 0xFFFFFFFFFFFFFFFF DUP2 GT ISZERO PUSH2 0x3C4A JUMPI PUSH1 0x0 DUP1 REVERT JUMPDEST DUP4 ADD PUSH1 0x1F DUP2 ADD DUP6 SGT PUSH2 0x3C5B JUMPI PUSH1 0x0 DUP1 REVERT JUMPDEST DUP1 CALLDATALOAD PUSH2 0x3C69 PUSH2 0x3AB6 DUP3 PUSH2 0x3A71 JUMP JUMPDEST DUP2 DUP2 MSTORE PUSH1 0x5 SWAP2 SWAP1 SWAP2 SHL DUP3 ADD DUP4 ADD SWAP1 DUP4 DUP2 ADD SWAP1 DUP8 DUP4 GT ISZERO PUSH2 0x3C88 JUMPI PUSH1 0x0 DUP1 REVERT JUMPDEST SWAP3 DUP5 ADD SWAP3 JUMPDEST DUP3 DUP5 LT ISZERO PUSH2 0x3CA6 JUMPI DUP4 CALLDATALOAD DUP3 MSTORE SWAP3 DUP5 ADD SWAP3 SWAP1 DUP5 ADD SWAP1 PUSH2 0x3C8D JUMP JUMPDEST SWAP8 SWAP7 POP POP POP POP POP POP POP JUMP JUMPDEST PUSH1 0x0 PUSH1 0x20 DUP3 DUP5 SUB SLT ISZERO PUSH2 0x3CC3 JUMPI PUSH1 0x0 DUP1 REVERT JUMPDEST DUP2 CALLDATALOAD PUSH1 0x3 DUP2 LT PUSH2 0x1D04 JUMPI PUSH1 0x0 DUP1 REVERT JUMPDEST PUSH32 0x4E487B7100000000000000000000000000000000000000000000000000000000 PUSH1 0x0 MSTORE PUSH1 0x21 PUSH1 0x4 MSTORE PUSH1 0x24 PUSH1 0x0 REVERT JUMPDEST PUSH1 0x20 DUP2 ADD PUSH1 0x3 DUP4 LT PUSH2 0x3D3C JUMPI PUSH32 0x4E487B7100000000000000000000000000000000000000000000000000000000 PUSH1 0x0 MSTORE PUSH1 0x21 PUSH1 0x4 MSTORE PUSH1 0x24 PUSH1 0x0 REVERT JUMPDEST SWAP2 SWAP1 MSTORE SWAP1 JUMP JUMPDEST PUSH1 0x0 DUP1 PUSH1 0x40 DUP4 DUP6 SUB SLT ISZERO PUSH2 0x3D55 JUMPI PUSH1 0x0 DUP1 REVERT JUMPDEST DUP3 CALLDATALOAD PUSH2 0x3D60 DUP2 PUSH2 0x38AE JUMP JUMPDEST SWAP2 POP PUSH1 0x20 DUP4 ADD CALLDATALOAD DUP1 ISZERO ISZERO DUP2 EQ PUSH2 0x3D75 JUMPI PUSH1 0x0 DUP1 REVERT JUMPDEST DUP1 SWAP2 POP POP SWAP3 POP SWAP3 SWAP1 POP JUMP JUMPDEST PUSH1 0x0 DUP1 PUSH1 0x0 DUP1 PUSH1 0x0 PUSH1 0x80 DUP7 DUP9 SUB SLT ISZERO PUSH2 0x3D98 JUMPI PUSH1 0x0 DUP1 REVERT JUMPDEST DUP6 CALLDATALOAD PUSH2 0x3DA3 DUP2 PUSH2 0x38AE JUMP JUMPDEST SWAP5 POP PUSH1 0x20 DUP7 ADD CALLDATALOAD PUSH2 0x3DB3 DUP2 PUSH2 0x38AE JUMP JUMPDEST SWAP4 POP PUSH1 0x40 DUP7 ADD CALLDATALOAD SWAP3 POP PUSH1 0x60 DUP7 ADD CALLDATALOAD PUSH8 0xFFFFFFFFFFFFFFFF DUP1 DUP3 GT ISZERO PUSH2 0x3DD7 JUMPI PUSH1 0x0 DUP1 REVERT JUMPDEST DUP2 DUP9 ADD SWAP2 POP DUP9 PUSH1 0x1F DUP4 ADD SLT PUSH2 0x3DEB JUMPI PUSH1 0x0 DUP1 REVERT JUMPDEST DUP2 CALLDATALOAD DUP2 DUP2 GT ISZERO PUSH2 0x3DFA JUMPI PUSH1 0x0 DUP1 REVERT JUMPDEST DUP10 PUSH1 0x20 DUP3 DUP6 ADD ADD GT ISZERO PUSH2 0x3E0C JUMPI PUSH1 0x0 DUP1 REVERT JUMPDEST SWAP7 SWAP10 SWAP6 SWAP9 POP SWAP4 SWAP7 POP PUSH1 0x20 ADD SWAP5 SWAP4 SWAP3 POP POP POP JUMP JUMPDEST PUSH1 0x0 DUP1 PUSH1 0x40 DUP4 DUP6 SUB SLT ISZERO PUSH2 0x3E32 JUMPI PUSH1 0x0 DUP1 REVERT JUMPDEST DUP3 CALLDATALOAD PUSH2 0x3E3D DUP2 PUSH2 0x38AE JUMP JUMPDEST SWAP2 POP PUSH1 0x20 DUP4 ADD CALLDATALOAD PUSH2 0x3D75 DUP2 PUSH2 0x38AE JUMP JUMPDEST PUSH1 0x1 DUP2 DUP2 SHR SWAP1 DUP3 AND DUP1 PUSH2 0x3E61 JUMPI PUSH1 0x7F DUP3 AND SWAP2 POP JUMPDEST PUSH1 0x20 DUP3 LT DUP2 EQ ISZERO PUSH2 0xA51 JUMPI PUSH32 0x4E487B7100000000000000000000000000000000000000000000000000000000 PUSH1 0x0 MSTORE PUSH1 0x22 PUSH1 0x4 MSTORE PUSH1 0x24 PUSH1 0x0 REVERT JUMPDEST PUSH32 0x4E487B7100000000000000000000000000000000000000000000000000000000 PUSH1 0x0 MSTORE PUSH1 0x11 PUSH1 0x4 MSTORE PUSH1 0x24 PUSH1 0x0 REVERT JUMPDEST PUSH1 0x0 DUP3 NOT DUP3 GT ISZERO PUSH2 0x3EDD JUMPI PUSH2 0x3EDD PUSH2 0x3E9B JUMP JUMPDEST POP ADD SWAP1 JUMP JUMPDEST PUSH1 0x0 DUP3 DUP3 LT ISZERO PUSH2 0x3EF4 JUMPI PUSH2 0x3EF4 PUSH2 0x3E9B JUMP JUMPDEST POP SUB SWAP1 JUMP JUMPDEST PUSH1 0x0 PUSH32 0xFFFFFFFFFFFFFFFFFFFFFFFFFFFFFFFFFFFFFFFFFFFFFFFFFFFFFFFFFFFFFFFF DUP3 EQ ISZERO PUSH2 0x3F2B JUMPI PUSH2 0x3F2B PUSH2 0x3E9B JUMP JUMPDEST POP PUSH1 0x1 ADD SWAP1 JUMP JUMPDEST PUSH1 0x0 DUP2 PUSH32 0xFFFFFFFFFFFFFFFFFFFFFFFFFFFFFFFFFFFFFFFFFFFFFFFFFFFFFFFFFFFFFFFF DIV DUP4 GT DUP3 ISZERO ISZERO AND ISZERO PUSH2 0x3F6A JUMPI PUSH2 0x3F6A PUSH2 0x3E9B JUMP JUMPDEST POP MUL SWAP1 JUMP JUMPDEST PUSH32 0x4E487B7100000000000000000000000000000000000000000000000000000000 PUSH1 0x0 MSTORE PUSH1 0x32 PUSH1 0x4 MSTORE PUSH1 0x24 PUSH1 0x0 REVERT JUMPDEST PUSH32 0x4E487B7100000000000000000000000000000000000000000000000000000000 PUSH1 0x0 MSTORE PUSH1 0x12 PUSH1 0x4 MSTORE PUSH1 0x24 PUSH1 0x0 REVERT JUMPDEST PUSH1 0x0 DUP3 PUSH2 0x3FDC JUMPI PUSH2 0x3FDC PUSH2 0x3F9E JUMP JUMPDEST POP DIV SWAP1 JUMP JUMPDEST DUP2 MLOAD PUSH1 0x0 SWAP1 DUP3 SWAP1 PUSH1 0x20 DUP1 DUP7 ADD DUP5 JUMPDEST DUP4 DUP2 LT ISZERO PUSH2 0x400B JUMPI DUP2 MLOAD DUP6 MSTORE SWAP4 DUP3 ADD SWAP4 SWAP1 DUP3 ADD SWAP1 PUSH1 0x1 ADD PUSH2 0x3FEF JUMP JUMPDEST POP SWAP3 SWAP7 SWAP6 POP POP POP POP POP POP JUMP JUMPDEST DUP2 MLOAD PUSH1 0x0 SWAP1 DUP3 SWAP1 PUSH1 0x20 DUP1 DUP7 ADD DUP5 JUMPDEST DUP4 DUP2 LT ISZERO PUSH2 0x400B JUMPI DUP2 MLOAD PUSH1 0x1 PUSH1 0x1 PUSH1 0xA0 SHL SUB AND DUP6 MSTORE SWAP4 DUP3 ADD SWAP4 SWAP1 DUP3 ADD SWAP1 PUSH1 0x1 ADD PUSH2 0x4025 JUMP JUMPDEST PUSH1 0x0 DUP2 PUSH2 0x4059 JUMPI PUSH2 0x4059 PUSH2 0x3E9B JUMP JUMPDEST POP PUSH32 0xFFFFFFFFFFFFFFFFFFFFFFFFFFFFFFFFFFFFFFFFFFFFFFFFFFFFFFFFFFFFFFFF ADD SWAP1 JUMP JUMPDEST PUSH1 0x0 DUP2 MLOAD PUSH2 0x4091 DUP2 DUP6 PUSH1 0x20 DUP7 ADD PUSH2 0x380C JUMP JUMPDEST SWAP3 SWAP1 SWAP3 ADD SWAP3 SWAP2 POP POP JUMP JUMPDEST PUSH1 0x0 DUP1 DUP5 SLOAD DUP2 PUSH1 0x1 DUP3 DUP2 SHR SWAP2 POP DUP1 DUP4 AND DUP1 PUSH2 0x40B7 JUMPI PUSH1 0x7F DUP4 AND SWAP3 POP JUMPDEST PUSH1 0x20 DUP1 DUP5 LT DUP3 EQ ISZERO PUSH2 0x40F0 JUMPI PUSH32 0x4E487B7100000000000000000000000000000000000000000000000000000000 DUP7 MSTORE PUSH1 0x22 PUSH1 0x4 MSTORE PUSH1 0x24 DUP7 REVERT JUMPDEST DUP2 DUP1 ISZERO PUSH2 0x4104 JUMPI PUSH1 0x1 DUP2 EQ PUSH2 0x4133 JUMPI PUSH2 0x4160 JUMP JUMPDEST PUSH32 0xFFFFFFFFFFFFFFFFFFFFFFFFFFFFFFFFFFFFFFFFFFFFFFFFFFFFFFFFFFFFFF00 DUP7 AND DUP10 MSTORE DUP5 DUP10 ADD SWAP7 POP PUSH2 0x4160 JUMP JUMPDEST PUSH1 0x0 DUP12 DUP2 MSTORE PUSH1 0x20 SWAP1 KECCAK256 PUSH1 0x0 JUMPDEST DUP7 DUP2 LT ISZERO PUSH2 0x4158 JUMPI DUP2 SLOAD DUP12 DUP3 ADD MSTORE SWAP1 DUP6 ADD SWAP1 DUP4 ADD PUSH2 0x413F JUMP JUMPDEST POP POP DUP5 DUP10 ADD SWAP7 POP JUMPDEST POP POP POP POP POP POP PUSH2 0x29DE DUP2 DUP6 PUSH2 0x407F JUMP JUMPDEST PUSH1 0x0 PUSH1 0x1 PUSH1 0x1 PUSH1 0xA0 SHL SUB DUP1 DUP8 AND DUP4 MSTORE DUP1 DUP7 AND PUSH1 0x20 DUP5 ADD MSTORE POP DUP4 PUSH1 0x40 DUP4 ADD MSTORE PUSH1 0x80 PUSH1 0x60 DUP4 ADD MSTORE PUSH2 0x41A2 PUSH1 0x80 DUP4 ADD DUP5 PUSH2 0x3838 JUMP JUMPDEST SWAP7 SWAP6 POP POP POP POP POP POP JUMP JUMPDEST PUSH1 0x0 PUSH1 0x20 DUP3 DUP5 SUB SLT ISZERO PUSH2 0x41BE JUMPI PUSH1 0x0 DUP1 REVERT JUMPDEST DUP2 MLOAD PUSH2 0x1D04 DUP2 PUSH2 0x37C1 JUMP JUMPDEST PUSH1 0x0 DUP3 PUSH2 0x41D8 JUMPI PUSH2 0x41D8 PUSH2 0x3F9E JUMP JUMPDEST POP MOD SWAP1 JUMP JUMPDEST PUSH1 0x0 PUSH1 0x20 DUP3 DUP5 SUB SLT ISZERO PUSH2 0x41EF JUMPI PUSH1 0x0 DUP1 REVERT JUMPDEST DUP2 MLOAD PUSH2 0x1D04 DUP2 PUSH2 0x38AE JUMP INVALID LOG2 PUSH5 0x6970667358 0x22 SLT KECCAK256 0xBF LOG0 SWAP14 PUSH5 0xFF9099FBC8 SWAP6 PUSH30 0x3689A7A3E75FF3A32D9DE65F14FB12B321232E914964736F6C634300080A STOP CALLER "
		},
		"gasEstimates": {
			"creation": {
				"codeDepositCost": "3388800",
				"executionCost": "infinite",
				"totalCost": "infinite"
			},
			"external": {
				"MAX_BATCH()": "infinite",
				"MAX_SUPPLY()": "infinite",
				"PUBLIC_MINT_PRICE()": "infinite",
				"WL_MINT_PRICE()": "infinite",
				"airdrop(address[],uint256[])": "infinite",
				"anonClaimList(address)": "2603",
				"approve(address,uint256)": "infinite",
				"balanceOf(address)": "infinite",
				"balanceOfStaked(address)": "infinite",
				"claim(uint256)": "infinite",
				"claimAndStake(uint256,uint256)": "infinite",
				"getApproved(uint256)": "4715",
				"isApprovedForAll(address,address)": "infinite",
				"mint(uint256)": "infinite",
				"mintAndStake(uint256,uint256)": "infinite",
				"mintPreSale(bytes32[])": "infinite",
				"mintPreSaleAndStake(bytes32[])": "infinite",
				"name()": "infinite",
				"onERC721Received(address,address,uint256,bytes)": "infinite",
				"owner()": "2442",
				"ownerOf(uint256)": "infinite",
				"ownerOfStaked(uint256)": "4734",
				"royaltyInfo(uint256,uint256)": "9179",
				"safeTransferFrom(address,address,uint256)": "infinite",
				"safeTransferFrom(address,address,uint256,bytes)": "infinite",
				"saleState()": "2452",
				"setAnonClaimList(address[],uint256[])": "infinite",
				"setApprovalForAll(address,bool)": "26714",
				"setProxyRegistry(address)": "51013",
				"setRoyaltyInfo(address,uint256)": "48973",
				"setSaleState(uint8)": "28397",
				"setWhitelist(bytes32)": "26791",
				"stake(uint256)": "infinite",
				"supportsInterface(bytes4)": "infinite",
				"symbol()": "infinite",
				"tokenByIndex(uint256)": "2493",
				"tokenOfOwnerByIndex(address,uint256)": "infinite",
				"tokenURI(uint256)": "infinite",
				"totalSupply()": "infinite",
				"transferFrom(address,address,uint256)": "infinite",
				"transferOwnership(address)": "28370",
				"unstake(uint256)": "infinite",
				"withdraw()": "infinite"
			},
			"internal": {
				"_isApprovedForAll(address,address)": "infinite",
				"_sendValue(address payable,uint256)": "infinite"
			}
		},
		"methodIdentifiers": {
			"MAX_BATCH()": "950bff9f",
			"MAX_SUPPLY()": "32cb6b0c",
			"PUBLIC_MINT_PRICE()": "6bde2627",
			"WL_MINT_PRICE()": "88089f0b",
			"airdrop(address[],uint256[])": "67243482",
			"anonClaimList(address)": "381d7df0",
			"approve(address,uint256)": "095ea7b3",
			"balanceOf(address)": "70a08231",
			"balanceOfStaked(address)": "3455f41e",
			"claim(uint256)": "379607f5",
			"claimAndStake(uint256,uint256)": "142982f4",
			"getApproved(uint256)": "081812fc",
			"isApprovedForAll(address,address)": "e985e9c5",
			"mint(uint256)": "a0712d68",
			"mintAndStake(uint256,uint256)": "1b7b79ee",
			"mintPreSale(bytes32[])": "80d65b0a",
			"mintPreSaleAndStake(bytes32[])": "3cb971ca",
			"name()": "06fdde03",
			"onERC721Received(address,address,uint256,bytes)": "150b7a02",
			"owner()": "8da5cb5b",
			"ownerOf(uint256)": "6352211e",
			"ownerOfStaked(uint256)": "52033215",
			"royaltyInfo(uint256,uint256)": "2a55205a",
			"safeTransferFrom(address,address,uint256)": "42842e0e",
			"safeTransferFrom(address,address,uint256,bytes)": "b88d4fde",
			"saleState()": "603f4d52",
			"setAnonClaimList(address[],uint256[])": "215f45b4",
			"setApprovalForAll(address,bool)": "a22cb465",
			"setProxyRegistry(address)": "adfdeef9",
			"setRoyaltyInfo(address,uint256)": "e2e784d5",
			"setSaleState(uint8)": "5a67de07",
			"setWhitelist(bytes32)": "440bc7f3",
			"stake(uint256)": "a694fc3a",
			"supportsInterface(bytes4)": "01ffc9a7",
			"symbol()": "95d89b41",
			"tokenByIndex(uint256)": "4f6ccce7",
			"tokenOfOwnerByIndex(address,uint256)": "2f745c59",
			"tokenURI(uint256)": "c87b56dd",
			"totalSupply()": "18160ddd",
			"transferFrom(address,address,uint256)": "23b872dd",
			"transferOwnership(address)": "f2fde38b",
			"unstake(uint256)": "2e17de78",
			"withdraw()": "3ccfd60b"
		}
	},
	"abi": [
		{
			"inputs": [
				{
					"internalType": "uint256",
					"name": "reserve_",
					"type": "uint256"
				},
				{
					"internalType": "uint256",
					"name": "maxBatch_",
					"type": "uint256"
				},
				{
					"internalType": "uint256",
					"name": "maxSupply_",
					"type": "uint256"
				},
				{
					"internalType": "uint256",
					"name": "royaltyRate_",
					"type": "uint256"
				},
				{
					"internalType": "uint256",
					"name": "wlMintPrice_",
					"type": "uint256"
				},
				{
					"internalType": "uint256",
					"name": "publicMintPrice_",
					"type": "uint256"
				},
				{
					"internalType": "string",
					"name": "name_",
					"type": "string"
				},
				{
					"internalType": "string",
					"name": "symbol_",
					"type": "string"
				},
				{
					"internalType": "string",
					"name": "baseURI_",
					"type": "string"
				},
				{
					"internalType": "address[]",
					"name": "wallets_",
					"type": "address[]"
				}
			],
			"stateMutability": "nonpayable",
			"type": "constructor"
		},
		{
			"inputs": [],
			"name": "CCFoundersKeys_ARRAY_LENGTH_MISMATCH",
			"type": "error"
		},
		{
			"inputs": [],
			"name": "CCFoundersKeys_FORBIDDEN",
			"type": "error"
		},
		{
			"inputs": [],
			"name": "CCFoundersKeys_INCORRECT_PRICE",
			"type": "error"
		},
		{
			"inputs": [],
			"name": "CCFoundersKeys_INSUFFICIENT_KEY_BALANCE",
			"type": "error"
		},
		{
			"inputs": [],
			"name": "CCFoundersKeys_MAX_BATCH",
			"type": "error"
		},
		{
			"inputs": [],
			"name": "CCFoundersKeys_MAX_RESERVE",
			"type": "error"
		},
		{
			"inputs": [],
			"name": "CCFoundersKeys_MAX_SUPPLY",
			"type": "error"
		},
		{
			"inputs": [],
			"name": "CCFoundersKeys_NO_ETHER_BALANCE",
			"type": "error"
		},
		{
			"inputs": [],
			"name": "CCFoundersKeys_TRANSFER_FAIL",
			"type": "error"
		},
		{
			"inputs": [],
			"name": "IERC2981_INVALID_ROYALTIES",
			"type": "error"
		},
		{
			"inputs": [],
			"name": "IERC721Enumerable_INDEX_OUT_OF_BOUNDS",
			"type": "error"
		},
		{
			"inputs": [],
			"name": "IERC721Enumerable_OWNER_INDEX_OUT_OF_BOUNDS",
			"type": "error"
		},
		{
			"inputs": [],
			"name": "IERC721_APPROVE_CALLER",
			"type": "error"
		},
		{
			"inputs": [],
			"name": "IERC721_APPROVE_OWNER",
			"type": "error"
		},
		{
			"inputs": [],
			"name": "IERC721_CALLER_NOT_APPROVED",
			"type": "error"
		},
		{
			"inputs": [],
			"name": "IERC721_NONEXISTANT_TOKEN",
			"type": "error"
		},
		{
			"inputs": [],
			"name": "IERC721_NON_ERC721_RECEIVER",
			"type": "error"
		},
		{
			"inputs": [],
			"name": "IERC721_NULL_ADDRESS_BALANCE",
			"type": "error"
		},
		{
			"inputs": [],
			"name": "IERC721_NULL_ADDRESS_TRANSFER",
			"type": "error"
		},
		{
			"inputs": [],
			"name": "IOwnable_NOT_OWNER",
			"type": "error"
		},
		{
			"inputs": [],
			"name": "IPausable_PRESALE_NOT_OPEN",
			"type": "error"
		},
		{
			"inputs": [],
			"name": "IPausable_SALE_NOT_CLOSED",
			"type": "error"
		},
		{
			"inputs": [],
			"name": "IPausable_SALE_NOT_OPEN",
			"type": "error"
		},
		{
			"inputs": [],
			"name": "IWhitelistable_CONSUMED",
			"type": "error"
		},
		{
			"inputs": [],
			"name": "IWhitelistable_FORBIDDEN",
			"type": "error"
		},
		{
			"inputs": [],
			"name": "IWhitelistable_NOT_SET",
			"type": "error"
		},
		{
			"inputs": [],
			"name": "IWhitelistable_NO_ALLOWANCE",
			"type": "error"
		},
		{
			"anonymous": false,
			"inputs": [
				{
					"indexed": true,
					"internalType": "address",
					"name": "owner",
					"type": "address"
				},
				{
					"indexed": true,
					"internalType": "address",
					"name": "approved",
					"type": "address"
				},
				{
					"indexed": true,
					"internalType": "uint256",
					"name": "tokenId",
					"type": "uint256"
				}
			],
			"name": "Approval",
			"type": "event"
		},
		{
			"anonymous": false,
			"inputs": [
				{
					"indexed": true,
					"internalType": "address",
					"name": "owner",
					"type": "address"
				},
				{
					"indexed": true,
					"internalType": "address",
					"name": "operator",
					"type": "address"
				},
				{
					"indexed": false,
					"internalType": "bool",
					"name": "approved",
					"type": "bool"
				}
			],
			"name": "ApprovalForAll",
			"type": "event"
		},
		{
			"anonymous": false,
			"inputs": [
				{
					"indexed": true,
					"internalType": "uint256",
					"name": "fromTokenId",
					"type": "uint256"
				},
				{
					"indexed": true,
					"internalType": "uint256",
					"name": "toTokenId",
					"type": "uint256"
				},
				{
					"indexed": false,
					"internalType": "address",
					"name": "fromAddress",
					"type": "address"
				},
				{
					"indexed": true,
					"internalType": "address",
					"name": "toAddress",
					"type": "address"
				}
			],
			"name": "ConsecutiveTransfer",
			"type": "event"
		},
		{
			"anonymous": false,
			"inputs": [
				{
					"indexed": true,
					"internalType": "address",
					"name": "previousOwner",
					"type": "address"
				},
				{
					"indexed": true,
					"internalType": "address",
					"name": "newOwner",
					"type": "address"
				}
			],
			"name": "OwnershipTransferred",
			"type": "event"
		},
		{
			"anonymous": false,
			"inputs": [
				{
					"indexed": true,
					"internalType": "address",
					"name": "from",
					"type": "address"
				},
				{
					"indexed": true,
					"internalType": "address[]",
					"name": "tos",
					"type": "address[]"
				},
				{
					"indexed": true,
					"internalType": "uint256[]",
					"name": "amounts",
					"type": "uint256[]"
				}
			],
			"name": "PaymentReleased",
			"type": "event"
		},
		{
			"anonymous": false,
			"inputs": [
				{
					"indexed": true,
					"internalType": "enum IPausable.SaleState",
					"name": "previousState",
					"type": "uint8"
				},
				{
					"indexed": true,
					"internalType": "enum IPausable.SaleState",
					"name": "newState",
					"type": "uint8"
				}
			],
			"name": "SaleStateChanged",
			"type": "event"
		},
		{
			"anonymous": false,
			"inputs": [
				{
					"indexed": true,
					"internalType": "address",
					"name": "from",
					"type": "address"
				},
				{
					"indexed": true,
					"internalType": "address",
					"name": "to",
					"type": "address"
				},
				{
					"indexed": true,
					"internalType": "uint256",
					"name": "tokenId",
					"type": "uint256"
				}
			],
			"name": "Transfer",
			"type": "event"
		},
		{
			"inputs": [],
			"name": "MAX_BATCH",
			"outputs": [
				{
					"internalType": "uint256",
					"name": "",
					"type": "uint256"
				}
			],
			"stateMutability": "view",
			"type": "function"
		},
		{
			"inputs": [],
			"name": "MAX_SUPPLY",
			"outputs": [
				{
					"internalType": "uint256",
					"name": "",
					"type": "uint256"
				}
			],
			"stateMutability": "view",
			"type": "function"
		},
		{
			"inputs": [],
			"name": "PUBLIC_MINT_PRICE",
			"outputs": [
				{
					"internalType": "uint256",
					"name": "",
					"type": "uint256"
				}
			],
			"stateMutability": "view",
			"type": "function"
		},
		{
			"inputs": [],
			"name": "WL_MINT_PRICE",
			"outputs": [
				{
					"internalType": "uint256",
					"name": "",
					"type": "uint256"
				}
			],
			"stateMutability": "view",
			"type": "function"
		},
		{
			"inputs": [
				{
					"internalType": "address[]",
					"name": "accounts_",
					"type": "address[]"
				},
				{
					"internalType": "uint256[]",
					"name": "amounts_",
					"type": "uint256[]"
				}
			],
			"name": "airdrop",
			"outputs": [],
			"stateMutability": "nonpayable",
			"type": "function"
		},
		{
			"inputs": [
				{
					"internalType": "address",
					"name": "",
					"type": "address"
				}
			],
			"name": "anonClaimList",
			"outputs": [
				{
					"internalType": "uint256",
					"name": "",
					"type": "uint256"
				}
			],
			"stateMutability": "view",
			"type": "function"
		},
		{
			"inputs": [
				{
					"internalType": "address",
					"name": "to_",
					"type": "address"
				},
				{
					"internalType": "uint256",
					"name": "tokenId_",
					"type": "uint256"
				}
			],
			"name": "approve",
			"outputs": [],
			"stateMutability": "nonpayable",
			"type": "function"
		},
		{
			"inputs": [
				{
					"internalType": "address",
					"name": "tokenOwner_",
					"type": "address"
				}
			],
			"name": "balanceOf",
			"outputs": [
				{
					"internalType": "uint256",
					"name": "balance",
					"type": "uint256"
				}
			],
			"stateMutability": "view",
			"type": "function"
		},
		{
			"inputs": [
				{
					"internalType": "address",
					"name": "tokenOwner_",
					"type": "address"
				}
			],
			"name": "balanceOfStaked",
			"outputs": [
				{
					"internalType": "uint256",
					"name": "",
					"type": "uint256"
				}
			],
			"stateMutability": "view",
			"type": "function"
		},
		{
			"inputs": [
				{
					"internalType": "uint256",
					"name": "qty_",
					"type": "uint256"
				}
			],
			"name": "claim",
			"outputs": [],
			"stateMutability": "nonpayable",
			"type": "function"
		},
		{
			"inputs": [
				{
					"internalType": "uint256",
					"name": "qty_",
					"type": "uint256"
				},
				{
					"internalType": "uint256",
					"name": "qtyStaked_",
					"type": "uint256"
				}
			],
			"name": "claimAndStake",
			"outputs": [],
			"stateMutability": "nonpayable",
			"type": "function"
		},
		{
			"inputs": [
				{
					"internalType": "uint256",
					"name": "tokenId_",
					"type": "uint256"
				}
			],
			"name": "getApproved",
			"outputs": [
				{
					"internalType": "address",
					"name": "",
					"type": "address"
				}
			],
			"stateMutability": "view",
			"type": "function"
		},
		{
			"inputs": [
				{
					"internalType": "address",
					"name": "tokenOwner_",
					"type": "address"
				},
				{
					"internalType": "address",
					"name": "operator_",
					"type": "address"
				}
			],
			"name": "isApprovedForAll",
			"outputs": [
				{
					"internalType": "bool",
					"name": "",
					"type": "bool"
				}
			],
			"stateMutability": "view",
			"type": "function"
		},
		{
			"inputs": [
				{
					"internalType": "uint256",
					"name": "qty_",
					"type": "uint256"
				}
			],
			"name": "mint",
			"outputs": [],
			"stateMutability": "payable",
			"type": "function"
		},
		{
			"inputs": [
				{
					"internalType": "uint256",
					"name": "qty_",
					"type": "uint256"
				},
				{
					"internalType": "uint256",
					"name": "qtyStaked_",
					"type": "uint256"
				}
			],
			"name": "mintAndStake",
			"outputs": [],
			"stateMutability": "payable",
			"type": "function"
		},
		{
			"inputs": [
				{
					"internalType": "bytes32[]",
					"name": "proof_",
					"type": "bytes32[]"
				}
			],
			"name": "mintPreSale",
			"outputs": [],
			"stateMutability": "payable",
			"type": "function"
		},
		{
			"inputs": [
				{
					"internalType": "bytes32[]",
					"name": "proof_",
					"type": "bytes32[]"
				}
			],
			"name": "mintPreSaleAndStake",
			"outputs": [],
			"stateMutability": "payable",
			"type": "function"
		},
		{
			"inputs": [],
			"name": "name",
			"outputs": [
				{
					"internalType": "string",
					"name": "",
					"type": "string"
				}
			],
			"stateMutability": "view",
			"type": "function"
		},
		{
			"inputs": [
				{
					"internalType": "address",
					"name": "",
					"type": "address"
				},
				{
					"internalType": "address",
					"name": "",
					"type": "address"
				},
				{
					"internalType": "uint256",
					"name": "",
					"type": "uint256"
				},
				{
					"internalType": "bytes",
					"name": "",
					"type": "bytes"
				}
			],
			"name": "onERC721Received",
			"outputs": [
				{
					"internalType": "bytes4",
					"name": "",
					"type": "bytes4"
				}
			],
			"stateMutability": "pure",
			"type": "function"
		},
		{
			"inputs": [],
			"name": "owner",
			"outputs": [
				{
					"internalType": "address",
					"name": "",
					"type": "address"
				}
			],
			"stateMutability": "view",
			"type": "function"
		},
		{
			"inputs": [
				{
					"internalType": "uint256",
					"name": "tokenId_",
					"type": "uint256"
				}
			],
			"name": "ownerOf",
			"outputs": [
				{
					"internalType": "address",
					"name": "",
					"type": "address"
				}
			],
			"stateMutability": "view",
			"type": "function"
		},
		{
			"inputs": [
				{
					"internalType": "uint256",
					"name": "tokenId_",
					"type": "uint256"
				}
			],
			"name": "ownerOfStaked",
			"outputs": [
				{
					"internalType": "address",
					"name": "",
					"type": "address"
				}
			],
			"stateMutability": "view",
			"type": "function"
		},
		{
			"inputs": [
				{
					"internalType": "uint256",
					"name": "tokenId_",
					"type": "uint256"
				},
				{
					"internalType": "uint256",
					"name": "salePrice_",
					"type": "uint256"
				}
			],
			"name": "royaltyInfo",
			"outputs": [
				{
					"internalType": "address",
					"name": "",
					"type": "address"
				},
				{
					"internalType": "uint256",
					"name": "",
					"type": "uint256"
				}
			],
			"stateMutability": "view",
			"type": "function"
		},
		{
			"inputs": [
				{
					"internalType": "address",
					"name": "",
					"type": "address"
				},
				{
					"internalType": "address",
					"name": "to_",
					"type": "address"
				},
				{
					"internalType": "uint256",
					"name": "tokenId_",
					"type": "uint256"
				}
			],
			"name": "safeTransferFrom",
			"outputs": [],
			"stateMutability": "nonpayable",
			"type": "function"
		},
		{
			"inputs": [
				{
					"internalType": "address",
					"name": "",
					"type": "address"
				},
				{
					"internalType": "address",
					"name": "to_",
					"type": "address"
				},
				{
					"internalType": "uint256",
					"name": "tokenId_",
					"type": "uint256"
				},
				{
					"internalType": "bytes",
					"name": "data_",
					"type": "bytes"
				}
			],
			"name": "safeTransferFrom",
			"outputs": [],
			"stateMutability": "nonpayable",
			"type": "function"
		},
		{
			"inputs": [],
			"name": "saleState",
			"outputs": [
				{
					"internalType": "enum IPausable.SaleState",
					"name": "",
					"type": "uint8"
				}
			],
			"stateMutability": "view",
			"type": "function"
		},
		{
			"inputs": [
				{
					"internalType": "address[]",
					"name": "accounts_",
					"type": "address[]"
				},
				{
					"internalType": "uint256[]",
					"name": "amounts_",
					"type": "uint256[]"
				}
			],
			"name": "setAnonClaimList",
			"outputs": [],
			"stateMutability": "nonpayable",
			"type": "function"
		},
		{
			"inputs": [
				{
					"internalType": "address",
					"name": "operator_",
					"type": "address"
				},
				{
					"internalType": "bool",
					"name": "approved_",
					"type": "bool"
				}
			],
			"name": "setApprovalForAll",
			"outputs": [],
			"stateMutability": "nonpayable",
			"type": "function"
		},
		{
			"inputs": [
				{
					"internalType": "address",
					"name": "proxyRegistryAddress_",
					"type": "address"
				}
			],
			"name": "setProxyRegistry",
			"outputs": [],
			"stateMutability": "nonpayable",
			"type": "function"
		},
		{
			"inputs": [
				{
					"internalType": "address",
					"name": "royaltyRecipient_",
					"type": "address"
				},
				{
					"internalType": "uint256",
					"name": "royaltyRate_",
					"type": "uint256"
				}
			],
			"name": "setRoyaltyInfo",
			"outputs": [],
			"stateMutability": "nonpayable",
			"type": "function"
		},
		{
			"inputs": [
				{
					"internalType": "enum IPausable.SaleState",
					"name": "newState_",
					"type": "uint8"
				}
			],
			"name": "setSaleState",
			"outputs": [],
			"stateMutability": "nonpayable",
			"type": "function"
		},
		{
			"inputs": [
				{
					"internalType": "bytes32",
					"name": "root_",
					"type": "bytes32"
				}
			],
			"name": "setWhitelist",
			"outputs": [],
			"stateMutability": "nonpayable",
			"type": "function"
		},
		{
			"inputs": [
				{
					"internalType": "uint256",
					"name": "tokenId_",
					"type": "uint256"
				}
			],
			"name": "stake",
			"outputs": [],
			"stateMutability": "nonpayable",
			"type": "function"
		},
		{
			"inputs": [
				{
					"internalType": "bytes4",
					"name": "interfaceId_",
					"type": "bytes4"
				}
			],
			"name": "supportsInterface",
			"outputs": [
				{
					"internalType": "bool",
					"name": "",
					"type": "bool"
				}
			],
			"stateMutability": "view",
			"type": "function"
		},
		{
			"inputs": [],
			"name": "symbol",
			"outputs": [
				{
					"internalType": "string",
					"name": "",
					"type": "string"
				}
			],
			"stateMutability": "view",
			"type": "function"
		},
		{
			"inputs": [
				{
					"internalType": "uint256",
					"name": "index_",
					"type": "uint256"
				}
			],
			"name": "tokenByIndex",
			"outputs": [
				{
					"internalType": "uint256",
					"name": "",
					"type": "uint256"
				}
			],
			"stateMutability": "view",
			"type": "function"
		},
		{
			"inputs": [
				{
					"internalType": "address",
					"name": "tokenOwner_",
					"type": "address"
				},
				{
					"internalType": "uint256",
					"name": "index_",
					"type": "uint256"
				}
			],
			"name": "tokenOfOwnerByIndex",
			"outputs": [
				{
					"internalType": "uint256",
					"name": "tokenId",
					"type": "uint256"
				}
			],
			"stateMutability": "view",
			"type": "function"
		},
		{
			"inputs": [
				{
					"internalType": "uint256",
					"name": "tokenId_",
					"type": "uint256"
				}
			],
			"name": "tokenURI",
			"outputs": [
				{
					"internalType": "string",
					"name": "",
					"type": "string"
				}
			],
			"stateMutability": "view",
			"type": "function"
		},
		{
			"inputs": [],
			"name": "totalSupply",
			"outputs": [
				{
					"internalType": "uint256",
					"name": "",
					"type": "uint256"
				}
			],
			"stateMutability": "view",
			"type": "function"
		},
		{
			"inputs": [
				{
					"internalType": "address",
					"name": "",
					"type": "address"
				},
				{
					"internalType": "address",
					"name": "to_",
					"type": "address"
				},
				{
					"internalType": "uint256",
					"name": "tokenId_",
					"type": "uint256"
				}
			],
			"name": "transferFrom",
			"outputs": [],
			"stateMutability": "nonpayable",
			"type": "function"
		},
		{
			"inputs": [
				{
					"internalType": "address",
					"name": "newOwner_",
					"type": "address"
				}
			],
			"name": "transferOwnership",
			"outputs": [],
			"stateMutability": "nonpayable",
			"type": "function"
		},
		{
			"inputs": [
				{
					"internalType": "uint256",
					"name": "tokenId_",
					"type": "uint256"
				}
			],
			"name": "unstake",
			"outputs": [],
			"stateMutability": "nonpayable",
			"type": "function"
		},
		{
			"inputs": [],
			"name": "withdraw",
			"outputs": [],
			"stateMutability": "nonpayable",
			"type": "function"
		}
	]
}